:020000021000EC
:1000000000FE07205D610100CD5F01005961010024
:1000100059610100596101005961010059610100F4
:100020000000000000000000000000005961010015
:10003000596101000000000059610100596101008F
:1000400000000000000000000000000000000000B0
:1000500000000000000000000000000000000000A0
:100060000000000000000000000000000000000090
:100070000000000000000000000000000000000080
:100080000000000000000000000000000000000070
:100090000000000000000000000000000000000060
:1000A0000000000000000000000000000000000050
:1000B0000000000000000000000000000000000040
:1000C0000000000000000000000000000000000030
:1000D0000000000000000000000000000000000020
:1000E0000000000000000000000000000000000010
:1000F0000000000000000000000000000000000000
:1001000000000000000000000000000000000000EF
:1001100000000000000000000000000000000000DF
:1001200000000000000000000000000000000000CF
:1001300000000000000000000000000000000000BF
:1001400000000000000000000000000000000000AF
:10015000000000000000000000000000000000009F
:10016000000000000000000000000000000000008F
:10017000000000000000000000000000000000007F
:10018000000000000000000000000000000000006F
:10019000000000000000000000000000000000005F
:1001A000000000000000000000000000000000004F
:1001B000000000000000000000000000000000003F
:1001C00010B5054C237833B9044B13B1044800E053
:1001D00000BF0123237010BDA81200200000000002
:1001E00050A2030008B5034B1BB10349034800E0CC
:1001F00000BF08BD00000000AC12002050A20300A8
:1002000038B504460222002112F02EFB204612F0DF
:10021000E3FC002205461146204612F025FB284645
:1002200038BDFFFF08B500F0BFFB074B0146186063
:100230000122064800F00EFEBDE8084000220449F5
:10024000044801F015BC00BFC4130020C8130020EF
:1002500014940200F013002030B54B488DB007F025
:10026000F1FD20B90A2007F095FD0DB030BD4648DC
:1002700007F04AFEC0B259283DD14449444812F023
:10028000AFF80446404D284607F0DCFD18B128467B
:1002900007F03AFEF7E73F493B4807F051FB3E4A7B
:1002A0004FF48011204600F01FF905463A4906A890
:1002B00007F0C3FB002D1ADD384906A807F020FC23
:1002C000A8B9374909A807F0B8FB06A909A807F09B
:1002D0000BFC014606A807F0C2FB09A807F062FB69
:1002E000204611F057FE0699294804F08BFF06A816
:1002F00007F058FBB9E7522841D10D222249684640
:1003000007F038FB684607F00FFC254906A807F000
:1003100094FB06A909A807F0B1FB694609A807F0F4
:10032000E3FB014603A807F0A9FB09A807F03AFB85
:1003300006A807F037FB1B49039812F051F8044652
:10034000114D284607F07EFD18B1284607F0DCFD68
:10035000F7E77CB114490C4807F0F2FA2046009DFB
:10036000FFF74EFF22460146284600F0EDF92046F1
:1003700011F010FE03A807F015FB6846B8E7FF2848
:100380007FF473AF6EE700BFB42900200A8B03002F
:100390000D8B03001B8B0300C4120020178E03007B
:1003A0001D8B0300238B0300268B0300014801F003
:1003B00061BA00BFF01300202DE9F0414FF4E131A4
:1003C000164807F02EFD1649164800F0E7FF20B149
:1003D00000221349134801F017FC1349134811F088
:1003E000FFFF002406468025114FDFF848803B6858
:1003F0009C420ED22A19934238BF1D1B012233465C
:10040000294608EB040012F0F1FC012801D12C442C
:10041000EDE73046BDE8F04111F0BCBDB429002045
:10042000C8130020F01300200A8B0300288B030060
:10043000F00600201894020010B5002341F22104B8
:10044000014488420ED010F8012B83EA02230822CF
:1004500013F4004F4FEA430318BF6340013A9BB2C5
:10046000F6D1EEE7184610BD03685B681847FFFF3A
:1004700007B502A901F8010D01220348FFF7F4FFB7
:10048000002003B05DF804FBB429002008B5182053
:10049000FFF7EEFFBDE808401820FFF7E9BFFFFFB8
:1004A00070B5044607F0A8FC05460E4E304607F02E
:1004B000C9FC002809DC07F09FFC401BB0F57A7FDF
:1004C00003D2012007F066FCF0E7064807F0BAFC0B
:1004D00028B1044807F018FD2070002070BD4FF0CF
:1004E000FF30FBE7B42900202DE9F04F00269246AB
:1004F00035463446B1463746ADF2A44DCDE900103D
:100500000DF198080DF11700FFF7CAFF00281FDB57
:100510009DF81730042B6AD007D8012B22D0022B6C
:1005200050D0642007F036FC12E0412B00F0E88048
:10053000612B00F0E580182BF3D10DF11700FFF7C8
:10054000AFFF0028C0F2DC809DF81730182B44D094
:10055000012E47DC01342D2C51D9FFF797FF6FF0A6
:1005600007053FE04FF0800B88F8003043460BF161
:1005700004010DF11700CDE90213FFF791FF0028E8
:10058000E6DB9DF81700039B029903F8010FA3EB2C
:1005900008008142EDDC98F8021098F80130C94358
:1005A000C9B28B4211D10BF102010DF19B000293F4
:1005B000FFF742FF48B9012E029B22DD0620FFF71C
:1005C00057FF9FE74FF4806BCEE70134052C11D91C
:1005D000FFF75CFF6FF0010504E00620FFF748FF1E
:1005E0004FF0FF3528460DF2A44DBDE8F08F0136DF
:1005F000012E01D11520E2E70620FFF739FF432045
:10060000DDE75FFA89F18B4207D00134052CF1D97F
:10061000FFF73CFF6FF00205E4E7B9F1000F51D19D
:1006200098F80330002B41D0BAF1000F09D00DF13A
:100630009A0212F8013F13B10AF8013BF9E78AF870
:1006400000300DF19B0212F8013B002BFBD106ADEF
:10065000D15C202904D0102B02D0E9540133F7E7F4
:1006600000242846EC5413F0BDFE50B90025FFF7D6
:100670000DFF009B9D428CBF6FF008056FF00305D6
:10068000B0E728460A22214614F006F8054600285D
:10069000ECD0009B9842EAD80620FFF7E9FE432001
:1006A000FFF7E6FE274609F101092BE70134052C87
:1006B00004D9FFF7EBFE6FF0040593E71520FFF771
:1006C000D7FEF0E7AF4216D25C465F44BD423CBF66
:1006D0006419E41B019B22464FF001010DF19B00C0
:1006E00038BF2F4612F082FBA04204D0FFF7CEFEA7
:1006F0006FF0050576E70620FFF7BAFE0024D2E783
:10070000FFF7C4FE6FF006056CE737B505460A240F
:100710000DF10700FFF7C4FE78B99DF80730AB4232
:100720000FD0182B04D1FFF7B1FE022003B030BD6B
:10073000152B0CBF03200420F8E7013CE8D120462C
:10074000F4E70120F2E7FFFF2DE9F04107460D46EF
:1007500016460024ADF5826D4320FFF789FE0DF1AA
:100760000700FFF79DFE00280ADA01342E2CF3D192
:10077000FFF78CFE4FF0FF300DF5826DBDE8F08184
:100780002D2CF5D09DF80730432BF1D18322002189
:1007900002A813F0EBF80123ADF80830FF233A4626
:1007A0007E490DF10B008DF80A3013F0FFFB0DF1BF
:1007B0000B0013F017FE02AB04302A4678491844A8
:1007C00013F0F4FB0DF10B0013F00CFE04460DF1D9
:1007D0000B0013F007FE02AB0430184413F002FEC6
:1007E0000DF582631C4420230444A4F204442370C6
:1007F00080210DF10B00FFF71FFE6A4C03128DF8EC
:100800008B308DF88C00852202A92046FFF72CFE44
:100810000620FFF77AFF10F0FB0F04D1FFF736FE3A
:100820006FF00100A8E7022800F0AF800128EAD1AC
:100830004320FFF76AFF012804D0FFF727FE6FF07F
:10084000020099E704460227DFF85881002D52D0B4
:10085000E3B28DF80930DB43B5F5806F8DF80A30CF
:100860002A46334628BF4FF4806201210DF10B0068
:100870008DF8087011F0A4FE83B2B3F5806F0FD22B
:10088000D81CC3F57F7380B2033302A9421E10FA4D
:1008900083F30A440B44002102F8011F9342FBD169
:1008A0004FF480610DF10B00FFF7C6FD03128DF8C8
:1008B0000B348DF80C0440F2054202A94046FFF7C4
:1008C000D3FD0620FFF721FF012807D1B5F5806F82
:1008D00011D90134A4B2A5F58065B7E710F0FB0F7C
:1008E00004D1FFF7D3FD6FF0030045E70228E2D102
:1008F0006FF0040040E70420FFF7BAFD0620FFF781
:1009000004FF0328F7D010F0FB0F04D1FFF7BEFD62
:100910006FF0050030E7022839D00128EED14320DE
:10092000FFF7F3FE0128044604D0FFF7AFFD6FF098
:10093000070021E78322002102A813F017F8FF2304
:1009400080210DF10B00ADF808408DF80A30FFF75B
:1009500073FD144C03128DF88B308DF88C008522BA
:1009600002A92046FFF780FD0620FFF7CEFE10F01B
:10097000FB0F04D1FFF78AFD6FF00800FCE60228A8
:1009800008D00128EBD10020F6E66220F4E66FF0F3
:100990000600F1E66FF00900EEE600BF388B0300B9
:1009A0003B8B0300B42900201FB50F4CD4E88F3FC8
:1009B000D90715D420460CF035FB88B1782379226D
:1009C000CDE90132772375220093742176230748FD
:1009D00000F00EFB20460CF041FB054807F07EF9C5
:1009E000024804B010BD00BF48240020502400205D
:1009F000F5090100014800F063BA00BF502400204F
:100A0000002070470020704710B40468646AA44650
:100A10005DF8044B6047012070472DE9D04FDDE9B8
:100A200008899B46036892461B6B0446984702461A
:100A30000B46504659460DF0B9FF134302D0002033
:100A4000BDE8D08F236820461B6B984702460B46B3
:100A5000404649460DF0AAFF1343F0D123681AEB34
:100A600008069B6C20464BEB09079847B94208BF24
:100A7000B0422CBF01200020E2E701682DE9F041DF
:100A8000C96B14461D460646884702460B4620465B
:100A900029460DF08BFF134302D00020BDE8F08102
:100AA000DDE90623A71845EB0308336817F1FF3289
:100AB000D96B304648F1FF33884702460B4638462B
:100AC00041460DF073FF1343E7D1336830469B6C0A
:100AD0009847414508BFB8422CBF01200020DDE700
:100AE0002DE9D04FDDE908899B46036892465B6B90
:100AF0000446984702460B46504659460DF056FFAD
:100B0000134302D00020BDE8D08F236820465B6BE2
:100B1000984702460B46404649460DF047FF1343AF
:100B2000F0D123681AEB08069B6C20464BEB0907B3
:100B30009847B94208BFB0422CBF01200020E2E72D
:100B4000002070470020704703689B6B1847704770
:100B50000023020A60F3070362F30F23020C62F31F
:100B60001743000E60F31F631846704790F820305B
:100B70001BB140680368DB6918476FF47A607047FF
:100B80002DE9F74FDDE90C678A4690F820100446FE
:100B900090469946B1B10568CDE90067E96C884790
:100BA00080B1D4E902BC60681BEB08020168CDE9A2
:100BB0000C670C6A4CEB09035146A44603B0BDE830
:100BC000F04F60476FF47A6003B0BDE8F08F2DE915
:100BD000F74FDDE90C678A4690F8201004469046EE
:100BE0009946B1B10568CDE90067296D884780B1A4
:100BF000D4E902BC60681BEB08020168CDE90C6710
:100C00004C6A4CEB09035146A44603B0BDE8F04FD3
:100C100060476FF47A6003B0BDE8F08F2DE9F743C9
:100C2000DDE90A6790F82010044690469946A1B184
:100C30000168CDE90067496D884770B16068D4E903
:100C400002450168CDE90A6714EB0802896A45EBA1
:100C5000090303B0BDE8F04308476FF47A6003B0BE
:100C6000BDE8F08390F820301BB1406803681B6C2E
:100C700018476FF47A607047D0E904017047D0E9F3
:100C80000201704730B5D0E90423D0E902451019BC
:100C900043EB050130BD007E7047407E70474068E1
:100CA00010B103689B6D1847704710B504462821A2
:100CB0000CF0A8FB204610BD90F820301BB1406816
:100CC00003681B6B184700200021704790F8203004
:100CD0001BB1406803685B6B184700200021704718
:100CE00090F820301BB1406803689B6B18470020C8
:100CF00000217047014690F820002DE9300848B1E6
:100D0000D1E902454868121901686B41C96BBDE819
:100D1000300808470020BDE830080021704790F8EF
:100D2000203010B5044663B101211C3004F0A4F852
:100D300038B984F820006068BDE8104003689B69FA
:100D40001847002010BDFFFF2DE9F74F0546012190
:100D50001C3004F08CF8012875D1686803685B6961
:100D60009847064660BB686803681B6B9847422833
:100D700038BF422004460CF0E5FB07466868C4F51E
:100D800000720368CDE900463946D3F82080334627
:100D9000C047064688B9423C3C4494F84030552B45
:100DA0004FD194F84130AA2B4BD16B7E04EB031347
:100DB00013F8102C520608D0244E38460CF01EFAB8
:100DC000002385F82030EB6137E013F80C2C0F2A54
:100DD00004D848F22103D340DB07EDD468680368E8
:100DE0009B6B9847B0F5007F38BF4FF40070697E69
:100DF0008246013904EB01110B792B7651F8080F6B
:100E0000FFF7A6FEAAFB0089C5E902894868FFF73B
:100E10009FFEAAFB00AB6868C5E904AB0368CDE997
:100E200000AB4246596D4B4688470028C4D0012389
:100E3000384685F820300CF0E1F9304603B0BDE8C3
:100E4000F08F034EB9E70026F7E700BFE2F3FFFF9C
:100E5000E3F3FFFF30B5084C0025C0E90041002155
:100E600000240176C0E90245C0E904454276C1612B
:100E700080F8201030BD00BF488B0300FF20704772
:100E8000F8B5DDE90645A61845EB030703689B6C3A
:100E90009847B94208BFB0422CBF01200020F8BDDE
:100EA000F8B5DDE90645A61845EB030703689B6C1A
:100EB0009847B94208BFB0422CBF01200020F8BDBE
:100EC000704703681B68184703685B68184710B4CD
:100ED0000468A468A4465DF8044B6047D0E90A01A1
:100EE0007047D0E908017047D0E906017047D0E9A2
:100EF0000401704700487047D78B030010B50446C3
:100F000088210CF07FFA204610BD10B50446303021
:100F100004F070FB0023237110BD2DE9F04F85B064
:100F20008846DDE90E560168CDE90056C96C0446D5
:100F300092469B468847002855D02379002B3CD009
:100F4000B8F1000F51D004F13009DDE90E6716EB5E
:100F50000A0647EB0B0716F1FF3047F1FF31CDE9E9
:100F60000201029E4FEA9A62B00E039E4FEA9B6313
:100F7000B10E42EA8B12A56840EA86108B422AF035
:100F80007C4C08BF824265441FD00027CCF18066AC
:100F90001146484604F026FB32462946404612F0E8
:100FA0000DFCDDE90E231AEB060A4BEB070B921B37
:100FB00063EB0703CDE90E23C7E7236820461B68D0
:100FC00098470028BCD007200AE01146484604F0A4
:100FD00009FB04460E9A2946404612F0EFFB2046D4
:100FE00005B0BDE8F08F1620FAE70320F8E7FFFF11
:100FF0002DE9F04F04464FF0C0484FF00009C4E916
:1010000002894FF080784FF000090027C4E9048975
:101010004FF4805A4FF001084FF000094FF0000BD9
:1010200084F860309DF82430254884F861309DF8BC
:101030002830244E84F862309DF82C3004F1640589
:10104000206084F85E1084F85F2084F86330277194
:101050000FCEC4E90689C4E908ABC4E90A890FC503
:1010600096E80F0085E80F00032384F85C30052321
:10107000022284F8413084F84E304FF6207384F811
:1010800042204FF48072A4F850300423A26440F24E
:10109000026284F8523004F16403636504F15C0376
:1010A00084F85D7084F8407084F8437084F844706C
:1010B00084F84570A4F84C20A3652046BDE8F08F65
:1010C000EC8B0300B48B0300012373B56FF0004475
:1010D00002AD05F8043D00F130062946304604F023
:1010E0006DFA28B9013C05D09DF80430002BF4D1ED
:1010F00002B070BD1420FBE7F7B505790446002D5A
:101100006AD10127354E90F85E30077136F83310FA
:10111000334A284604F066FB94F85F30304A36F8CC
:101120003310284604F05EFB94F860302C4A36F801
:101130003310284604F056FB94F86130284A36F8FC
:101140003310284604F04EFB94F86230244A36F8F7
:101150003310284604F046FB94F86330204A36F8F2
:101160003310284604F03EFB1E4B8DF803501A88BE
:1011700004F130059B7804F140012846ADF80420C5
:101180008DF8063004F062FA20BB03463A4604F1BB
:101190004D01284604F042FAE0B92046FFF794FFDB
:1011A000C0B90346032201A9284604F037FA88B9DA
:1011B0002046FFF789FF68B93B463A4604F14E01E5
:1011C000284604F02BFA28B93A460DF103012846C7
:1011D00004F092F903B0F0BD0020FBE7489603004D
:1011E00000000111D48B03002DE9F3470A9F0B9CEB
:1011F0008946016800970194096D064690461D4690
:101200008847002835D0337923B1B9F1000F09D1CF
:1012100003202FE0336830461B6898470028F4D03D
:10122000072027E00020B46806F1300A44444FEA62
:101230009868274448EA8518A7421BD9D0B924F0FA
:10124000FF0505F58075AF422CBF2D1B3D1B4146A8
:10125000504604F0C7F9224649462B46504604F052
:1012600035FA2C44A9440028E6D13046FFF72CFF7C
:10127000E2E7162002B0BDE8F0872DE9F347DDE98B
:101280000A890168CDE90089496D044617461D4663
:10129000884790B3237943B3D4E9082340464946AD
:1012A0000DF084FB4FF0000A81465046BE0E46EA20
:1012B000851604F13008D14520D9F8B9216A404695
:1012C00001FB0A75A16825F07C450D44314604F008
:1012D00089F9226A2946404604F020F910B92046CF
:1012E000FFF7F2FE0AF1010AE5E7236820461B68D2
:1012F00098470028D0D0072000E0162002B0BDE8B3
:10130000F087036800229B6F1847132832D8DFE864
:1013100000F0330A0D0A101316191C1F1922221689
:101320000A25282B2E166FF0040070474FF0FF306F
:1013300070476FF0010070476FF0130070476FF057
:10134000150070476FF00C0070476FF01000704789
:101350006FF0080070476FF0120070476FF0730075
:1013600070476FF00F0070476FF00B0070476FF021
:1013700016007047404270470020704708B5064B82
:1013800053F8200003689B6B984780B2B0F5007F4C
:1013900038BF4FF4007008BDD82400200368012234
:1013A000D3F884301847704738B504460D460368B3
:1013B000DB6F984723686D692046D3F880309847E3
:1013C000284638BD38B504460D460368DB6F98479C
:1013D0002368ED682046D3F880309847284638BD0A
:1013E00038B504460D460368DB6F984723682D69BE
:1013F0002046D3F880309847284638BD2DE9F04183
:10140000044641F254060368DB6F9847A359013341
:1014100009D123682046D3F8803098476FF015052E
:101420002846BDE8F081002204F5825110311046B3
:1014300001F0DAFF0F4FA359804657F823000368E5
:101440009B6998472368054620B1D3F88030204631
:101450009847E5E7A25947F822004FF0FF32A25122
:101460002046D3F8803098474046BDE8F041FFF76A
:101470004CBF00BFD8240020F8B5044617460E46DE
:1014800019B9C0E900212046F8BD0E4812F0AAFFA4
:101490000546384612F0A6FF284401300CF052F8F9
:1014A0003A2343702F233036837005460670054873
:1014B00012F098FF3946284412F036FF024B25609F
:1014C0006360E0E7848C0300CD14010008B10BF0E9
:1014D00095BE704773B51446054628220021204664
:1014E00012F044FA2B682846DB6F984705F58250C6
:1014F0006A4601A9103002F063FB064650B12B6822
:101500002846D3F880309847304602B0BDE8704096
:10151000FFF7FBBE009B9A8922609A8962601A6A73
:10152000911E5A894A43C4E902205A89019B5343B8
:10153000C4E90430C4E90630FF2363622B682846FF
:10154000D3F880309847304602B070BD70B50D4674
:1015500003680446DB6F9847284602F0F1F9064617
:1015600023682046D3F880309847284628210BF07E
:1015700049FF3046BDE87040FFF7C7BEF7B50D46DE
:1015800016461F4603680446DB6F984701AB2846A2
:101590003A46314602F036F8054623682046D3F82D
:1015A000803098472DB1284603B0BDE8F040FFF7E2
:1015B000ACBE019803B0F0BDF7B50D4616461F4608
:1015C00003680446DB6F984701AB28463A4631462C
:1015D00002F0B6F8054623682046D3F880309847D5
:1015E0002DB1284603B0BDE8F040FFF78EBE01984C
:1015F00003B0F0BD38B50D4603680446DB6F98476D
:10160000284602F067F9054623682046D3F8803063
:1016100098472846BDE83840FFF777BEF8B51F4623
:1016200003680646DB6F0D4614469847022F12D119
:10163000EB681C442146284602F08FF904463368C3
:101640003046D3F880306D69984744B12046BDE8F4
:10165000F840FFF75ABE012FECD16B69E9E7284645
:10166000F8BDF8B50D46164603680446DB6F98478B
:10167000314628466F6902F070F9064648B1236882
:101680002046D3F8803098473046BDE8F840FFF751
:101690003CBE284602F0FEFA06460028EFD1284656
:1016A000394602F05AF9054630B123682046D3F88E
:1016B000803098472846E8E7F8BD70B50D460368C6
:1016C0000446DB6F9847284602F011FA0646236865
:1016D0002046D3F880309847284630210BF092FE00
:1016E0003046BDE87040FFF710BEF0B517460368FE
:1016F0000E69C7B0DB6F05460C469847BE420ADD4F
:101700000021204602F0FCF92B682846D3F88030EF
:10171000984747B0F0BDBE42F6DA6946204602F06F
:10172000EFF926690028EFD19DF91630002BF2D190
:10173000EAE770B50D4604460368DB6F9847284614
:10174000002102F0DDF923682046BDE87040D3F89F
:101750008030184770B50E460368C6B0DB6F05468B
:10176000144698473046694602F0CAF906462B6887
:101770002846D3F8803098472EB1304646B0BDE8B1
:101780007040FFF7C2BD9DF9160090B19DF808307A
:1017900013F0100F14BF0323052384F8003194F9CC
:1017A00000302BB9FF220DF11601204612F08EFEFB
:1017B000012046B070BDFFFF70B503680446DB6FC3
:1017C0000D461646984741F25403E358013307D0BB
:1017D00023682046D3F8803098476FF0150070BD1D
:1017E00000231A4A52F8230020BB41F2540142F868
:1017F000235041F2500263503033A354A51841F2F4
:1018000051033A22E25441F25203E054201D03F006
:10181000C5F93246294604F1140001F0E5FD0546FC
:1018200023682046D3F8803098472846BDE87040AA
:10183000FFF76BBD0133042BD4D123682046D3F8C6
:10184000803098476FF00B00C9E700BFD824002014
:1018500010B50446044B03602C3340F8043F03F0FA
:1018600033F9204610BD00BF508C0300A0F10400E6
:10187000EEE700BF10B50446064B03F108029833AB
:1018800002604360FFF7BAFD2046FFF7E1FF204604
:1018900010BD00BF888C0300A0F10400FFF7EABF71
:1018A00010B50446FFF7E6FF204641F258010BF061
:1018B000A9FD204610BDA0F10400FFF7F1BF10B54F
:1018C0000446FFF7C5FF204614210BF09BFD204680
:1018D00010BDA0F10400F2E707B5684614F042F924
:1018E000684611F09DFA0221D0E90232DB0243EA98
:1018F0000243426843EA4213026892FBF1F2134347
:1019000042690069503A43EA4263013043EA405079
:1019100003B05DF804FB11F04FBC11F055BC002082
:101920007047FFFF08B5044B53F8200003685B695C
:101930009847C0B208BD00BFD8240020F7B51746AD
:1019400005460E461C46FFF719FD0346094A314677
:1019500052F82500A3FB04450268CDE90045146A4E
:10196000A3FB0723A047002814BF0420002003B0D6
:10197000F0BD00BFD82400202DE9F34716461C46D1
:1019800081468A46FFF7FAFCDFF84080A0FB044559
:10199000A0FB066758F8290032460368CDE90045E8
:1019A000996A3B46884718B1042002B0BDE8F08729
:1019B00058F8290032460368CDE9004551465C6A73
:1019C0003B46A0470028F0D0EEE700BFD824002017
:1019D000F7B504461546042944D8DFE801F0030BA7
:1019E00020282B00214B53F82030002B3CD0002026
:1019F00003B0F0BD1D4B53F82000002834D003681D
:101A00009B6C9847064620460F46FFF7B7FC00231D
:101A100082B2394630460CF0C9FF2860E7E7134B25
:101A200053F8203003B3FFF7A9FC2880DFE7012338
:101A30001360DCE70D4E56F82030ABB1FFF79EFC8B
:101A400056F824106C682B680134E41AA4FB004596
:101A50000A68CDE90045D46AA0FB03230846A047E5
:101A60000028C4D00420C3E70320C1E7D824002005
:101A700038B50446154603F0C7F90B4B41F23C025A
:101A8000236090336360002104F1140011F06EFFB5
:101A900041F254034FF0FF32E2501DB12946204677
:101AA000FFF77CFC204638BD908C03002DE9F04FF9
:101AB000924600220446ADF5835D87B0114608A822
:101AC000FFF7D6FF236820465B69984783460028C6
:101AD0002ED1236820469B6B9847420041EB0103BF
:101AE000CDE90223DDE902122368CDE90012204688
:101AF000996A0022002388472368834618B120464C
:101B00009B69984714E01B6C2046984700283DDAF3
:101B1000236820465B6B98478046894611F04CFB52
:101B2000054670B9236820469B6998476FF00B0BF8
:101B300008A8FFF79FFE58460DF5835D07B0BDE886
:101B4000F08F4246FF2111F011FF00260027DDE94A
:101B500002239F4208BF964215D22368CDE900892F
:101B60003246D3F824B029463B462046D847834620
:101B700020B1284611F028FB2368C0E716EB0806C1
:101B800047EB0907E3E7284611F01EFB23682046D0
:101B9000DD6A9B6C98470023CDE9000100222046B6
:101BA000A8478346236820469B69BBF1000FA8D154
:101BB000984783460028BBD10246214608A8FFF774
:101BC000FBFD83460028B3D140F20F130422ADF889
:101BD00010300123CDE9052302460DF583504FF463
:101BE000805304A91030CDF81CA002F025FA044659
:101BF00008A834B1FFF702FC2046FFF786FB8346B6
:101C000096E7FFF7FBFBFAE7F8B503680446DB6FDE
:101C100017460E46984741F25403E3585A1C0BD01E
:101C200016B9144A52F82360236820469B6A9847E5
:101C3000054608B1236811E046B923682046D3F869
:101C4000803098476FF012052846F8BDFB173A46DA
:101C50003046FFF72BFF2368054620B1D3F88030CC
:101C600020469847F0E75B6A31462046984705468C
:101C7000E0E700BFD8240020436810B504460BB14C
:101C800000689847204610BD41F2540337B504461A
:101C90000A46C1586846FFF7EFFB23682046DB6F12
:101CA0009847009802F032F8054623682046D3F89A
:101CB00080309847072D09D02846FFF726FB0446B9
:101CC0006846FFF7D9FF204603B030BD6FF05904D6
:101CD000F6E77FB541F25405044616460A464159D7
:101CE0006846FFF7C9FB3246615902A8FFF7C4FBFB
:101CF00023682046DB6F98470299009802F008F9A4
:101D0000054623682046D3F8803098472846FFF7D9
:101D1000FCFA044602A8FFF7AFFF6846FFF7ACFFE6
:101D2000204604B070BD41F2540337B504460A465C
:101D3000C1586846FFF7A0FB23682046DB6F984731
:101D4000009802F049F8054623682046D3F8803011
:101D500098472846FFF7D9FA04466846FFF78CFFF4
:101D6000204603B030BD41F2540370B50446C8B0FC
:101D700016460A46C1586846FFF77EFB2368204690
:101D8000DB6F98474FF48C72002102A811F0EEFD32
:101D900002A9009801F0E8FE054670B123682046CC
:101DA000D3F8803098472846FFF7AFFA05466846D3
:101DB000FFF762FF284648B070BD40F2FF119DF862
:101DC0001020029B12F0100F336114BF4FF48043B8
:101DD0004FF4004312F0010F40F26D1208BF0A46A3
:101DE0001343736023682046D3F880309847DEE7BA
:101DF0002DE9F341054604301E468846144602F09C
:101E0000CDFE28200BF0F0F841F25403074622469D
:101E10006846E958FFF730FBB0072FD416F0010FE2
:101E200014BF02240124B10505D572054CBF44F04E
:101E3000080444F0100433072B6848BF44F0300412
:101E4000DB6F2846984722460099384601F0F4FA9D
:101E500004462B682846D3F880308CB19847282157
:101E600038460BF0CFFA2046FFF74FFA0446684693
:101E7000FFF702FF204602B0BDE8F0810324D2E75D
:101E80009847C8F80070F2E7F7B5054630201446C9
:101E90000F460BF0A9F841F2540306462246E958D2
:101EA0006846FFF7E9FA2B682846DB6F98470099E8
:101EB000304601F0D8FD04462B682846D3F8803020
:101EC00098476CB1302130460BF09CFA2046FFF762
:101ED0001CFA04466846FFF7CFFE204603B0F0BD6B
:101EE0003E60F7E742884378007843EA022340EAFD
:101EF000032070470B0A017043700B0C090E8370AE
:101F0000C1707047036A0239023B8B4283BF438929
:101F1000406B01FB030000207047024600F10B01FB
:101F20000020C30143EA500312F8010B50FA83F377
:101F30008A42D8B2F5D17047026810B504466AB13A
:101F4000114611F9013BD8B21F2812D93A2BF8D10A
:101F500092F90030303BD8B2092802D94FF0FF3057
:101F600006E002329142F9D1032B1846F6DC2160DB
:101F700010BD014B1878FBE7E824002038B50D466A
:101F8000044618B9092000232B6038BD0368002BD4
:101F9000F8D01A78002AF5D08188DA889142F1D1F8
:101FA0005878FFF7BCFC10F00100EBD12368EBE799
:101FB000CA7E8B7E032843EA022301BF487D0A7D47
:101FC00042EA002243EA024318467047C2F307235D
:101FD0008A76CB760378032B01BF120C0A75120A9E
:101FE0004A75704770B5037904460BB9002070BD7F
:101FF00000F13C06826B012331464078FFF7BCFCC0
:1020000080B9A16BE36A626ACB1A93422071EDD268
:10201000E378022BEAD10A44012331466078FFF7C6
:10202000ABFCE3E70120E2E7836B70B58B42064629
:102030000D4612D0FFF7D6FF044660B92A460123A9
:1020400006F13C017078FFF779FC00281CBF4FF0C7
:10205000FF350124B563204670BD0024FBE7FFFF78
:1020600038B5044694F83C3090F83B0294F83A5264
:10207000EB2B45EA00250AD01833DBB2012B06D939
:102080004AF6552085420CBF0220032038BD4AF68F
:1020900055239D423ED094F8482094F8473043EAB7
:1020A00002235A1E1A42EBD1A3F50073B3F5606FF9
:1020B000E6D894F84930002BE2D05A1E1A42DFD1FC
:1020C00094F84B2094F84A3053EA0223D8D094F87D
:1020D0004C30013B012BD3D894F84E2094F84D306E
:1020E00053EA0223CCD094F8502094F84F3043EABE
:1020F00002237F2B06D804F15C00FFF7F3FEB0F556
:10210000803FBDD394F8532094F8523053EA022311
:10211000B6D007E00822044904F18E0011F020FB3C
:102120000028B8D10020B1E7FB8D030001292DE97B
:10213000F04704460D46174640F28A80036A8B42F8
:1021400040F286800378022B49D0032B60D0012B0C
:102150007ED1838901EB510ABAFBF3F3C16A1944BA
:10216000FFF762FF064678BBA38915F00105BAFBAD
:10217000F3F203FB12A204F13C0817BF18F8023077
:10218000FBB203F00F013B011CBF03F0F0030B4354
:1021900008F8023001232371A3890AF10109B9FB70
:1021A000F3F3E16A20461944FFF73EFF064658B9AB
:1021B000A389B9FBF3F203FB129245B1C7F30717EA
:1021C00008F80270012323713046BDE8F08718F843
:1021D0000230C7F3032723F00F031F43F0E783897F
:1021E0005B08B1FBF3F3C16A1944FFF71DFF064614
:1021F0000028E9D1A1896D00B5FBF1F301FB13556E
:1022000004F13C0257555319C7F307275F70D9E70C
:1022100083899B08B1FBF3F3C16A1944FFF704FFFC
:1022200006460028D0D1A189AD00B5FBF1F201FB33
:10223000125504F13C031D442846FFF753FE27F0D6
:10224000704700F0704139432846FFF753FEB9E765
:102250000226B9E70129F8B504460E4668D9036A93
:10226000994265D20378022B32D0032B48D0012B40
:102270005ED1838901EB5105B5FBF3F3C16A1944C3
:10228000FFF7D2FE10B14FF0FF30F8BDA1896F1CEF
:10229000B5FBF1F201FB1252B7FBF1F1E36A224404
:1022A0001944204692F83C50FFF7BEFE0028EAD1C0
:1022B000A289B7FBF2F302FB13731C4494F83C00B1
:1022C000F30745EA00204CBF0009C0F30B00DCE730
:1022D00083895B08B1FBF3F3C16A1944FFF7A4FEDD
:1022E0000028D0D1A1897600B6FBF1F301FB13667B
:1022F00004F13C0293195B78905D40EA0320C4E747
:1023000083899B08B1FBF3F3C16A1944FFF78CFE84
:102310000028B8D1A289B600B6FBF2F302FB13661F
:1023200004F13C003044FFF7DDFD20F07040ACE7E5
:102330000120AAE7B1F5001FF8B505460E4601D306
:102340000220F8BDCA06FBD1826804682961D2B9AF
:102350002378022B01D9236BB3B92389B3EB561F22
:10236000EED9236BAB616A61AA69002AE8D0A18922
:102370003C34B6FBF1F301FB13661A443444AA6102
:10238000EC610020DDE713466289A78957431A46AE
:10239000BE42114604D22046FFF7B4FDA861E2E731
:1023A0002868FFF757FF431C024606D00128C7D90B
:1023B000236A8342C4D9F61BEAE70120C1E72DE96D
:1023C000F041804605680F4649B96E69CEB12B6A67
:1023D000B34298BF0126AB69ABB9002409E0284697
:1023E000FFF738FF0128044658D9421C04D14FF0AA
:1023F000FF342046BDE8F0812B6A8342F9D83E467F
:10240000E9E70126E7E7BE4215D12B6A741C9C421E
:1024100028BF0224D8F800002146FFF71BFF01283F
:102420003CD0431CE3D0D8B16B69012B03D92A6A95
:10243000934238BF1E4634462B6A0134A34202D869
:10244000012ECAD902242146D8F80000FFF702FF66
:1024500040B1012822D00130C9D0B442ECD1BCE750
:10246000002CE8D04FF0FF3221462846FFF75EFEF1
:1024700090B957B92A6AAB69023A93426C610FD995
:102480006B7943F001036B71B3E722463946284666
:10249000FFF74CFE0028EDD00128A8D00124A8E7C2
:1024A000013BAB61ECE72DE9F3410D46012D0746F9
:1024B000114648D90468236AAB4244D942B9A846B8
:1024C00029463868FFF7C6FE064658B9002006E0E0
:1024D0004FF0FF322046FFF729FE0028EFD002B070
:1024E000BDE8F08101282ED0431C2ED000222946C1
:1024F0002046FFF71BFE0028F1D1226AA369023AA9
:10250000934205D20133A361637943F00103637100
:102510006B1CB34212D041462046FFF7F3FC29461C
:1025200000902046FFF7EEFC63896A46013B1844A1
:10253000019004216078FFF74BFAB046236A3546D4
:10254000B342BDD8C2E70220C9E70120C7E72DE9A1
:10255000F84305460E46FFF745FD0446002854D1D2
:1025600031462846FFF7CEFC05F13C09A863214619
:1025700080464FF48052484611F0F8F96B89AC89D7
:102580005C43B4F5004F28BF4FF40044AB899C4234
:102590001ED92046FFF7BFF90746B8B1AB899C4268
:1025A00031D922460021384611F0E0F9AB890026E6
:1025B000B4FBF3F46B899E420CD33846FFF7ADF9B8
:1025C0006889801B18BF0120BDE8F8836408DDE737
:1025D0000027E3E7234608EB060239466878FFF751
:1025E000CBF90028E9D12644E4E701366B899E4205
:1025F000E6D2012308EB060249466878FFF7BCF9EA
:102600000028F2D0DCE70026F0E70120DCE72DE926
:10261000F041066904462036B6F5001F24BF0023AA
:10262000836183698846076883B1BA89B6FBF2F093
:1026300002FB1062002A38D161690133A36139B904
:102640003B89B3EB561F30D80023A36104200AE076
:102650007B89013B034228D13846FFF7FBFD012867
:10266000054602D80220BDE8F081421C01D10120BC
:10267000F9E73B6A834212D8B8F1000FE4D06169F0
:102680002046FFF79CFE0546D8B10128EAD0431C3E
:10269000EDD001463846FFF75AFF0028E7D16561C3
:1026A00029463846FFF72EFCA061B9892661B6FBA2
:1026B000F1F201FB126607F13C031E44E6610020C3
:1026C000D1E70720CFE7C16A2DE9F0414B1C044652
:1026D0000568066918D1E5274FF00108A169284669
:1026E000FFF7A2FC60B9E3691F7085F804802369D5
:1026F000B3420DD201462046FFF789FF0028EDD0F6
:10270000042808BF022003E0FFF714FE0028E2D0EF
:10271000BDE8F0812DE9F04F002185B00446D0F8E6
:1027200000A0FFF707FE8046002840F093804FF09E
:10273000FF094FF0FF334E46E362A1695046FFF7B1
:1027400073FC8046002840F08580E5692F78002FD3
:1027500000F08480EA7AE52F02F03F03A37103D0F2
:10276000120705D50F2B05D04FF0FF33E36258E079
:102770000F2B5DD194F82B30580648D479064ED5EE
:10278000236995F80D9007F0BF07E3626B7B4B451B
:1027900047D1EB7EAE7E46EA032636B2002E40D10C
:1027A00095F80080012108F03F0808F1FF334FF051
:1027B0000D0808FB03F8DAF810B02A4BF25CAB18EE
:1027C0005878AB5C43EA002369B3B8F1FF0F28D80F
:1027D0001846039302F02EF808F1010202903BF82C
:1027E0001800019202F026F80299814219D1039B48
:1027F000019A1946904601360D2EDED12B785A06E5
:1028000003D511B13BF818305BB9013FFEB200218E
:102810002046FFF7FCFE804600288ED01AE0BE421C
:10282000B4D0FF26F3E74FF6FF729342E3D0F8E708
:1028300026B92846FFF771FB48450BD094F82B309A
:10284000DB0791D40B2204F12001284610F088FF09
:10285000002889D1404605B0BDE8F08F4FF004084C
:10286000F8E700BFA88D03002DE9F04F036885B09D
:10287000009391F9003006462F2B884601D05C2B3F
:102880000BD1424692F9003090462F2B02F1010203
:10289000F8D05C2BF6D0002301E0009BDB69B3602D
:1028A00098F800301F2B00F212818023002130465F
:1028B00086F82B3005B0BDE8F04FFFF73BBD7F2811
:1028C00003D9FF2D08D1062056E10146AD4811F08D
:1028D000D7FB0028F5D0F6E72BF815400135FAE0D4
:1028E00004241CE1022D04D1BBF802302E2B00F091
:1028F00019810BEB450395BB00230BEB45022BF82D
:102900001530002DDFD03BF81310581C20292ED095
:102910000BB92E2902D144F00304E4B232F8021DAF
:102920002E2901D0013DF9D14FF0000920214FF0AF
:10293000080A4F460B227018019311F017F8019BFB
:102940005A1C3BF8133023B3202B03D02E2B10D16D
:10295000954212D044F00304E4B21346F0E733F892
:10296000022D202A01D02E2AC6D1013DC3E70346FD
:10297000C9E7D14505D295423ED1BAF10B0F33D10B
:1029800002E0BAF10B0F29D14FF00B0A44F0030417
:10299000E4B296F82030E52B04BF052386F82030FA
:1029A000BAF1080F04BFBF00FFB207F00C030C2BF5
:1029B00003D007F00303032B02D144F00204E4B276
:1029C000A30700F1C480FD0744BF44F01004E4B243
:1029D000780744BF44F00804E4B2B8E0954203D05D
:1029E00044F00304E4B2D4D3BF00FFB22A464FF050
:1029F0000B0A4FF00809B0E77F2B3DD944F00201E4
:102A000002921846CAB240F2B511019201F0DEFE00
:102A100010F0800F0346029A14D05B4900F07F0348
:102A2000CB5C43B1194659480392029311F028FB3D
:102A3000DDE9023210B3019B43F00303DBB20193E3
:102A40005F2311E0FF28ECD90AF1FF31894504D357
:102A500044F00304E4B2D1467FE706EB0901000A23
:102A600081F8200009F1010906EB090181F8203005
:102A700009F10109019C70E70194D3E7A3F1410139
:102A800089B21929A3F1610189B298BF47F0020701
:102A900019299EBF203B47F001079BB2E4E7002ABB
:102AA00008BF052068E05A0766D4B379DB0666D50F
:102AB000009B30699A8903F13C01B0FBF2F302FB01
:102AC00013031944009B1878FFF772FAB0600025D1
:102AD0003368D3F810B018F8010B00283FF400AFAA
:102AE00040F2B51101F092FE044600283FF4EBAE2F
:102AF0001F287FF6F5AE2F2802D05C287FF4DFAECA
:102B0000424692F9003090462F2B02F10102F8D094
:102B10005C2BF6D0DBB2202B34BF04240024012D23
:102B20007FF4E0AEBBF800302E2B7FF4E2AE002342
:102B300006F120022BF815309D4294BF20212E2152
:102B400001330B2B02F8011BF6D144F0200486F868
:102B50002B403046FFF7DEFD96F82B300028A2D040
:102B6000042809D1990603F0040298D5002AAED0B2
:102B70008023002086F82B3005B0BDE8F08F0520BB
:102B8000FAE700BF188E0300288D0300218E030092
:102B90002DE9F04F90F82B4089B014F0A0040546C1
:102BA00040F0858007683A6932F81430002B5ED116
:102BB00005F120060C22314605A810F0FFFD9DF816
:102BC0001F30DB077CD540234FF00109DFF8288256
:102BD00085F82B300B2205A93046D7F810A010F04D
:102BE000EDFDB9F1050F53D94A46AAF1020131F8BA
:102BF000023F002B3DD1072302F00F0000F130010E
:102C0000392988BF00F13701013B03A81844120994
:102C100041700BB1002AEFD17E2108AA1A4402F8B4
:102C2000141C0022934203D0B15C501C202931D1E6
:102C30003244072B8FBF202108A9C91811F8141C92
:102C400098BF013302F8011B911B0729F1D92846CF
:102C5000FFF760FD824668BB09F10109B9F1640F15
:102C6000B8D14FF0070A504609B0BDE8F08F0134E3
:102C70009AE7102003F0010C0CEB420212F4803FA3
:102C800018BF82EA080201384FEA5303F2D1AEE7D7
:102C90004A46B0E70246C5E7804601212846FFF7CD
:102CA000B6FC824608B3BAF1040FDAD0DBE74FF086
:102CB000060AD8E70428D6D19DF81F3085F82B30B6
:102CC0009DF81F3000219B0742BF0D230C34B4FB3D
:102CD000F3F428464CBF01340124D5F80090FFF7E7
:102CE00029FB82460028DED18046A9694846FFF7C5
:102CF0009BF982460028D6D1EB691B78E52B01D0E1
:102D0000002BC9D108F101084445C6D1013C56D079
:102D100029692846A1EB4411FFF70CFB82460028E5
:102D2000A1D13046FFF7F9F84FF6FF798046A9693F
:102D30003846FFF779F98246002894D10F224FF0E8
:102D40000D0CEB69E1B2D7F810E0DA724A1E0CFB09
:102D500002F2844683F80D8018739876D876019233
:102D600048451FBF019A3EF8120001320192214AE4
:102D70001CF802A00CF1010C03F80A0003EB0A0B8B
:102D80004FEA102A002808BF4846BCF10D0F8BF807
:102D900001A0E5D1484503D0019A3EF812200AB9B6
:102DA00041F040011970012300213B712846FFF7D3
:102DB0002EFC824600287FF456AF013CB7D1A969AA
:102DC0003846FFF731F9824600287FF44CAF0146C0
:102DD0002022E86910F0CAFD0B223146E86910F0A4
:102DE000EDFC95F82B30EA6903F018031373012307
:102DF0003B7138E7A88D030021100100F8B50446A7
:102E0000FFF7F0F80546002842D12378032B37D18D
:102E10006779012F34D104F13C0601464FF480520A
:102E2000304610F0A3FD552384F83A32AA2384F8E3
:102E30003B3252234122722184F83C3084F83D30E9
:102E4000612384F83F2084F83E3084F8222284F8FD
:102E5000233284F8201284F8211204F50970A16944
:102E6000FFF748F8616904F50A70FFF743F8A26AB2
:102E70003B460132A26331466078FEF77DFD657105
:102E8000002260781146FEF7A3FD003018BF012034
:102E9000F8BD2DE9F0470027D0F800908F758369C1
:102EA00006460C46002B00F09880C36A013370D1AF
:102EB00000232E271946F069451E15F8012F013110
:102EC000202A10D0052A08BFE522092906D10B2B9C
:102ED0009EBF04EB030C8CF80970013304EB030C68
:102EE0008CF8092001330B29E7D10021E218517237
:102EF00094F91620002A5CD1002B51D0082504F14A
:102F0000090111F9013B002B4DD09BB22E2BA3F1EF
:102F1000410708BF1025192F04D8077B3D421CBF6D
:102F200020339BB20B730132EBE7B8F1000F05D1F0
:102F300000F520539BB2B3F5006F13D340F2B511E7
:102F400040EA084001F042FCFF28C5F1FF0A18D909
:102F5000BAF1010F20D96319020A9A75D8750223B4
:102F600000201D4480460237D9F81030D85B002875
:102F7000DBD1B8F1000F18BF002500232544AB7545
:102F800096E748B1BAF1000F08D06319987501238C
:102F9000E6E7B8463D46E7E70025EAE75546E8E7B5
:102FA0003F230122A375002322449375037B03B9B9
:102FB0006372F169CB7A01F11C0003F03F032372C5
:102FC000FEF790FF2060CA7D8B7D43EA0223E380F9
:102FD0004A7E0B7E43EA0223A380BDE8F087FFFF11
:102FE0002DE9F84FFF2581462C464FF0040A4FF695
:102FF000FF780668444FD9F8181019B9BAF1000FD4
:1030000075D064E03046FFF70FF8824600285ED1A5
:10301000D9F81C000378002B73D0C27AE52B02F09C
:103020003F0289F8062058D02E2B56D022F02001DE
:10303000082952D00F2A55D15A064CD503F0BF04A7
:10304000D9F81030457BC9F82C30437BAB4244D1D2
:10305000C27E837E43EA02231BB2002B3DD14FF098
:103060000D0C4FF0010E0278316922F04002013A56
:103070000CFB02FC13F807A000EB0A0292F801B067
:1030800010F80A2042EA0B22BEF1000F27D0BCF153
:10309000FF0F22D8964621F81C200CF1010C0133B9
:1030A0000D2BE7D103785B0608D5BEF1000F05D0E4
:1030B000BCF1FF0F11D8002321F81C30013CE4B211
:1030C00000214846FFF7A3FA8246002893D0002348
:1030D000C9F818300DE0A342B7D0FF24F0E742450D
:1030E000DDD0FAE744B9FEF718FFA84204D14FF04B
:1030F000000A5046BDE8F88F4FF0FF33C9F82C3076
:10310000F7E74FF0040AE2E7A88D030000232DE95A
:10311000F04F0B6085B00D461646FEF70DFF0028F8
:10312000C0F2E880AB4B53F82040002C00F0E48064
:103130002C60237806F0FE066BB16078FEF7EFFB9B
:10314000C10708D41EB110F0040600D00A2630468C
:1031500005B0BDE8F08F002360782370FEF7E2FB36
:10316000C20700F1CB800EB14307EFD404F10C028B
:1031700002216078FEF72CFC08B10126E7E7A3895D
:10318000A3F50072B2F5606FF7D8591E1940F4D15B
:103190004FF0FF332171A3632046FEF745FF06463B
:1031A0000028EAD12046FEF75BFF022840F0898024
:1031B000314604F202252846FEF794FE4DF8210020
:1031C0000131042905F11005F5D100254FF0FF3834
:1031D0002F465DF8251000296AD02771C4F8388081
:1031E0002046FEF721FF002869D12046FEF738FF70
:1031F00001285ED894F8482094F84730B4F80C8041
:1032000043EA0223984561D194F8533094F8521060
:1032100051EA032104D104F16000FEF763FE014688
:1032200094F84C50D4F838906B1E012B6162E57015
:103230004CD894F84970BBB26381002B46D07B1EFA
:103240003B4243D194F84E3094F84DA04AEA032A09
:103250004FEA5813BAFBF3FB03FB1BA39BB2A4F882
:1032600008A09BBB94F8503094F84F0050EA03201C
:1032700003D104F15C00FEF735FE94F84B3094F86E
:103280004A2052EA032221D001FB05FC0BEB02038A
:10329000634498421AD3C51AB5FBF7F5B5B14E4849
:1032A000854213D84FF6F570854229D903272DE0C2
:1032B00003200135042D8CD1042807D15DE70420BB
:1032C000F7E704283FF459AF012893D90D263EE7CC
:1032D000BAF1000FFAD0022F4FEA450018BF40198B
:1032E000624418BF05F0010522630CBF054605EBDB
:1032F000500525E00B262AE70C2628E7032626E7BB
:1033000040F6F577BD4294BF0127022702354A44B3
:103310004B44032F2562C4F82890E2626363D7D13F
:1033200094F8672094F8663053EA0223CED1BAF1BC
:10333000000FCBD104F16800FEF7D4FDAD0020638F
:1033400008F1FF331D44B5FBF8F88845BED84FF0AF
:10335000FF33C4E905338023032F637130D194F820
:103360006D2094F86C3043EA0223012B28D109F137
:1033700001012046FEF758FE10BB94F83B2294F85A
:103380003A32607143EA02234AF65522934217D13A
:1033900004F13C00FEF7A6FD104B984210D104F555
:1033A0000870FEF79FFD0E4B984209D104F5097095
:1033B000FEF798FDA06104F50A70FEF793FD6061C9
:1033C000084A2770138801339BB21380E3800023DF
:1033D000E361BCE6EC240020F5FFFF0F525261418F
:1033E00072724161FC2400201FB5CDE9001004A8D1
:1033F00040F8041D1446FEF79FFD002816DB0D4B18
:1034000053F820201AB1002143F820101170019ABE
:1034100022B100215070117043F8202044B10022E5
:1034200001A96846FFF772FE04B010BD0B20FBE750
:103430002046F9E7EC2400202DE9F04391B00191FA
:1034400017460546002800F0D98002F03F063246B4
:1034500003A901A8FFF75AFE002840F0CD80039B86
:103460004FF400700493FEF756FA8046002800F0EF
:10347000C780039B0199186104A8FFF7F5F904467A
:1034800020B99DF93B30002BB8BF062417F01C0F64
:1034900058D0002C4DD0042C41D104A8FFF778FB64
:1034A000044600283BD146F00806310754D5FEF704
:1034B00013FA024601460B980E30FEF71BFD0B98DF
:1034C00011461630FEF716FD039CDDF82C9020788F
:1034D0004946FEF76DFD202389F80B3000220B9939
:1034E00007462046FEF772FD002201210B9B1A774A
:1034F0005A779A77DA77039B19716FB3394604A824
:10350000D3F83890FEF7CFFF044640B949460398F8
:10351000FEF78AFD039B013F5F610446E0B1404630
:10352000FEF7FBF90CB100232B60204611B0BDE87B
:10353000F0839DF8163013F0110F59D17807B4D5E8
:103540000824ECE7002CEAD19DF81630DA064DD4B9
:10355000BC0701D5D8074BD4039C0B9FA36B6F62AC
:103560002B6220783107394648BF46F04006FEF707
:103570001FFD0146A86007F11C00FEF7B3FCE388BD
:10358000B206AB804FF000030746E8602C602E7453
:103590006B74EB616B6101D40024C0E70028FBD0A1
:1035A0006389A48968615C43BC4211D30024A9618A
:1035B000002CB4D103988389B7FBF3F203FB127795
:1035C000002FE9D0FEF79EFCA0B10244EA61A6E715
:1035D0002868FEF73FFE01280146A7EB040703D940
:1035E000431CE1D10124E2E70224E0E7042496E74A
:1035F000072494E7022492E7044694E7092494E719
:10360000112492E72DE9F04F9A46002385B08946B0
:10361000CAF8003003A904461546FEF7AFFC06467B
:1036200000BB667CF6B9237CDA0740F18780E3684B
:103630006769DF1BAF4228BF2F469FB1039B6169BB
:103640009A89B1FBF2F002FB1012002A57D15B8974
:10365000013B13EA000813D141B9A06801280AD838
:1036600002266674304605B0BDE8F08FA169206877
:10367000FEF7F0FDF2E7431C01D10126F1E7A0615E
:10368000DDF80CB0A1695846FEF73CFC0028E7D0F5
:10369000BBF80C5008EB0003B7FBF5F5019365B3DD
:1036A000BBF80A2008EB0501914288BFA2EB080590
:1036B0002B46019A49469BF80100FEF73FF9002886
:1036C000DBD103990B7953B1886B019BC01AA842D7
:1036D00005D28A893C3102FB009010F06FF8039B01
:1036E0009B895D43DAF800307F1B2B44CAF8003019
:1036F0006369A9441D4465619FE7019BE3610398E9
:1037000062698589E169B2FBF5F305FB1323ED1AC4
:10371000BD4228BF3D46FEF787FC0028ADD1039B84
:1037200060699A8903F13C01B0FBF2F302FB1303D9
:103730002A461944484610F041F8D3E7072691E796
:103740002DE9F04F9B46002385B08946CBF8003029
:1037500003A904461746FEF711FC054628BB657C05
:103760001DBB237C9A0740F1B3806369FB4200D301
:10377000DF43B7B1039862698389B2FBF3F103FBBE
:103780001123002B40F081804389013B0B400193C2
:103790001ED172B9A06870B901462046FEF70FFE2F
:1037A00048B9237C43F040032374284605B0BDE8A4
:1037B000F08FA169F1E7012802D102256574F4E7D1
:1037C000431C01D10125F9E7A368A06103B9A060FA
:1037D0000398E369826B9A4203D1FEF703FC002849
:1037E000F0D1DDF80CA0A1695046FEF78BFB002854
:1037F000E3D0BAF80C60019BB7FBF6F603EB0008C8
:10380000002E34D0019ABAF80A3032449A4288BF66
:10381000019A9AF8010088BF9E1A334642464946EB
:10382000FEF7AAF882460028CCD10398816BA1EB61
:103830000801B14208D282893C3002FB01910FF0AD
:10384000BDFF039B83F804A0039B9B895E43DBF8C9
:103850000030BF1B3344CBF800306369B1441E44D1
:10386000E3686661B3422CBFE360E66081E76269AA
:10387000E3689A4207D35046FEF7B4FB0028A1D173
:10388000039BC3F83880C4F81C800398626986895A
:10389000E169B2FBF6F306FB1323F61ABE4228BF1A
:1038A0003E46FEF7C1FB00288CD1039B61699A89D3
:1038B00003F13C00B1FBF2F302FB13133246184450
:1038C00049460FF07BFF4FF00102039B1A71BEE7E0
:1038D00007256AE7F7B501A90446FEF74FFB054641
:1038E00058BB237C5B0628D5FDF7F6FF216A074607
:1038F0000198FEF799FB0546F8B9666AF37A3146F6
:1039000043F02003F372A2682068FEF75FFBE168D2
:1039100006F11C00FEF7EEFA394606F11600FEF736
:10392000E9FA01230198B574F5740371FFF766FA9B
:103930000546237C23F040032374284603B0F0BDE2
:1039400013B50446FFF7C6FF28B901A92046FEF7C4
:1039500015FB00B9206002B010BDF7B50D4601A9F6
:103960000446FEF70BFB0646002844D1667C002E79
:1039700041D1E368AB4204D2227C12F0020F08BFAF
:103980001D460022636962610DB928461DE0019A57
:10399000518997894F4323B3013B6A1EB2FBF7F26B
:1039A000B3FBF7F18A421CD37A421340A1696361E9
:1039B000ED1A002943D10020E36865699D4281BF6B
:1039C000237CE56043F040032374019B9A89B5FB97
:1039D000F2F302FB135575B1E36983420BD0E0614A
:1039E00009E0A16879B92046FEF7E9FC0128014603
:1039F00004D102266674304603B0F0BD013001D117
:103A00000126F7E7A160A161D3E73B446361237C12
:103A1000ED1B9A0706D52046FEF7D1FC014628B9D2
:103A200005460FE02068FEF715FC01464B1CE7D069
:103A30000129DED9019B1B6A8B42DAD9A161BD4203
:103A40006369E2D8636901982B4463618389B5FB9C
:103A5000F3F203FB1255002DADD0FEF753FA002808
:103A6000C7D01044A8E77FB50546019100283AD099
:103A7000002203A901A8FFF749FB044650BB039BA2
:103A80004FF400702B60FDF746FF064668B3039BBA
:103A9000019918612846FEF7E7FE0446A0B995F99A
:103AA0002B30002B08DBAB79DB0618D5039BE969CB
:103AB0001878FEF77DFAA860039B0021DB88284672
:103AC000AB80FEF737FC04463046FDF726FF042C9A
:103AD00007D00CB100232B60204604B070BD052434
:103AE000F2E70524F6E70924F6E71124F4E713B515
:103AF00001A90446FEF742FA00B9206002B010BDE9
:103B00002DE9F3410F4601A90546FEF737FA0446B1
:103B100028B947B901462846FEF70CFC0446204662
:103B200002B0BDE8F0814FF40070FDF7F4FE0646E8
:103B3000C0B1019B18612846FFF752FA10F0FB084C
:103B400004460BD139462846FFF7A3F941462846DB
:103B5000FEF75DFD042814BF044600243046FDF73F
:103B6000DCFEDCE71124DAE770B58EB001900E467A
:103B7000002202A901A8FFF7C9FA0446C8B94FF408
:103B80000070FDF7C8FE0546C0B1029B019918619F
:103B900002A8FEF769FE044640B99DF93330002BB8
:103BA0000ADB1EB1314602A8FFF773F92846FDF77C
:103BB000B4FE20460EB070BD0624F7E71124F8E7E6
:103BC0002DE9F04385B001908846154603A90022EF
:103BD00001A8FFF79BFA074640B9039C2C60256AB1
:103BE000A369AA1E934205D8C8F80030384605B02C
:103BF000BDE8F0832378012B19D10225064629461A
:103C00002046FEF727FB431C3ED001283ED000B9DA
:103C10000136039B01351B6AAB42F0D8039BC8F801
:103C200000605A799E6142F001025A71DEE7E16A52
:103C30000646044634B9039801F10109FEF7F4F988
:103C400030BB4946DDF80C9099F8002009F13C039F
:103C5000022A03EB04000FD11B5D4278023453EAC1
:103C6000022308BF0136B9F80C30013DB4FBF3F272
:103C700003FB1244DED1D1E7FEF734F930F0704394
:103C800008BF01360434EEE70127AFE70227ADE7AE
:103C90000746ABE773B501A90446FEF76FF9054681
:103CA000C0B9657CB5B9237C9A072DD56669E368F0
:103CB0009E420FD28EB92A46A1682046FEF7F3FB3A
:103CC0000546A6606369E360237C43F040032374E8
:103CD00005B16574284602B070BDA1692068FEF781
:103CE000B9FA431C01460BD001280BD0019B1B6A7B
:103CF0008342E7D9A2692046FEF7D5FB0546E1E7F6
:103D00000125DFE70225DDE70725E3E72DE9F0419F
:103D10009CB00190022203A901A8FFF7F7F904461D
:103D2000F8B9039B4FF400700493FDF7F4FD0646C9
:103D300000284FD0039B0199186104A8FEF794FD59
:103D4000044658B99DF83B309A0641D41B063FD42F
:103D50009DF8168018F0010F07D007243046FDF7B4
:103D6000DCFD20461CB0BDE8F081039F0B9938783C
:103D7000FEF71EF918F0100F05460BD104A8FEF748
:103D8000A2FC04460028E9D1CDB90398FFF736F824
:103D90000446E3E7FB698342DFD01290214610A876
:103DA0001097FEF7C7FA04460028D7D110A8FFF7EE
:103DB00017F904460028D0D00428CFD1DEE7024608
:103DC000294604A8FEF76FFB04460028C6D1DCE7AD
:103DD0000624C3E71124C4E72DE9F04794B001900D
:103DE000022203A901A8FFF791F9044600287BD11C
:103DF000039B4FF400700893FDF78DFD07460028E4
:103E000000F08480039B0199186108A8FEF72CFD3F
:103E10000446002876D0042863D19DF84B1011F099
:103E2000200171D1039B14AE46F8403D3046FEF7A9
:103E3000C6FA054600285BD001285BD0431C5C42D3
:103E40005C41FDF749FD8146002C55D12946039878
:103E5000FEF77DFB044600284ED12E244FF01008BB
:103E60004FF0010A03980B2220213C300FF07EFD19
:103E70000398494680F83C4080F847805230FEF76E
:103E800039F803982A4600F13C01FEF79FF80398A1
:103E9000202200F13C015C300FF090FC03980A9A5C
:103EA00080F85D4000F15C01FEF790F8039B08A8E4
:103EB00083F804A0FEF76CFE0446E8B90F98494663
:103EC0001630FEF717F82A460F990398FEF77EF88A
:103ED0000F9B039883F80B8080F804A0FEF78EFFF9
:103EE00004463846FDF719FD204614B0BDE8F087BA
:103EF0000724A6E70224A4E7002229463046FEF75D
:103F0000D2FAEEE70824ECE70624EAE71124EBE70F
:103F1000F0B5A5B0019024A840F8901DFEF70CF86C
:103F2000022203A901A8FFF7F1F80446002879D17D
:103F3000039B4FF400700C93FDF7EDFC0646002840
:103F400077D0039B019918610CA8FEF78DFC0446FD
:103F5000002864D19DF85B3013F0A00F65D12022BA
:103F6000139904A80FF02AFC302218A80DEB0201C7
:103F70000FF024FC009918A8FEF776FC044648B917
:103F80001A9A0E9B9A4203D11C9A109B9A4203D014
:103F9000082444E0042842D118A8FEF7F9FD04469D
:103FA00000283CD101271F9C13220DF11D0104F1B3
:103FB0000D000FF003FC9DF81B30039DDA0658BF7F
:103FC00043F02003E3722F71E37ADB061ED50E9ACD
:103FD0001A9B9A421AD021462878FDF7E9FF01463C
:103FE0002846FDF78FFF014608B32846FEF71CF868
:103FF0000446A0B9039890F85D302E2B06D11A9A8A
:1040000000F15C01FDF7E2FF039B1F710CA8FEF7B6
:104010005AFB044618B90398FEF7F0FE04463046F2
:10402000FDF77BFC204625B0F0BD0624F7E702240F
:10403000F5E71124F6E7FFFF2DE9F04F91B010AE40
:1040400046F81C0D30460C4693461D46FDF774FF9E
:104050000028C0F2B0838E4B53F820300BB1002201
:104060001A70C3B218460093FDF75CFCC20700F15A
:10407000A483430700F1A383864B002C08BF1C4692
:1040800063680B9323B90BAA03210098FDF7A0FCEA
:104090000B9A531EB3F5004F01D21A4201D00123EF
:1040A0000B930DF12A0202210098FDF791FC08B153
:1040B00001202FE0BDF82A80A8F50073B3F5606FEA
:1040C000F6D808F1FF3313EA080FF1D16378A76837
:1040D0000293013B012B029B88BF012302937B1EAD
:1040E000B3F5004F19D24FEA5812B7FBF2F302FBB7
:1040F0001373002B18BF4FF40077E668B6F1807F8A
:104100000ED8731E334218BF0026B5FBF8F3059393
:1041100043B9112011B0BDE8F08F4FF40077ECE700
:104120000026F2E794F80090BBF1000F17D1059B31
:1041300003FB08F0FDF7EFFB04460028E9D000235D
:1041400010AA42F8103D01210098FDF741FC40B152
:10415000BBF1000FACD12046FDF7DFFBA8E75C46C2
:10416000EDE719F00803079310D10C9B3F2B0FD9F3
:104170003F253F3B0C930C9B7F2B0BD8BBF1000FD3
:1041800002D12046FDF7C9FB0E20C3E70546F2E742
:10419000079DF0E719F0020209F001033BD0002B64
:1041A0000CBF4FF003094FF00209B6FBF8F3802B68
:1041B00028BF802303920193FDF78EFBB9F1030F13
:1041C0000890DDF83080019B039A76D1002B40F0F7
:1041D000E180012330494FEA584631F8020F10B10F
:1041E000B04224D90020B8FBF3F1BDF82AC00CEB93
:1041F00081060736B6FBFCF6A1F57F410396274EF4
:10420000F639B142BAD800219A46049103464FF0DC
:10421000200903267DE03BB9BBF1000F02D1204607
:10422000FDF77BFB132075E74FF00209BDE75B004C
:10423000D3E74FEA4A0A47E00298B1FBF0FC00FBE3
:104240001C1CBCF1000F05D001980139013009F1A7
:10425000010901900298B1FBF0F103980844039022
:1042600075E0022E40F09A804FF6F571069888426C
:1042700016D9002B40F0A5824FEA4A03402B1CD9E7
:10428000002AA6D1802B3FF679AF9A4621E000BFE5
:10429000EC240020D48D0300C28D0300FFFFFE0F2D
:1042A00040F6F571069888427FD8002B7FF466AF00
:1042B0004FEA4A03802B3FF661AF002BE5D14FF068
:1042C000010A35484FEA183630F8021F09B1B142E9
:1042D000AFD9B8FBFAF140F6F57081429CBF01EB13
:1042E00041010131BDF82A008BBF02314908490064
:1042F000033100F1FF3C6144B1FBF0F103914FEA5F
:104300004711B1FBF0F18CBF022601264FF00109E5
:10431000049105EB090101910399032E8C46DDE917
:10432000011000FB0C100499DDF82CC000EB010E0D
:104330000CF1FF317144CCF1000C01EA0C01A1EB4E
:104340000E017FF479AF0198894408440190C5EBD0
:104350000A110EEB01008045FFF410AF0398A8EBA3
:10436000090184460298032E00FB1C110498A1EB5E
:104370000001B1FBFAF106917FF473AF4FF6F571CE
:104380000698884211D8002B7FF4F8AE5FEA5A03F2
:104390003FF4F4AE184626E7B48D030040F6F573FB
:1043A000069A9A423FF6EAAE012608F1FF332B4403
:1043B0000EAA042100980F930E95FDF709FBBDF896
:1043C0002A20002120460FF0D1FAD2490B222046A4
:1043D0000FF0F4F9032E08BF0027BDF82A300C991E
:1043E000E3721B0A23739DF8083084F80E906774FB
:1043F000C9F30729C7F30727B1F5803F84F80DA05B
:1044000084F80F902374A77480F05D81E174C1F388
:1044100007212175089B002243449846F8236375C1
:104420003F232376FF2329466276A376E27604F1C2
:104430001C00FDF75FFD032E414640F0498104F169
:104440004300FDF757FD039904F12400FDF752FDE9
:10445000022384F82C30012384F83030062384F8BA
:104460003230802384F84030292384F82D2084F8CA
:104470002E2084F82F2084F8312084F83320132252
:10448000A54984F8423004F147004FF055094FF038
:10449000AA080FF093F984F8FE9184F8FF810123B4
:1044A0002A4621460098FDF767FA074600287FF460
:1044B0004FAE032E3AD10123AA1D21460098FDF7E5
:1044C0005BFABDF82A20394620460FF04FFA5223F6
:1044D00023706370612341227221A37084F8E73155
:1044E000069BE27084F8E41184F8E51184F8E62173
:1044F000591E04F5F470FDF7FDFC0223EA1D84F853
:10450000EC312146012384F8ED7184F8EE7184F8D2
:10451000EF7184F8FE9184F8FF810098FDF72CFA82
:1045200001232146EA180098FDF726FA059BBDF8FD
:104530002A2000215A4320460FF018FA012E774B0B
:1045400018BF6FF007034FF00009FF250693032EF5
:1045500040F0D4806FF0070323704FF00F036570B5
:10456000A570E57025716571A571E571257265729B
:10457000A572E372DDF80C80059B2146434528BFF8
:104580004346019A00981F46FDF7F6F901460028B8
:104590007FF4DEADBDF82A2020460FF0E7F9019B3D
:1045A000B8EB07083B440193E6D1029A09F10103F5
:1045B0009A424FF00109CAD8049B032E08BF534604
:1045C0000493DDE90432934228BF13462146019A41
:1045D00000981D46FDF7D0F900287FF4B9AD019B86
:1045E0002B440193049B5B1B0493EAD1032E00F040
:1045F0008A800C9BB3F5803F80F08880022E14BF28
:104600004FF0010A4FF0040A079B002B4AD10C9B84
:104610000DAA0E93079B012100980F93FDF7D8F97F
:1046200000287FF495AD052308274FF63E42DDF8BC
:104630003480B8FBF7F1914274D84FF480520021D6
:1046400020460FF093F964233F22B8FBF3F34FF0B9
:1046500000090193134604F5E375904513D90EA99B
:1046600051F82960642E03D80EBF464601994E4387
:10467000B0182CBF01210021804500D309B1A8EB5F
:104680000206002E54D1552384F8FE31AA230022BD
:1046900084F8FF31214601230098FDF76DF90028C9
:1046A0007FF456AD002200981146FDF791F90028DD
:1046B0007FF44EADBBF1000F7FF42CAD2046FDF72B
:1046C0002CF9584626E504F12000FDF713FCA1E67D
:1046D00004F12700FDF70EFC9DF80C301322A375A2
:1046E000039B0F49C3F30723E375802384F8243029
:1046F000292304F12B0084F82630C6E606992046CB
:10470000FDF7F8FB36E74FF00C0A7DE74FF0060A9D
:104710007AE700BFE48D0300F08D0300F8FFFF008F
:10472000048E03007F00013BFFB282D1FF2784E7A4
:10473000114628460293FDF7DDFB3146281DFDF7A3
:10474000D9FB029B09F10109B2FBF3F1B1FBF7F0D0
:1047500007FB101CC1EB8111511A05F807CC4FEA79
:10476000900C2CF03F0C013141EA0C01324405F869
:10477000061C511EB1FBF3F605F8050CB6FBF7F06D
:1047800007FB106CC6EB8616891B8608013126F0E4
:104790003F063143B9F1040F05F804AC05F803CC2A
:1047A00005F8021C05F8010C3FF46DAF1035002A26
:1047B0007FF453AF67E70B20ACE40320AAE40A20A0
:1047C000A8E4002A7FF402ADD8E400BF7F2810B52A
:1047D00001D880B210BDB0F5803F03D240F2B513CE
:1047E000994206D00020F5E70132802A03D1134612
:1047F00006E00022044C34F8121093B28142F3D147
:1048000003F18000C0B2E5E7D69003007F280DD900
:1048100040F2B513994208D1FF2806D8044B00F1A5
:104820000040803833F8100070470020704700BF08
:10483000D6900300B0F5803FF0B521D21E4A1F4943
:1048400083B2B0F5805F28BF0A46141D34F8042CEB
:104850002146A2B1934212D334F8025C2E0AEDB283
:10486000AF18B84222DA082E09D8DFE806F0050AA8
:1048700010121416181A1C00801A34F8103018463A
:10488000F0BD981A00F001001B1A9BB2F7E7103B2D
:10489000FBE7203BF9E7303BF7E71A3BF5E7083346
:1048A000F3E7503BF1E7A3F5E353EEE70434002EC2
:1048B000CCD101EB4502C8E7288E03001A90030013
:1048C00038B5436804460D4643B90B6800F108014A
:1048D000DB6D2846984700B9656038BD6FF015005C
:1048E000FBE710B50446406830B10368A1681B6E51
:1048F00098470023636010BD6FF01500FBE7FFFFD2
:10490000044B10B50360436804460BB1FFF7E9FFA1
:10491000204610BDE0910300436810B41A68946EFD
:104920000A468168184623465DF8044B18474368D9
:1049300081681A681846D26E1047436881681A6801
:104940001846126F1047436881681A681846526FFC
:10495000104710B50446FFF7D3FF20460C2108F09E
:1049600051FD204610BD70B50D46044640F20112BF
:10497000002128460EF0FAFF60682A460368A16805
:104980005B6EBDE870401847024A02600022C0E931
:1049900001227047E091030000290CBF6FF018005E
:1049A00000207047012070476FF0150070476FF0CE
:1049B0001500704711207047704770B50D4641686B
:1049C000044641B929680E6B00F108012846B0473A
:1049D00000B9656070BD6FF01500FBE710B50446C7
:1049E000406830B10368A1685B6B9847002363603F
:1049F00010BD6FF01500FBE7044B10B50360436872
:104A000004460BB1FFF7EAFF204610BD0C920300ED
:104A100030B40446406803689D6B1346AC460A46B2
:104A2000A16830BC604730B4044640680368DD6B61
:104A30001346AC460A46A16830BC604743688168AB
:104A40001A681846126C1047436881681A6818463D
:104A5000526C104730B40446406803689D6C13469E
:104A6000AC460A46A16830BC6047436881681A6852
:104A70001846D26C1047436881681A681846126D50
:104A80001047436881681A681846526D104743689A
:104A900010B41A68946D0A468168184623465DF87A
:104AA000044B184710B50446FFF7A6FF20460C211B
:104AB00008F0A8FC204610BD024A02600022C0E9AE
:104AC000012270470C9203000F4B10B503608368FE
:104AD00004462BB10D4A136883420FD1436813601B
:104AE0000B4B1A68A24204BF00221A60237B13B941
:104AF000201F00F0F7F9204610BD13465A68A24265
:104B0000FBD162685A60EBE7689203000025002041
:104B10000425002010B50446FFF7D6FF20461021DB
:104B200008F070FC204610BD054B027303600023A3
:104B3000C0E9013119B1034B1A681860426070472F
:104B4000689203000025002070B506460D46104B04
:104B50001C6884B1A06808B96468FAE70FF042FCE9
:104B6000A842F9D12A463146A0680EF0F9FD002886
:104B7000F2D1204670BD072DFBD12A4631460548AB
:104B80000EF0EEFD0028F4D1034B1C68F1E700BFE6
:104B900000250020589203000425002080687047FB
:104BA000007B704700207047036801221B690021C9
:104BB00018470022036811461B6918476FF015005B
:104BC0007047FFFF70B50E4600250446C0E900554A
:104BD0000C4930460FF0ACFC294630442060236875
:104BE00093F900202F2A06D101332360FFF7ACFF91
:104BF0006060204670BD002AF8D001330131236087
:104C0000EDE700BF868C030000687047406808B578
:104C100020B1FFF7C5FF431E5842584108BD10B5EB
:104C20000446FFF7F3FF10B1606800B1043810BD0F
:104C3000406808B520B1FFF7B3FFB0FA80F0400933
:104C400008BD10B50446FFF7F3FF10B1606800B16E
:104C5000043810BD4068003018BF012070476FF065
:104C6000570070476FF0570070476FF0570070475C
:104C700000207047036810B49C6C0022A4460123F6
:104C80005DF8044B6047036810B49C6C0023A44695
:104C90001A465DF8044B604703682DE9F04104466D
:104CA000DB6C0D469847236880469E6C294602239C
:104CB00000222046B0470646236842469F6C29469C
:104CC00000232046B8473046BDE8F0816FF057001A
:104CD0007047704700207047036800229B6E18479A
:104CE00003682DE9F041DB6E04460E469847804686
:104CF00040F2011008F078F9236807461B6F31462F
:104D000020469847002523683A465B6E3146204688
:104D10009847002801DD0135F5E7236842469B6E80
:104D2000314620469847384640F2011108F06AFBA8
:104D30002846BDE8F081FFFF10B50446024B036032
:104D4000FFF75AFE204610BD7892030010B50446C6
:104D5000FFF7F2FF20460C2108F054FB204610BD5F
:104D60002DE9F04105460C2098460E46174608F0FE
:104D70003BF90446FFF7A0FE094B294623603A465B
:104D800043462046FFF719FE054630B1236820460A
:104D90005B6898472846BDE8F0813460FAE700BFB9
:104DA0007892030010B50446024B0360FFF7A8FD9C
:104DB000204610BDCC92030010B50446FFF7F2FF69
:104DC00020460C2108F01EFB204610BDF8B5054614
:104DD0000C200E46174608F007F90446FFF7D4FDED
:104DE000084B29463A4620462360FFF769FD0546F1
:104DF00028B1236820465B6898472846F8BD346090
:104E0000FBE700BFCC92030010B50446064B01221D
:104E100040F8043BFFF788FE044B204603F10802EC
:104E200088332260636010BD88930300F092030012
:104E300038B50446FFF7D2FD0546236820465B6877
:104E40009847284638BD38B50446FFF74AFD054661
:104E5000236820465B689847284638BD6FF05700A6
:104E600070476FF0570070476FF057007047036846
:104E700019440160084670470368591A01600846E2
:104E800070471D2070476FF0150070470120704774
:104E90000020704710467047002301200B707047B8
:104EA0007047704710B50446042108F0ABFA20465D
:104EB00010BDFFFF032008B5094B53F820204AB16D
:104EC00001304028F9D10CF0E7FF182303604FF0C0
:104ED000FF3008BD4FF0FF3243F82020F9E700BF54
:104EE000F40600200023194610B5054A52F8234065
:104EF000844208BF42F823100133402BF6D110BD85
:104F0000F4060020002070473F2870B5054620DCDD
:104F1000114C54F820305A1C0DD102280BDCFFF73D
:104F2000F1FF034628B90D4ED6E88F3FDB0704D5C5
:104F30000B4B44F82530184670BD304608F072F827
:104F40000028F5D0304608F089F8064802F0C6FE81
:104F5000EEE70023EFE700BFF4060020082500205D
:104F6000F4070020A14E01000EB42DE9F04185B0F8
:104F70000546FFF79FFF041E13DB0023294602A806
:104F80000193FFF71FFE02A8FFF764FE1B4D0646C4
:104F900068B90CF081FF1323036045F824604FF0DB
:104FA000FF34204605B0BDE8F04103B0704702A8C9
:104FB000FFF73EFE074602A837B1FFF742FE019019
:104FC000019B45F82430ECE7FFF729FE0646002850
:104FD000DFD0036802A8D3F80880FFF715FE0B9B0B
:104FE000024601A93046C04706460028E8D00CF02A
:104FF00053FF7642066045F82470D0E7F40600209F
:1050000073B50E46184905460FF0B0F8044620B9AE
:10501000FFF77AFF204602B070BD144928460FF012
:10502000A5F820B90120FFF76FFF0124F2E710492E
:1050300028460FF09BF820B90220FFF765FF0224F5
:10504000E8E795F90030402B07D10422691C0DEBED
:1050500002000EF0B3FB019CDCE731462846FFF767
:1050600083FF0446D6E700BF049403000B940300BB
:10507000FC93030038B505460024FFF745FF0B4BB2
:1050800043F8254030B90CF007FF092303604FF0C7
:10509000FF3038BD03685B699847051E04DA0CF0E1
:1050A000FBFE6D420560F2E72046F2E7F4060020C1
:1050B000FFF7E0BF38B50C461546FFF725FF38B9B6
:1050C0000CF0EAFE092303604FF0FF34204638BDA0
:1050D00003682146DB682A469847041EF6DA0CF07E
:1050E000DBFE64420460EFE708B5131E06DA0CF03D
:1050F000D3FE162303604FF0FF3008BD04D0FFF746
:10510000D9FF40EAE070F8E71846F6E738B50C46F4
:105110001546FFF7F9FE38B90CF0BEFE092303600F
:105120004FF0FF34204638BD036821469B682A466D
:105130009847041EF6DA0CF0AFFE64420460EFE715
:10514000002A08B503DBBDE80840FFF7DFBF0CF01D
:10515000A3FE162303604FF0FF3008BD10B5FFF724
:10516000D3FE044628B90CF097FE092303602046BD
:1051700010BD0368DB699847041EF8DA0CF08CFE5A
:10518000644204600024F2E7FFF7E8BF38B50C463C
:105190001546FFF7B9FE38B90CF07EFE092303600F
:1051A0004FF0FF34204638BD036821461B692A466C
:1051B0009847041EF6DA0CF06FFE64420460EFE7D5
:1051C000FFF7E4BF38B50D46FFF79EFE044630B941
:1051D0000CF062FE092303604FF0FF3038BD036816
:1051E000DB699847002814BF4FF400534FF4004385
:1051F0006B60236820469B6A984728610020EDE792
:10520000FFF7E0BF7FB50C4601466846FFF7DAFCC2
:10521000214602A8FFF7D6FC6846FFF700FD0446CA
:1052200002A8FFF7FCFC3CB90CF036FE1323036028
:105230004FF0FF3004B070BD844203D00CF02CFE60
:105240001223F4E7236868465D69FFF7DDFC064634
:1052500002A8FFF7D9FC314602462046A847041EA3
:1052600004DA0CF019FE64420460E1E70020E1E793
:1052700008B502F07BFD002008BDFFFF08B51A4904
:105280004FF4C06002F076FD03200023174A9178A6
:10529000137060F3020191705178137101F0F801FD
:1052A00063F3061151701249537193710B700B72B5
:1052B000C1E90533CB604FF6037301200B82DF2376
:1052C000D07048600B48CA618B7400F063FC50B921
:1052D000084800F06FFB30B9064800F0C9FB10B970
:1052E0000222054BDA7008BD0000010148250020AC
:1052F0000C2500202C2500203827002008B5FFF7BA
:10530000BDFFBDE808400021232002F07DBCFFFF67
:1053100030B5D0F83C5285B0DDB1D0F8403204460B
:105320008C46C3B193E807000DF1100E0EE907009B
:105330009CE8070083E80700D4F8442218469A60E6
:10534000A847D4F8403223B104AA12E9070083E841
:10535000070005B030BD0B46EEE700BFF0B585B0E5
:10536000EFF303840022454B103C64B253F82460F1
:10537000CDE90122336A0392196948F27F3062F362
:10538000000119619A6BDD6B02F00502D143054003
:105390009963E943D00742EA0545D96311D508214D
:1053A000ADF804101969C9054CBF996A9969029151
:1053B0001968262952D0196C21F0040141F001012D
:1053C00019642F4F2F4077BB530712D4736A1D43C4
:1053D000B37F75621BB1BDF80430002B49D1294B56
:1053E000C03453F824206FF3104243F8242005B052
:1053F000F0BD96F82830012BE8D0736886F8287045
:105400005B68C6E90C779A681868F7621369B76336
:105410009847BDF8043043F02003ADF80430336AF8
:10542000C3F8B071D2E7012200271A61736886F8C9
:1054300028705A68BDF80430C6E90C7743F0400381
:10544000ADF80430936810681B69F762B76398473A
:10545000336A45F40005C3F8B071B7E7D96B01F4BE
:10546000814180290CBF88214FF48471ADF804106C
:10547000A7E7304601A9FFF74BFFB0E7AC250020B6
:1054800000007F8000600040002230B585B0CDE98B
:1054900001220392EFF30384154B103C64B253F8DE
:1054A0002400056AAB6B13F4847F03D0827701225A
:1054B000ADF8042013F4047F05D0BDF8042042F0B9
:1054C0000202ADF8042003F44673DB43D0F8442213
:1054D00001A9AB630392FFF71BFF064BC03453F8DF
:1054E00024206FF3104243F8242005B030BD00BFE4
:1054F000AC250020006000404AB14FF0C840013A9E
:105500004B1E1144026903F8012F8B42FAD14FF070
:10551000C843002001225A6158617047F0B44FF02F
:10552000C8460568D6F80468AC7CB4B10023686945
:1055300003E09C4200F108000FD047680133974216
:10554000F7D101324FF0C84330D0012200885A61B0
:105550006C7B1C615A61186108E04FF0C84201235E
:10556000002053616C7B146153611061AA7806F1CD
:10557000204602F00302032A01EB060311D04FF08C
:10558000C842C3F30740C3F30721DBB210611161C6
:1055900013614FF0C843F0BC002001225A615861EA
:1055A00070474FF0C842190E1161E8E701220188E7
:1055B0005A61687B18615A611961EAE730B44FF0AB
:1055C000C8420125002403685561987B1061587911
:1055D00013695561C3402B40204654610B7030BCA9
:1055E000704700BF4FF0C84389060020C3F8041875
:1055F000704700BF0021C160EFF31080012383F3E7
:105600001088054B5A6842F040025A605B6880F38C
:1056100010880846704700BF004008404FF0C84C53
:105620000120CCF8140042B1501E08444A1E12F862
:10563000011F8242CCF81010F9D123B94FF0C842B3
:105640000121516153610020704700BF10B4EFF396
:105650001084012383F310881A4B5A6822F0400209
:105660005A605B6884F310884FF0C84300228C694D
:105670009A611A625A63C3F804280A7842F0100249
:105680001A6362789A608A785A62CA7842F47F42D2
:105690009A62227842F030025A604A7842F040041E
:1056A0001C60016022B1B2FA82F2C2F11F02D2B2D2
:1056B000002305490271C0E902315DF8044B184628
:1056C000704700BF00400840495053514FF0C84C4C
:1056D00030B50125DCF804480068CCF8145004F11A
:1056E000204E447B7244CCF81040CCF81450047B1C
:1056F000C2F30745CCF810408078C2F3072400F0CD
:105700000300032804BF100ECCF810004FF0C8406F
:10571000D2B20561046102613BB10B445A1E0139EA
:1057200011F8013F91420361FAD14FF0C8430020C4
:1057300001225A61586130BD38B50488002C4CD024
:105740000021436840F20245043303EBC40040F2F9
:10575000034C40F2044E0C460FE062452FD153F843
:10576000042C02F0B852B2F1807F14BF41F0020164
:1057700044F002040833834210D01A88AA42ECD1C4
:1057800053F8042C083302F0B852B2F1807F14BFF2
:1057900041F0010144F001048342EED1C943CDB28E
:1057A000012000F0AFFC0E4B012093F8BB24144302
:1057B0002C4083F8BB44BDE8384000F073BC724510
:1057C000D8D153F8042C02F0B852B2F1807F0CBF4C
:1057D00044F0040441F00401CCE7FF25E0E700BFFA
:1057E00000E0014070B5012684B002AB68460C466B
:1057F00015460193ADF80060ADF80C100292FFF76A
:105800009BFFEFF3108286F310881D490B681BB9CC
:1058100040261C48C370C6700B6801330B6082F3CE
:105820001088EA034FEA1423E4B219D41B01164A84
:10583000234442F82350EFF31082012383F31088AE
:105840000B6813B10B68013B0B600B681BB9802020
:105850000C49CB70C87082F31088002004B070BD72
:10586000094A04EB031052F820601B016FF3104645
:1058700042F8206025F4803642F82060D7E700BF68
:10588000A8250020000D08400008084010B582B08F
:10589000EFF30384164B103C64B253F824201549EF
:1058A00050790B5C03F00303032B0FD0C03451F885
:1058B00024306FF3104341F82430936823B1D26849
:1058C000CDE900206846984702B010BD936823B127
:1058D000D268CDE9002068469847064BC03453F89B
:1058E00024206FF3104243F8242002B010BD00BF03
:1058F000AC250020006000404FF4964310B442688D
:1059000083B00193137803BB4AF68023274AA2F899
:105910008430B2F884309BB2802B08D110E0019B18
:10592000013B0193B2F884309BB2802B08D0019BDD
:10593000002BF4D14FF4FA7003B05DF8044B7047BC
:10594000002003B05DF8044B704792F911301848FD
:1059500003F1C00150F821406FF3104440F821409A
:10596000012103F01F045B099B0003F1604303F571
:10597000614301FA04F4C3F880411C6092F91320DA
:1059800002F1C00350F823406FF3104440F8234065
:1059900053099B0002F01F0203F1604301FA02F277
:1059A00003F56143C3F880211A60ADE700E07F4052
:1059B000006000400246F121D2E90223013B9BB284
:1059C00013800020117270478268107A00F0010085
:1059D000137AC3F340039842FAD1137A0020C3F339
:1059E00040030B7113889BB20B6070478268117A79
:1059F00001F00101137AC3F340039942FAD14FF049
:105A0000F40C0021436882F808C0117393F9123036
:105A100013F1210F03D100230360184670478B4216
:105A20001ADB012110B45A090F4C03F01F03203276
:105A300001FA03F344F82230BFF34F8FBFF36F8FA7
:105A400043680A4A93F912305DF8044B42F8230088
:105A50000023036018467047044A42F823000023DD
:105A600003601846704700BF00E100E0AC2500204D
:105A70008268117A01F00101137AC3F3400399425D
:105A8000FAD143681978012903D0F1230020137259
:105A900070474FF0F10CC168187C094B43F8201097
:105AA0004B1E9BB253809380138082F808C0137AF8
:105AB0009B07FCD54FF6FF730020538093807047FF
:105AC0005025002010B4826892F808C00CF0010C38
:105AD000137AC3F340039C45FAD14368C468D8697C
