:020000021000EC
:1000000000FE0720890D0100F90B0100850D01009C
:10001000850D0100850D0100850D0100850D010094
:10002000000000000000000000000000850D01003D
:10003000850D010000000000850D0100850D010007
:1000400000000000000000000000000000000000B0
:1000500000000000000000000000000000000000A0
:100060000000000000000000000000000000000090
:100070000000000000000000000000000000000080
:100080000000000000000000000000000000000070
:100090000000000000000000000000000000000060
:1000A0000000000000000000000000000000000050
:1000B0000000000000000000000000000000000040
:1000C0000000000000000000000000000000000030
:1000D0000000000000000000000000000000000020
:1000E0000000000000000000000000000000000010
:1000F0000000000000000000000000000000000000
:1001000000000000000000000000000000000000EF
:1001100000000000000000000000000000000000DF
:1001200000000000000000000000000000000000CF
:1001300000000000000000000000000000000000BF
:1001400000000000000000000000000000000000AF
:10015000000000000000000000000000000000009F
:10016000000000000000000000000000000000008F
:10017000000000000000000000000000000000007F
:10018000000000000000000000000000000000006F
:10019000000000000000000000000000000000005F
:1001A000000000000000000000000000000000004F
:1001B000000000000000000000000000000000003F
:1001C00010B5054C237833B9044B13B1044800E053
:1001D00000BF0123237010BDD808002000000000DC
:1001E00098EF010008B5034B1BB10349034800E039
:1001F00000BF08BD00000000DC08002098EF0100EF
:1002000001222D4BF0B51E782C4C2D4BFBB05A74AF
:1002100022682C4B96421D782B4F02D13B68AB4293
:100220000BD086F00101652002F0A0FC85F00101F1
:100230006420266002F09AFC3D600024204D284690
:1002400002F0A2FD48B1B4F5F47F07D0284602F0D1
:10025000FDFD0DF804000134F1E724B122466946A2
:100260001A4802F085F90024184D284602F0F7FAE2
:1002700040B1B4F5F47F17D122466946104802F028
:1002800001FE01E0002CF7D1114B124C1B682268D3
:100290009A4207D00D48236002F09FF821680B486E
:1002A00002F072F87BB0F0BD284602F0F1F80DF8CC
:1002B00004000134D9E700BFE11B00200800002042
:1002C000C81B0020E01B002004000020BC140020FC
:1002D000DC1B00200000002010B51A4C1A482168D1
:1002E00002F041FD2168194802F04EF8164802F06C
:1002F00023FE0028FAD00121642002F01FFC012116
:10030000652002F01BFC0121642002F02FFC642018
:1003100002F0E2FC0121652002F028FC00216520AA
:1003200002F024FC0121652002F020FC084B1A7821
:10033000084B1A600122044B5A74074B1A78074B7A
:100340001A6010BD00000020C81B0020BC14002053
:10035000E11B002008000020E01B0020040000201A
:1003600008B502F0A5FC002008BDFFFF08B51A493A
:100370004FF4C06002F0A0FC03200023174A9178DC
:10038000137060F3020191705178137101F0F8015C
:1003900063F3061151701249537193710B700B7214
:1003A000C1E90533CB604FF6037301200B82DF23D5
:1003B000D07048600B48CA618B7400F001FA50B9E4
:1003C000084800F00DF930B9064800F067F910B997
:1003D0000222054BDA7008BD00000101300900203F
:1003E000F408002014090020200B002008B5FFF7B6
:1003F000BDFFBDE808400021232002F09FBBFFFFA6
:100400000123C8B283404AB91A040B0A5B0103F105
:10041000804303F5002300209A6070479AB2F4E706
:1004200038B50488002C4CD00021436840F20245C6
:10043000043303EBC40040F2034C40F2044E0C467C
:100440000FE062452FD153F8042C02F0B852B2F1FC
:10045000807F14BF41F0020144F00204083383425C
:1004600010D01A88AA42ECD153F8042C083302F0B9
:10047000B852B2F1807F14BF41F0010144F0010491
:100480008342EED1C943CDB2012000F051FC0E4BA6
:10049000012093F8BB2414432C4083F8BB44BDE8EF
:1004A000384000F015BC7245D8D153F8042C02F046
:1004B000B852B2F1807F0CBF44F0040441F0040153
:1004C000CCE7FF25E0E700BF00E0014070B5012662
:1004D00084B002AB68460C4615460193ADF8006047
:1004E000ADF80C100292FFF79BFFEFF3108286F33A
:1004F00010881D490B681BB940261C48C370C67084
:100500000B6801330B6082F31088EA034FEA14236F
:10051000E4B219D41B01164A234442F82350EFF3E6
:100520001082012383F310880B6813B10B68013B21
:100530000B600B681BB980200C49CB70C87082F32C
:100540001088002004B070BD094A04EB031052F873
:1005500020601B016FF3104642F8206025F48036BE
:1005600042F82060D7E700BF90090020000D084046
:100570000008084010B582B0EFF30384164B103C1E
:1005800064B253F82420154950790B5C03F003033F
:10059000032B0FD0C03451F824306FF3104341F8CF
:1005A0002430936823B1D268CDE90020684698478B
:1005B00002B010BD936823B1D268CDE9002068462F
:1005C0009847064BC03453F824206FF3104243F889
:1005D000242002B010BD00BF94090020006000403C
:1005E0000246F121D2E90223013B9BB21380002095
:1005F000117270478268107A00F00100137AC3F319
:1006000040039842FAD1137A0020C3F340030B71E0
:1006100013889BB20B6070478268117A01F0010168
:10062000137AC3F340039942FAD14FF0F40C00213E
:10063000436882F808C0117393F9123013F1210F47
:1006400003D100230360184670478B421ADB012157
:1006500010B45A090F4C03F01F03203201FA03F3C0
:1006600044F82230BFF34F8FBFF36F8F43680A4ABD
:1006700093F912305DF8044B42F823000023036025
:1006800018467047044A42F82300002303601846C6
:10069000704700BF00E100E0940900208268117AF1
:1006A00001F00101137AC3F340039942FAD1436880
:1006B0001978012903D0F1230020137270474FF0FD
:1006C000F10CC168187C094B43F820104B1E9BB2FB
:1006D00053809380138082F808C0137A9B07FCD55F
:1006E0004FF6FF7300205380938070473809002035
:1006F00010B4826892F808C00CF0010C137AC3F3AE
:1007000040039C45FAD14368C468D8698C6000787E
:1007100050280BD11B7C2748013B50F823300BBBE2
:1007200000205DF8044B4B6008707047537AC3F3A8
:1007300002105B060FD4204A204B126A1B68C2F3DA
:100740000264A340C2F30222D3400028E8D080F024
:100750000200C340E4E74FF40043927A02F007023C
:10076000D340DDE712F8F70CA2F58072C0F3021453
:10077000400616D41048114A006A1268C0F3026C91
:1007800002FA0CF2C0F30220C24014B184F0020459
:10079000E2400020B2FBF3F35DF8044B4B600870BD
:1007A00070474FF40040927A02F0070220FA02F2FA
:1007B000EFE700BF3809002000E001401C0B0020DB
:1007C0002DE9F04F0B7C83B003F5800303F56863DC
:1007D0001B0241608360EFF31085012383F31088CF
:1007E0000A7C032A00F2A880C2F103029340DB4393
:1007F0005A4C5B4AE46823401360136885F3108801
:10080000002283681A721A7AC2F340049207FAD45B
:10081000CA699C720F7A92F803C01678456892F8FC
:1008200004E001970CF0070C002E7DD1002F40F062
:100830008B802C785678022C06F0770919D16F68D6
:10084000D5F80C8007F1FF3AAAEB080A06F0070773
:1008500006F07006072F14BFC346D346702E08BF9C
:10086000D0461FFA8BFB1FFA88F8A3F802B0A3F852
:100870000480927812F0070205D04EF0040E032A8D
:1008800008BF4EF0010E019A83F80CE083F80E9039
:1008900083F809C09A724A68C2602E7C314D45F8CF
:1008A0002620551EADB2002C37D1C2F34F025A801C
:1008B0009A801D8091F91230002B22DB4A7C03F1D3
:1008C00060441201D2B204F5614484F8002301248B
:1008D000254A264D42F8230003F1C0065A0955F86F
:1008E0002670920003F01F0302F1604202F561429C
:1008F00004FA03F36FF3104745F82670C2F880310D
:1009000013600023D1E90541194A04618161026045
:100910004361184603B0BDE8F08F012C1CD0022CB7
:1009200018BF0022C5D0C2E7502E06BF01944CF07C
:10093000500C46EA0C0C7CE7C2F11302074C9340C2
:10094000DB430C4A246956E787F002074CEA071C90
:1009500001965FFA8CFC6CE72A46A8E70040084045
:100960000C40084038090020940900200060004035
:100970005447410010400840F0B585B0EFF30383C1
:10098000103B1E4A5BB203F1C00152F821001C4C1F
:100990006FF3104042F8210054F82340D4E90112CB
:1009A0000978137A0129DBB207D1F420917B03F097
:1009B000F003C9B21072137291732769B7B16569F8
:1009C00001AECDB195E8070086E807009B0644BF5D
:1009D00000232B71A36928462B60B84763691BB1BC
:1009E00096E8070083E80700A268137ADBB203F0F9
:1009F0000F03137205B0F0BD3546E7E70060004015
:100A000094090020064B074993F826001A6A51F80A
:100A10002030C2F302620449D3400B60704700BF2C
:100A200000E00140BC0800201C0B0020F8B54AF291
:100A3000035001234849494AA1F8FE03A2F80431B2
:100A4000B2F804319BB2002BFAD101214FF40045DA
:100A50004FF0090C424CDFF824E1424EC4F804E0A8
:100A6000DFF81CE13C48C4F80CE0A2F80011B160CA
:100A70003D4A3160A56025613C4D3D4FC4E90552BA
:100A8000276090F82620056A54F82220C5F30265F5
:100A9000EA40384D2A6080F8133480F8A2C090F8FC
:100AA0008034002B50D000232B4981F8813481F809
:100AB000803481F8323091F83C301A07FBD500239E
:100AC00042F2017643F20210234AA1F8486081F80D
:100AD0004A30088581F82A3092F83C309B06FBD5D5
:100AE000032005211D4B83F81C010120224B82F8B5
:100AF0002610136292F82630116A54F82330C1F39D
:100B00000261CB402B6082F8300082F8520092F8EC
:100B10007430114943F0400382F8743091F8743016
:100B2000DB09FBD0062346200B4A81F86C3081F8A4
:100B3000740081F8743092F87430DB09FBD14FF403
:100B40002543A2F8FE33F8BD80F8801440F2C4407B
:100B500000F01EF8A7E700BF00E0014000C0014020
:100B6000BC08002000700040001C4E0E00C2EB0BC1
:100B7000002D31011C0B00202112012000127A00EF
:100B800000366E01A0F101000028FBD1704700BFC4
:100B900010B54FF47A72164C164B24684FF0000EC5
:100BA000B3FBF4FC4FF0FF3300FB01F1A1FB0204A7
:100BB00083427EEB040407D3B0FBFCF0800880B1D5
:100BC000BDE81040FFF7DEBF4FEA8C0CB1FBFCF133
:100BD000A1FB02128B427EEB020203D308460028DF
:100BE000EED110BD1846BDE81040FFF7CBBF00BFE7
:100BF0001C0B002000CA9A3B70B500240A4B0B4E18
:100C0000B3F84051ADB225FA04F3DB07E0B203D5E7
:100C100056F8243003B198470134102CF3D1024B1D
:100C2000A3F8305170BD00BF0060004050090020A3
:100C300030B56FF0FF0585B0032000F079F84FF074
:100C4000FF311F4C1F482246856400230125CDE952
:100C50000111039104F1C00E32F8020F590960B17D
:100C600004A800EB810151F80C0C03F01F0C05FAED
:100C70000CFC20EA0C0041F80C0C724503F1010356
:100C8000EAD10199104B0F4A03201167C3F8801273
:100C900002995167C3F8841203999167C3F88812C7
:100CA00000F016F80023094803F1C00234F8021FCF
:100CB0000133602B40F82210F6D105B030BD00BFE3
:100CC000E8EB01000080004000E100E0006000402F
:100CD000EFF31081012383F31088124B33F81020B7
:100CE00092B22AB133F81020013A92B223F81020C0
:100CF00033F810309BB293B90B4A10B4B2F8FE33FC
:100D00000A4C9BB234F8100043F4254323EA000355
:100D1000A2F8FE3381F310885DF8044B704781F32D
:100D200010887047140B002000E0014068EA0100C1
:100D300030B4EFF31081012383F310880E4A32F8A8
:100D400010309BB26BB90D4C0D4DB4F8FE3335F835
:100D500010C09BB243EA0C0343F425439BB2A4F8B2
:100D6000FE3332F8103001339BB222F8103081F399
:100D7000108830BC704700BF140B002000E0014019
:100D800068EA010000BE704708B500F005F8FFF7FB
:100D9000E7FAFEE7704700BF4FF47001234B244A87
:100DA00070B50020C3F888109A60FFF7F3FFFFF7D3
:100DB0003DFE0120FFF7EEFF1E4B83F30A881E481D
:100DC0001E4A0021121A0CF0FBFF1D481D4A1E4945
:100DD000121A0CF01DFF1D4D1D4B5B1B002B07DD78
:100DE00000249E1055F8043B01349847A642F9DCD4
:100DF000FFF708FE0320FFF79BFF00234FF6FF706D
:100E0000144903F108020133092B21F81200F8D12B
:100E10000320FFF75DFF0220FFF7BCFFFFF708FF8D
:100E2000BDE87040002000F017B800BF00ED00E002
:100E30000000010000EE0720D8080020E44900204F
:100E400000000020BC080020F0F101009008002004
:100E5000B0080020000D0840704700BF064B074A4D
:100E60001B6A1268C3F3026123FA00F08A4000F0A3
:100E7000070022FA00F0704700E001401C0B002040
:100E800000220270C0E9012280F83520DF2282773B
:100E90007047FFFF2DE9F047002604461F469DF8E6
:100EA0002830067021730375089B89460361099BEE
:100EB000154683610B9BDFF82C8103620C9BC0E914
:100EC0000936FF234377002A3ED184F8352050208D
:100ED00007F02CF84FF6FF73A0F84230DF230646E8
:100EE00000F1200A80F8205080F8215080F822502C
:100EF00080F82350C0E90955C562C0E90E55C0E924
:100F00000C5580F8443080F8453080F8405080F827
:100F10004150C0E91255C4F828A0202229460CF0FF
:100F20004FFF092FA66050D82C4AB9F1020FD35DAC
:100F3000114638D098F8000000284CD1002B44D13D
:100F400002232777D3553EE0012A3ED184F835208D
:100F5000242006F0EBFF8378052F66F302038370ED
:100F60004378067003F0F80366F306134370C57008
:100F7000067146718671A062606026D8184BB9F17F
:100F8000020FDA5D194602D098F8000028B1012A54
:100F90001BD802232777CB5515E0B2B90222277759
:100FA000DA55257011E0012BF3D92777384601F087
:100FB0001FFD3022816A50460CF02AFE384601F0AF
:100FC00017FD036BA361012323700023207888F8A9
:100FD0000030BDE8F087012BDAE700BF260B0020C8
:100FE000200B0020300B00202DE9F84F2DED028B57
:100FF00090F8355004468A46002D40F098802846E7
:10100000FFF72CFF07EE900AB8EE678A28EE008AF9
:1010100018EE100A08F040F980465046894608F05C
:1010200019F906460F4602460B464046494608F067
:10103000FDFB30B1BCEEC88A84ED0B8A84F83450D5
:1010400071E00022624B4046494608F07DF9824635
:101050008B4602460B463046394608F005FC40B147
:101060005046594608F00AFC0223E06284F8343006
:1010700059E00022574B4046494608F065F9824640
:101080008B4602460B463046394608F0EDFB30B140
:101090005046594608F0F2FB0423E062E6E70022DE
:1010A0004D4B4046494608F04FF982468B46024672
:1010B0000B463046394608F0D7FB30B1504659460A
:1010C00008F0DCFB0623E062D0E70022434B4046F9
:1010D000494608F039F982468B4602460B463046AF
:1010E000394608F0C1FB30B15046594608F0C6FBFE
:1010F0000823E062BAE70022394B4046494608F02F
:1011000023F98046894602460B463046394608F0A8
:10111000ABFB30B14046494608F0B0FB0A23E06221
:10112000A4E700232370BDEC028BBDE8F88F012DEE
:10113000F9D10820FFF792FE07EE900AB8EE678A11
:1011400028EE008A18EE100A08F0A6F80646504667
:101150000F4608F07FF88046894602460B46304627
:10116000394608F063FB28B1BCEEC88A002384ED41
:101170000B8A7BE700221B4B3046394608F0E4F827
:1011800082468B4602460B464046494608F06CFBB9
:1011900028B15046594608F071FBE0624EE7002244
:1011A0004FF07F533046394608F0CEF806460F46DA
:1011B00002460B464046494608F056FB0028B0D090
:1011C0003046394608F05AFB0323E0624EE700BF81
:1011D0000000D03F0000B03F0000903F0000703F93
:1011E0000000503F0000E03FF0B51D462DED028BA2
:1011F0000123F7EE007A032D87B004460E4617460A
:10120000B0EE608A037087EE800A3DD890F83530E2
:10121000002B39D14FF0FF31FFF7E6FEB5EEC08A63
:10122000F1EE10FA34DBDFED1C7AB4EEE78AF1EE72
:1012300010FA2DD8D4ED0B7AF8EE677A67EE887A3B
:1012400017EE900A08F028F80022144B08F0A6F9CF
:1012500008F014FB206323788BB10F9B3A4604936C
:101260000E9B3146039394F8343020460293236B4F
:101270000193E36A00932B46FFF70CFE2070207861
:1012800007B0BDEC028BF0BD4FF6FF712046C3E7FF
:1012900000232370DFE700BF0000C8420000594070
:1012A00007B590F835303BB9694680680BF088FC8B
:1012B000009803B05DF804FB012B05D14068694636
:1012C0000830FFF797F9F3E70020F2E71FB590F831
:1012D00035303BB901A980680BF0AAFC029805B033
:1012E0005DF804FB012B05D1406801A90830FFF728
:1012F000FFF9F3E70020F2E738B590F835300446FF
:101300008BB9806808B9002038BD04F10C010BF0DE
:10131000EFFC0546A0680BF03BFC0E2D01D0002D24
:10132000F1D10120F0E7012BEDD140680028EAD08F
:1013300004F10C010830FFF743FA054660680830F5
:10134000FFF74EF9E9E708B590F835303BB980680A
:1013500020B10BF017FCB0FA80F0400908BD012B5A
:1013600006D140680028F9D00830FFF797F9F2E776
:101370000020F3E708B590F835303BB9806820B11C
:101380000BF0EAFDB0FA80F0400908BD012B06D150
:1013900040680028F9D00830FFF73EF9F2E7002056
:1013A000F3E7FFFF38B50446FFF7E4FF606838B1A4
:1013B0000025237F0B4A2421D55406F0C3FF656026
:1013C000A56875B10021237F074AA86CD15410B1DC
:1013D000202106F0B7FF5021284606F0B3FF002376
:1013E000A36038BD200B0020260B002010B504465A
:1013F000FFF7D8FF204610BD0B4B00F1C00253F899
:1014000022106FF3104143F82210012300F01F0255
:101410004009800000F16040934000F56140C0F851
:1014200080310360704700BF006000400122430923
:1014300000F01F0002FA00F0044A203342F82300B3
:10144000BFF34F8FBFF36F8F704700BF00E100E025
:101450007047FFFF0028ABBFC023C02200F16040EF
:10146000044BABBF00F5614000F00F0080F8003383
:101470001A54704714ED00E038B50A4DD5E88F3F97
:1014800013F001040BD1284606F06EFD38B1064B6F
:1014900028461C6006F084FD044801F0C5FB0248A4
:1014A00038BD00BF340B0020380B00205114010060
:1014B0002AB901222F4BC03143F821207047012A5D
:1014C00003D1C0312B4B0222F6E7022A03D1C031EF
:1014D000284B0322F0E7032A03D1C031254B042215
:1014E000EAE7042A03D1C031224B0522E4E7052AAA
:1014F00003D1C0311F4B0622DEE7062A03D1C031DB
:101500001C4B0722D8E7072A03D1C031194B082208
:10151000D2E7082A03D1C031164B0922CCE7092AA9
:1015200003D1C031134B0A22C6E70A2A03D1C031C6
:10153000104B0B22C0E70B2A03D1C0310D4B0C22FC
:10154000BAE70C2A03D1C0310A4B0D22B4E70D2AA9
:1015500003D1C031074B0E22AEE70E2A03D1C031B2
:10156000044B0F22A8E70F2AA8D1C031014B10224B
:10157000A2E700BF0060004032B94022134BC031E7
:1015800043F8212001207047012A05D143200F4B49
:10159000C03143F82100F5E7022A03D1C0310B4BDB
:1015A0004622EDE7032A03D1C031084B4922E7E781
:1015B000042A03D1C031054B4C22E1E7052A03D1AF
:1015C000C031024B4F22DBE7002070470060004033
:1015D0002AB97422084BC03143F821207047012AF0
:1015E00003D1C031044B7922F6E7022AF6D1C0318B
:1015F000014B7E22F0E700BF006000402AB9732251
:10160000084BC03143F821207047012A03D1C03173
:10161000044B7822F6E7022AF6D1C031014B7D2235
:10162000F0E700BF006000402AB97522084BC031C6
:1016300043F821207047012A03D1C031044B7A229C
:10164000F6E7022AF6D1C031014B7F22F0E700BF56
:10165000006000402AB97622084BC03143F82120AF
:101660007047012A03D1C031044B7B22F6E7022ADE
:10167000F6D1C031014B8022F0E700BF006000408E
:1016800032B940F28112224BC03143F82120704719
:10169000012A04D1C0311E4B40F28712F5E7022A1D
:1016A00004D1C0311A4B40F28D12EEE7032A04D167
:1016B000C031174B40F29312E7E7042A04D1C0313E
:1016C000134B40F29912E0E7052A04D1C031104BC8
:1016D00040F29F12D9E7062A04D1C0310C4B40F2E8
:1016E000A512D2E7072A04D1C031094B40F2AB1250
:1016F000CBE7082A04D1C031054B40F2B112C4E750
:10170000092AC4D1C031024B40F2B712BDE700BF75
:101710000060004032B94FF4C072224BC03143F830
:1017200021207047012A04D1C0311E4B4FF4C372EF
:10173000F5E7022A04D1C0311A4B4FF4C672EEE726
:10174000032A04D1C031174B4FF4C972E7E7042ACA
:1017500004D1C031134B4FF4CC72E0E7052A04D119
:10176000C031104B4FF4CF72D9E7062A04D1C031F3
:101770000C4B4FF4D272D2E7072A04D1C031094B87
:101780004FF4D572CBE7082A04D1C031054B4FF492
:10179000D872C4E7092AC4D1C031024B4FF4DB72BE
:1017A000BDE700BF0060004032B94FF4C172224B68
:1017B000C03143F821207047012A04D1C0311E4BAB
:1017C0004FF4C472F5E7022A04D1C0311A4B4FF42A
:1017D000C772EEE7032A04D1C031174B4FF4CA7227
:1017E000E7E7042A04D1C031134B4FF4CD72E0E790
:1017F000052A04D1C031104B4FF4D072D9E7062A24
:1018000004D1C0310C4B4FF4D372D2E7072A04D174
:10181000C031094B4FF4D672CBE7082A04D1C0314E
:10182000054B4FF4D972C4E7092AC4D1C031024B29
:101830004FF4DC72BDE700BF0060004032B940F2F7
:101840008312224BC03143F821207047012A04D172
:10185000C0311E4B40F28912F5E7022A04D1C03193
:101860001A4B40F28F12EEE7032A04D1C031174B16
:1018700040F29512E7E7042A04D1C031134B40F23D
:101880009B12E0E7052A04D1C031104B40F2A112AF
:10189000D9E7062A04D1C0310C4B40F2A712D2E797
:1018A000072A04D1C031094B40F2AD12CBE7082A18
:1018B00004D1C031054B40F2B312C4E7092AC4D1A8
:1018C000C031024B40F2B912BDE700BF00600040DA
:1018D00032B940F2C512064BC03143F8212070479F
:1018E000012AFCD1C031024B4FF4E572F5E700BF8D
:1018F0000060004032B94FF4E272064BC03143F849
:1019000021207047012AFCD1C031024B40F2C9129C
:10191000F5E700BF0060004032B94FF4E472064BB7
:10192000C03143F821207047012AFCD1C031024B5D
:1019300040F2CD12F5E700BF0060004032B940F23E
:10194000C712064BC03143F821207047012AFCD151
:10195000C031024B4FF4E672F5E700BF0060004073
:101960002AB96422054BC03143F821207047012A6F
:10197000FCD1C031014B6822F6E700BF0060004097
:101980002AB96522054BC03143F821207047012A4E
:10199000FCD1C031014B6922F6E700BF0060004076
:1019A0002AB96322054BC03143F821207047012A30
:1019B000FCD1C031014B6722F6E700BF0060004058
:1019C0002DE9F84FC64B04469E681546403672B660
:1019D000012940F08F801AB19368213304D001258A
:1019E00062B62846BDE8F88F036812681A445F2A79
:1019F00000F2A0846A68DFF8EC8246F823206D22AA
:101A0000C03348F8232090F90000FFF70FFD94F948
:101A10000030C03358F823206FF3104248F82320D9
:101A200094F90000FFF716FD94F90000FFF7E4FCBD
:101A3000236869685A1CAB60226046F822106E2247
:101A4000C13348F8232094F90000FFF7EFFC94F924
:101A50000030C03358F823206FF3104248F8232099
:101A600094F90000FFF7F6FC94F90000FFF7C4FCBE
:101A7000236869685A1C226046F822106B22C13321
:101A800048F8232094F90000FFF7D0FC94F90030C7
:101A9000C03358F823206FF3104248F8232094F9FC
:101AA0000000FFF7D7FC94F90000FFF7A5FC2368BE
:101AB00069685A1C226046F822106C22C13348F82B
:101AC000232094F90000FFF7B1FC94F90030C033F3
:101AD00058F823206FF3104248F8232094F90000AF
:101AE000FFF7B8FC94F90000FFF786FC2368013388
:101AF000236074E7022964D1002A3FF471AF936830
:101B000021337FF46CAF036812681A445F2A00F235
:101B100011846A68734F46F8232040F27F12C03365
:101B200047F8232090F90000FFF780FC94F900307B
:101B3000C03357F823206FF3104247F8232094F95D
:101B40000000FFF787FC94F90000FFF755FC2368BD
:101B500069685A1CAB60226046F8221040F27D1280
:101B6000C13347F8232094F90000FFF75FFC94F994
:101B70000030C03357F823206FF3104247F823207A
:101B800094F90000FFF766FC94F90000FFF734FCBD
:101B9000236869685A1C226046F822104FF4BF720D
:101BA000C13347F8232094F90000FFF73FFC94F974
:101BB0000030C03357F823206FF3104247F823203A
:101BC0008CE7032912D1002A3FF40AAF92F91230B0
:101BD00021337FF404AF0E2353740168424B917498
:101BE00046F82130127CFFF7C7FC7FE7042945D176
:101BF000002A3FF4F5AE92F9073021332DD10C279E
:101C000097710168394BD17146F821301278FFF78E
:101C100037FD0168364B0131016069722F7246F859
:101C200021302A78FFF7C0FD0168324B0131016095
:101C300069712F7146F821302A78FFF76BFD016832
:101C40002D4B01310160AF72E97246F821302A78DC
:101C5000FFF7F4FD03680133036095F90700FFF710
:101C6000CBFB95F90900FFF7C7FB95F90500FFF7D6
:101C7000C3FB95F90B00FFF7BFFBB0E6002940F06E
:101C80009680002A3FF4ACAE137A002B3AD112684A
:101C900092F90D3021331ED10C23542113730368A4
:101CA0005373164A46F823200E4AC03342F82310D5
:101CB0002B68686893F90D101B7B01F160421B01D2
:101CC000DBB202F5614282F800330D4B43F821008C
:101CD0002368013323602B6893F90D00CBE700BF25
:101CE00000ED00E0006000407909010069B80100E2
:101CF00051BA0100F5B8010091BA0100E9BF010035
:101D000094090020012B27D1126892F90F3021335A
:101D10001ED10C23552193730368D373AD4A46F843
:101D20002320AD4AC03342F823102B68686893F92A
:101D30000F109B7B01F160421B01DBB202F5614297
:101D400082F80033A54B43F8210023680133236058
:101D50002B6893F90F008EE7022B40F0EB8212689C
:101D600092F9113021331ED10C23562113740368CC
:101D700053749B4A46F82320974AC03342F82310F5
:101D80002B68686893F911101B7C01F160421B01FC
:101D9000DBB202F5614282F80033904B43F8210038
:101DA0002368013323602B6893F9110063E7052949
:101DB00064D1002A3FF414AE0C23576892F808A0AF
:101DC0007B7397F90F30213349D10168854BF97343
:101DD000524646F82130FFF7FBFB4FF0C00990F95F
:101DE0000030814DDFF8F481EA1882F80093016831
:101DF00048F823707D4B013101605246B97346F8B3
:101E00002130FFF7FBFB90F90030EA1882F80093CD
:101E1000016848F82370764B0131016052463974ED
:101E200046F82130FFF700FC90F90030EA1882F8FC
:101E30000093016848F823706E4B013101605246EF
:101E4000797446F82130FFF705FC90F900301D4405
:101E500085F8009348F8237003680133036097F90D
:101E60000F00FFF7C9FA97F90E00FFF7C5FA97F9C7
:101E70001000FFF7C1FA97F91100FCE606294FD1CF
:101E8000002A3FF4ADAD0C23576892F808A07B738D
:101E900097F90F30213338D10168574BF973524607
:101EA00046F82130FFF7ECFB4FF0C00990F9003005
:101EB0004D4DDFF82881EA1882F80093016848F850
:101EC00023704E4B013101605246B97346F8213000
:101ED000FFF720FC90F90030EA1882F800930168BF
:101EE00048F82370464B013101605246397446F878
:101EF0002130FFF759FC90F900301D4485F800931C
:101F000048F8237003680133036097F90F00FFF767
:101F100073FA97F90E00FFF76FFA97F91000AAE627
:101F2000072941D1002A3FF45BAD40F60C431382F0
:101F300092F90D30213328D10168324B517346F8A4
:101F400021301278FFF744FB01682F4B013101600B
:101F5000297346F821302A78FFF750FB01682B4B94
:101F600001310160A97346F821302A78FFF75CFB44
:101F70000168274B01310160E97346F821302A7866
:101F8000FFF768FB03680133036095F90D00FFF765
:101F900033FA95F90C00FFF72FFA95F90E00FFF7C9
:101FA0002BFA95F90F0066E6082935D1002A00F0D2
:101FB000C18192F9023021337FF411AD0C235370AB
:101FC0000168144B917046F821301278FFF770FACF
:101FD0008CE500BFE9BF01000060004094090020CB
:101FE00051C0010041C8010000E100E0BDC6010090
:101FF0007DC9010041CA010059BD010039BD010080
:10200000F9BE010051C201002DC10100F9C2010059
:102010008DC3010075050100092974D1002A3FF420
:10202000DFAC576897F90230213361D14FF0060BCE
:1020300092F808A00168C14BD2F80090B97087F8F7
:1020400006B0524646F82130FFF742FCBB7997F9BB
:102050000220BB4D1B01A918DBB281F800330168D7
:10206000DFF81883B74B013148F8229001605246DF
:10207000797087F805B046F82130FFF73BFC7B7993
:1020800097F901201B01A918DBB281F80033016820
:10209000AD4B013148F8229001605246397187F802
:1020A00008B046F82130FFF749FC3B7A97F9042045
:1020B0001B01A918DBB281F800330168A34B013181
:1020C00048F8229001605246F97087F807B046F848
:1020D0002130FFF721FCFB7997F903201B01DBB2CC
:1020E000154485F80033036848F8229001330360F3
:1020F00097F90200FFF780F997F90100FFF77CF9E3
:1021000097F90400B7E50A2978D1002A3FF468ACB2
:10211000576897F90230213361D14FF0060B92F8DE
:1021200008A001688A4BD2F80090B97087F806B011
:10213000524646F82130FFF7A3FABB7997F90220FF
:102140007F4D1B01A918DBB281F800330168DFF86D
:102150002C82804B013148F8229001605246797000
:1021600087F805B046F82130FFF7D4FA7B7997F964
:1021700001201B01A918DBB281F800330168764BFE
:10218000013148F8229001605246397187F808B051
:1021900046F82130FFF752FB3B7A97F904201B01E8
:1021A000A918DBB281F8003301686C4B013148F8A3
:1021B000229001605246F97087F807B046F8213046
:1021C000FFF7F2FAFB7997F903201B01DBB2154404
:1021D00085F80033036848F822900133036097F9CB
:1021E0000200FFF709F997F90100FFF705F997F9E0
:1021F0000400FFF701F997F903003CE50C2915D11C
:10220000002A3FF4EDAB92F9203021337FF4E7ABA5
:10221000036882F82030696240F26F11504A46F834
:102220002320504AC03342F823105FE40D2958D1CF
:10223000002A3FF4D5ABD2E900750C232B7595F934
:102240001530213342D10168474B697546F821307A
:102250002A68FFF785FB2B7D95F91520DFF8E080D4
:102260001B0108EB0201DBB281F800330168DFF8E3
:102270000C913E4B013149F822700160A97546F876
:1022800021302A68FFF77CFB2B7D95F916201B0176
:1022900008EB0201DBB281F800330168344B0131F5
:1022A00049F822700160E97546F821302A68FFF785
:1022B00077FB2B7D95F917201B01DBB2904488F842
:1022C0000033036849F822700133036095F9150063
:1022D000FFF792F895F91600FFF78EF895F91700B9
:1022E000C9E40E2926D1002A3FF47AAB92F91A30BC
:1022F00021330ED10368822193760A22AA771D4AE0
:1023000046F82320174AC03342F8231003680133EC
:10231000036095F91C3021337FF461AB0C222368F4
:1023200085F82020144A2B77842146F82320C033D7
:102330000C4A78E70025FFF753BB00BF75AC0100DE
:1023400000E100E0D9AB01002DAE01004DAD010070
:1023500045BB0100ADBB01005DBC010021BC01001B
:1023600025D001000060004065D3010039D4010090
:1023700001D5010055AF010081B001009409002092
:102380000020704701207047036840F213421B6A27
:102390001847D0F82C322BB1D0F82832184490F8D6
:1023A000240070474FF0FF30704713B5044690F893
:1023B000A8048DF8071070B10023012284F83C3482
:1023C0000DF1070104F5886008F092FE94F83C34A2
:1023D000002BFBD0012002B010BD0023C0F8243236
:1023E000C0F82832C0F82C32C0F83034C0F8343489
:1023F000C0F8383400F5886008F0D6BE036813B919
:1024000062B6BFF36F8F70470268204B13B553F865
:1024100022304BB10279042A08D0802A01D0022A46
:1024200002D1012283F83C2402B010BDD3F82C2243
:10243000B2F5007FF8D0007AEFF31082009201220B
:10244000019272B6019A013A511C19D0D3F82C129C
:10245000541EB1F5007F11D0D3F82412194481F82D
:102460002400D3F824120131C1F30801C3F8241267
:10247000D3F82C120131C3F82C12E4E72246E3E72B
:1024800068460192FFF7BAFFCEE700BF3C0B002081
:1024900013B5EFF3108300930123019372B6019BF0
:1024A0005A1E0192E3B1D0F82C32B3B1D0F82832E1
:1024B000034493F82440D0F828320133C3F30803CF
:1024C000C0F82832D0F82C32013BC0F82C326846D4
:1024D000FFF794FF204602B010BD4FF0FF34F6E73F
:1024E0006846FFF78BFF4FF0FF34F3E738B504463B
:1024F00000254FF47A70A361C4E90150049B16488B
:10250000C4E90412E361206029464FF4007204F12B
:1025100024000BF055FCC4F824524FF40072C4F8A8
:1025200028522946C4F82C5204F50C700BF048FCD4
:10253000DF23C4F8305484F8A854C4F8345484F821
:102540007734C4F8385484F8793484F8753484F8CE
:102550007B34204638BD00BF78EA010010B50C4638
:10256000FEF78AFF2246BDE810400421FFF728BA93
:1025700038B590F8A8340446154663B1002300F539
:10258000886000F8043C08F0B3FD94F83C34002B5C
:10259000FBD0284638BD1D46FBE7FFFFF0B50369B9
:1025A00085B0002B044602DA002005B0F0BD426978
:1025B000002AF9DB8B42F7DA8A42F5DAD9B2002237
:1025C000684602AE00F028FF0122217D304600F06F
:1025D00023FF002200213DF81250AB11002D45D001
:1025E00036F81200002841D036F8110083EA90171F
:1025F000FF063BD103F01F0323620028D4D0092B30
:10260000D2DC15F4F04F0CBF4FF080624FF0A062A7
:1026100010F4F04F0CBF4FF080654FF0A0652369B8
:10262000164E42F4803236F833101548FDF74EFF4F
:10263000636945F480352A4636F833101048FDF7B3
:1026400045FFA3695A1C0FD0E26901320CD036F85D
:1026500033102A460A48FDF739FFE3692A4636F85F
:1026600033100748FDF732FF01209EE701310329AF
:10267000B4D10132032AADD196E700BF94E6010040
:10268000F0470020664B2DE9F0410E4619680446DC
:10269000C9081546FFF782FF84F8A804002800F057
:1026A000BD8094F891145F4B6FF3010184F891148D
:1026B0001921A4F89214012184F895140F21226A9B
:1026C00084F89C1443F8224094F890344FF6FF713C
:1026D00003F0E70343F040036FF3820384F8903480
:1026E0000023A4F89E14A16904F59267013184F8CF
:1026F000943484F89634C4F8987484F8A03405D0DF
:10270000E16901311CBF082184F8A01484F8702409
:1027100004F29442C4F88C2440F213424FF6FF7145
:10272000954284F8A23484F8A334A4F8A414C4F81D
:102730008834C4F88034C4F87C343ED02DD840F2BC
:102740001142954248D040F2124295424AD0364B4F
:1027500004F58E68C4F8843441462046FFF7FEFE37
:1027600094F8A8340121184084F8A8043B4640F6A8
:10277000B832304608F0B0FF94F8931429B93B46BC
:1027800040F6B832304608F0A7FF04F588654146A8
:10279000284608F095FD78B3FEE740F232429542B4
:1027A00025D040F2334295420FD040F231439D4252
:1027B000CDD1022384F871340AE0022284F8723405
:1027C00084F8712484F87334C1E7022284F87124F8
:1027D00084F872340123F5E7022284F8712484F826
:1027E0007224EFE7022284F871240322F7E7022320
:1027F00084F871340323EBE73946284608F0AEFC31
:1028000000B1FEE7C4F82402C4F82802C4F82C0280
:10281000C4F83004C4F83404C4F83804BDE8F081C6
:1028200064EA01003C0B00200924010013B5EFF31A
:10283000108300930123019372B6019B5A1E0192EB
:102840003BB1D0F808426846FFF7D8FD204602B0F9
:1028500010BD6846FFF7D2FD4FF0FF34F6E708B52C
:102860002430FFF7E3FF08BD10B500F50C742046D7
:10287000FFF7DCFF0028FAD110BDFFFF13B54FF0C2
:10288000FF3436222346009435210A48FFF72EFEF6
:10289000234600943A2239210748FFF727FE5F2399
:1028A0005D2200935C215E230448FFF71FFE02B007
:1028B00010BD00BF640B002010100020BC140020CD
:1028C000F8B5054600240126074FAA6C06FA04F362
:1028D000134205D007EB440261B228460AF07AFEA3
:1028E00001341D2CF1D1F8BD74190020837870B526
:1028F000044683B90E4D2A68AAB103883BB90D4836
:10290000FFF7DEFF2B682078BDE870401847012BE9
:10291000F8D10948F4E7012B05D00A2B04D1074B65
:102920001B68002BEFD170BD0B2BFCD1044BF7E7DC
:1029300068190020B01900200C1A00206C19002022
:1029400070190020F0B5012680F825600226C0E944
:102950000F2300F12403002540F60C4780F8266081
:102960004364DF264FF4C05380F8245080F827508A
:1029700080F8285080F8295080F82A6080F82B6071
:102980008785018680F8325080F8335080F83450C3
:1029900080F8355080F8366080F837600787C0E9E6
:1029A0001255C0E91455A0F85850A0F85A30F0BD9F
:1029B00010B50446406D10B1142105F0C3FC20464B
:1029C00010BDFFFF074B93F82830013BDBB21E2BF5
:1029D0009DBF054A02EB830393ED000A9FED030AB6
:1029E000704700BFB0190020A4EA01000000C07FBA
:1029F000002130B5084B53F8204B8C4207D053F8D8
:102A0000042F92F82450A84202D00131F5E70022A9
:102A100002F1080030BD00BF681A002038B500235D
:102A20000D4C194622460D4D0D48FFF78BFF002334
:102A300001210C48FFF786FF00242846214640F874
:102A4000044B20220BF0BCF98022214605F1240022
:102A50000BF0B6F938BD00BFED280100681A002060
:102A6000B01900200C1A002008B50448FFF7A0FF99
:102A7000BDE808400248FFF79BBF00BF0C1A0020CA
:102A8000B01900202DE9F04106460D460C4601EB39
:102A900002084445A4EB050707D0336814F8011B6E
:102AA0001B68304698470028F3D13846BDE8F081CE
:102AB00073B5002504460E4680F830500D22684656
:102AC00000F0AAFCBDF8003084F83860C3F384122B
:102AD000636303F4F043B3F5006F2574E574657424
:102AE000A574657522750CD004F11003A361064B23
:102AF000E361064B2362064B6362064BA362064BFF
:102B0000E362204602B070BD91D0010089D101007E
:102B100045D10100C9D1010055D1010010B5064CC5
:102B200015212046FFF7C4FF04F13C001421BDE845
:102B30001040FFF7BDBF00BF0C1B0020042911D8B7
:102B4000DFE801F0030C0A030E000022064B33F805
:102B500030100020FDF7BABC1022F7E70422F5E799
:102B60008422F3E7704700BF94E60100044B0A1C7F
:102B700018BF012233F830100020FDF741BC00BF20
:102B800094E60100EFF31080012383F31088064BD5
:102B9000196819B9054AD1704021D1701A680132FB
:102BA0001A6080F31088704790090020000D0840DB
:102BB0001FB50320FEF7BCF86FF0FF02164BFF2194
:102BC0009A6401A80C220BF0FBF8012400235A0997
:102BD00004A901EB820203F01F0104FA01F052F88C
:102BE0000C1C013321EA0001602B42F80C1CEED1D1
:102BF000019A0A4B0A491A600A4B0320C3F8802243
:102C0000029A0A60C3F88422039A4A60C3F88822B1
:102C1000FEF75EF804B010BD0080004070800040F8
:102C20007480004000E100E0002070477047FFFF23
:102C300010B5002484F30A88FFF7BAFF72B6164B6A
:102C4000164A17481A6023461958D1500433402BAE
:102C5000FAD10023134C02F140011859C850043333
:102C6000B3F5C07FF9D1104B9A60BFF34F8F62B6B6
:102C7000FFF788FFFDF7BAFBFFF7A4FE00F070FB3B
:102C80004FF4E131094800F06EF800F029F8FDF743
:102C900023FBFDF7B5FAFCE7841B002000FE0720AC
:102CA000000001004000010000ED00E0C81B002012
:102CB00008B5FFF7BDFFFFFF0A4601460148FDF7D3
:102CC00005BC00BFF0470020024A136801331360BF
:102CD000704700BFC41B00204FF47A71FDF758BF46
:102CE000002313B5114A124C01931946F6EE000A5F
:102CF0009FED100A009220460122FEF775FAFEF7BA
:102D0000BBFB04F10C020321FEF75AFE2046FEF73E
:102D1000F3FA2046FEF7C4FA2046FEF714FB2046DD
:102D2000FEF7D4FA044B186002B010BDC92C0100A4
:102D3000881B00200000FA44C01B0020014B1868CB
:102D4000704700BFC41B00200148FEF799B800BFC0
:102D5000881B00200148FEF749BB00BF881B0020EC
:102D60000368DB691847037C0BB9012303747047C0
:102D7000704713B5026802AB03F8011D5468194689
:102D80000122A04702B010BD007C10B1002000F06D
:102D9000EDBB7047007C10B1002000F071BC7047A3
:102DA000037C13B1002000F00BBC7047134B1B6871
:102DB000B3F5966F21D1124B1978F1B94AF202524C
:102DC000104B1148A3F8FE23104A10604FF425421F
:102DD000A3F8FE2303F5E4231A8861F304121A8092
:102DE000BFF34F8F0A490B4BCA6802F4E0621343EA
:102DF000CB60BFF34F8F00BFFDE77047DC1B0020A7
:102E0000E01B002000E001403581730700E5014030
:102E100000ED00E00400FA0507B5007C38B10DF1C3
:102E20000701002000F0C2FB20B19DF8070003B0AD
:102E30005DF804FB4FF0FF30F9E7704710B504462A
:102E4000002000F07DFB00B9607C10BD037C07B55D
:102E500013B94FF0FF3012E0FFF7F0FF0028F8D071
:102E6000002000F083FB0028F3D001220DF10701C0
:102E7000002000F087FB0028EBD09DF8070003B08E
:102E80005DF804FB2DE9F84F047C80468A469146A4
:102E9000002C45D0FFF7D2FF002844D0002634464E
:102EA000244FB1453CD9002000F0EAFBA9EB060510
:102EB0008542A8BF0546B5B12A460AEB06010020A7
:102EC00000F0C4FB002105464FF0FF3001F078FA16
:102ED000002000F075FBFFF731FF00232E442C4447
:102EE00038607B60DDE729464FF0FF3001F068FA7B
:102EF000284600F065FB4046FFF7A0FF80B900F0D0
:102F0000BFFB0028CDD1FFF719FFD7E9002300212F
:102F100012F57A7B43F1000C8C4508BF8345C0D283
:102F20002046BDE8F88F00240025024BC3E9004588
:102F30000446F5E7F01B002038B5037C04460BB9C6
:102F4000002038BD4FF0FF30002101F039FA204653
:102F5000FFF774FF0028F3D0054D2C78002CF0D03B
:102F60000A20FFF7B9FE002320462B70E9E700BFD7
:102F70000C0000204AF20252154B30B51549A3F857
:102F8000FE23154A8BB011604FF42542A3F8FE23AF
:102F900006238DF81430052301248DF81530032302
:102FA00005A901A88DF816308DF817308DF8184056
:102FB0008DF8194007F0B6FD054601A807F0E4FDBD
:102FC000064B0E2D1C7000D1FEE70BB030BD00BFCC
:102FD00000E001403581730700E50140F81B002047
:102FE000024B1970024B1A70FFF7E0BEE01B002085
:102FF000E11B00200A68064B1A604A79054B1A60EB
:103000000A79054B1A608A79044B1A60FFF7CEBE25
:10301000DC1B0020EC1B0020E81B0020E41B002030
:1030200000224FF47A71044BC3E9012103491A7459
:1030300019605A74704700BFC81B002028EB0100BC
:1030400010B501F1080400F00F02D3B2092ACCBF79
:103050003733303304F8013DA1424FEA1010F2D16A
:1030600010BDFFFF08B5EFF30383103B094A5BB2C5
:10307000C03352F8231001206FF3104142F823109F
:1030800002F0E0FDBDE8084000214FF0FF3001F004
:1030900097B900BF0060004008B5EFF30383103B11
:1030A000094A5BB2C03352F8231000206FF310417D
:1030B00042F8231003F006FCBDE8084000214FF061
:1030C000FF3002F03BB800BF006000400023024820
:1030D00003714371837170470D000020002307B511
:1030E0000448019310B101A800E000BF03B05DF8EF
:1030F00004FB00BF00000000014B1868704700BFD0
:10310000FC1B00202DE9F04F6A4EA9B03368002B5C
:1031100040F0CC80DFF8B481674DB8F1000F14BFE8
:103120004FF0030B4FF0000B4FF0010405B92C4694
:10313000624F5C44E4B24FF0010307B93B462344BD
:10314000DBB254225E4913A800930AF061FD00230C
:10315000029315B102A800E000BF172200210DF173
:1031600032000AF02DFE40F20132ADF83420212267
:103170008DF83A2011228DF83B2042F20122ADF861
:103180003E2040F20752ADF8422040F28332ADF8C3
:10319000442040228DF846200A2240F209434FF095
:1031A00009094FF0010A8DF84820029A00218DF894
:1031B0004020120A8DF841200DF11A001522ADF8B9
:1031C000303001938DF832B08DF839908DF83CA0F5
:1031D0000AF0F6FD019B3B4AADF818303A4BB8F1C6
:1031E000000F07934FF007038DF821304FF00503D0
:1031F0008DF822304FF004038DF823304FF0020396
:103200008DF824308DF826308DF82D3040F20923CA
:103210008DF81A404FF0000B14BF5D244C46002D72
:103220000A92ADF80C300CBF00221922C0235F4572
:1032300014448DF813300CBF5A461722FA23144455
:103240008DF814309DF8003020468DF812B08DF8BE
:1032500011A08DF80E408DF80FB08DF810300AF0E7
:1032600019FA306010B3224659460AF0A9FD3668B3
:103270004A4603A930460AF0CBFC06EB0904B8F134
:10328000000F06D02046542213A90AF0C1FC06F113
:103290005D042DB1204619220CA90AF0B9FC19349D
:1032A00027B1172206A920460AF0B2FC29B0BDE8D2
:1032B000F08F00BFFC1B0020000000000000000099
:1032C00054EB010007058402020806503B2E010062
:1032D00070B51E4C064694F900309BB91C4D214632
:1032E0002868FFF7ADFE04F108016868FFF7A8FE43
:1032F00004F11001A868FFF7A3FE04F11801E868C3
:10330000FFF79EFE5EB940F20942124B5A8001233C
:10331000013310485B0043F44073038070BD052EF9
:1033200012D801220C4B0B4C53F82610013911F91D
:10333000010F531EDBB20028EAD024F8120001323C
:10334000212AF4D12023E3E70020E7E7421C0020F4
:1033500090810001001C0020A8EB01007047FFFFD6
:1033600030B585B003F0C2FC044600283BD1FFF71E
:10337000F5FF4AF202531D496FF02005A1F8FE3314
:103380001B4B5A6822F400625A605A6822F4805239
:103390005A604FF42543A1F8FE3304230193154BE3
:1033A00003950293FEF768F801AA0121FEF708FBD6
:1033B0009DF90C0003F08EFC032301930E4BCDE925
:1033C0000235FEF759F801AA0221FEF7F9FA9DF934
:1033D0000C0003F085FCFFF795FE204601F040FC51
:1033E000012000F031FE05B030BD00BF00E001401B
:1033F000004008409930010065300100002070470E
:1034000070470020704700207047704700207047C9
:1034100070474FF0FF30704770B50024334B048085
:103420001B6844809942848016D8314B03EBC1015C
:1034300023464E68E1B236F811101AB901F03E0584
:103440000A2D04E0012A08D101F03E05082D0AD01A
:10345000090404F10104EDD570BD022A08D101F080
:103460003E05042DF2D15D1C20F81310EBB2EFE7FE
:10347000032A04D101F03E05062DE1D1F3E7042A29
:1034800002D101F03A05E1E7052A02D101F03A053F
:10349000D6E7062A03D101F03E05102DD7E7072A0B
:1034A00005D101F03E05122DDDD0182DCFE7082AF9
:1034B00003D101F03E05022DC9E70A2A03D101F02C
:1034C0003E05142DC3E70B2A03D101F03E051C2D48
:1034D000BDE70C2A03D101F03E051A2DB7E70D2AEE
:1034E000B6D101F03E051E2DB1E700BF64EA010030
:1034F00094E6010070B500F110050446284600F07E
:1035000036FCB0F5007F18D3E178002000F0C0FE53
:1035100098B1284600F02BFCB0F5007FE17809D384
:1035200004F500524FF40073BDE8704028320020CB
:1035300000F0CABE002000F0B9FE002070BDFFFF01
:1035400010B5044600F068FD08B9002010BD00F079
:103550006BFD0028F9D142F22842034B02FB0434F0
:10356000207900F00100F1E7841C002042F228429B
:1035700008B5034B02FB003000F0D1FB08BD00BFD3
:10358000941C002070B542F228444443064D04F1D7
:10359000100092B2284400F00BFC06462819FFF7F1
:1035A000A9FF304670BD00BF841C002042F22842B3
:1035B000024B02FB003000F00EBC00BF941C002048
:1035C0002DE9F041054600F027FD10B90020BDE8C7
:1035D000F08100F029FD06460028F7D142F2284488
:1035E0006C43184F04F11C053D44284600F097FB3E
:1035F0000028EBD007EB040898F80210304600F0E2
:1036000047FE0028E2D004F5085428343C44214603
:1036100028464FF4007200F0CBFB98F802100546E4
:1036200058B103462246304600F04EFE38B9064BEC
:103630001B68DB07CAD500BEC9E700F037FE284685
:10364000C5E700BF841C0020F0ED00E070B542F239
:1036500028440A4B92B204FB00340546204600F091
:10366000E1FB0646204600F05AFBB0F5007F02D38E
:103670002846FFF7A5FF304670BD00BFA01C002004
:1036800042F2284208B5034B02FB003000F06FFB0A
:1036900008BD00BFA01C002013B5124C42F2284206
:1036A000002120460AF08CFBFF2363714FF4E133C5
:1036B0000822A3600023A273A381009304F12801D0
:1036C00001234FF4805204F1100000F011FB01239C
:1036D0004FF480520093044904F11C0000F008FBF1
:1036E00002B010BD841C0020AC2C002010B50A4C88
:1036F0000021052220460AF063FB04F110001C346F
:1037000000F096FB204600F093FB2046BDE81040F9
:10371000012100F092BB00BF841C0020F7B54B795B
:103720000746022B03D00024204603B0F0BD8B795E
:10373000022BF8D11F4EB3787BBB8B7809243370F2
:103740000D780D4403E02B781C44A4B21D446B7823
:10375000242B1BD19442F6D96B78042B12D16B79B0
:103760000A2B0FD1144B2E780193013300930223BF
:10377000A9191A46384600F057FD70B10E3416FAF2
:1037800084F4A4B20B48FFF7B5FECDE7052BE3D1D7
:103790002946384600F024FD28B9084B1B68DB0792
:1037A000C1D500BEBFE7AB7873702B781C44A4B2C0
:1037B0001D44D1E7841C0020861C0020F0ED00E0B1
:1037C00038B50B461146127802F06002202A47D124
:1037D000244A8C881578A54242D14C78203C032C91
:1037E0003ED8DFE804F002141731012B05D107237E
:1037F0001D4A01F00DF9012038BD032BFBD11B4BF5
:10380000002BF8D018490020FFF7F4FBF3E7012B59
:10381000F1D1ECE7012B02D101F0E0F8EBE7032B4B
:10382000E9D14C881248E143147101F0010100F024
:1038300004FB104B002BDED0C4F3400204F0010166
:103840000020FFF7CDFBD6E7012BE5D0032BD2D12B
:10385000094B002BCFD04988002000E000BFCAE709
:103860000020C9E7841C00208C1C0020F52F0100DB
:10387000A01C0020E12F0100000000002DE9F0470E
:103880001C46374B8046DA780F468A421D4607D0E1
:103890009B788B425AD1AB78BB4234D001245CE098
:1038A00003F11000A2B22F4900F0BCFA2E4B2BB945
:1038B0002E4B03BB2A48FFF71DFEECE795F90530B8
:1038C0000133F5D0002642F2280905F1100A0FE075
:1038D00006EB090395F90520EB5C9A4207D15046A7
:1038E00000F02DFA18B995F9051000E000BF013677
:1038F000A642EDD1DCE71E4800F021FA0028D9D11C
:1039000000E000BFD6E71B4B13B1002000E000BF72
:103910000020FFF755FE0028C0D1174800F0FFF93E
:103920000028BBD1002CB9D0C4F30806002EB5D1B5
:10393000A978404600F0ACFC04460028AED03346DF
:103940003246A978404600F0BFFC06E00B4B1C68ED
:1039500014F0010401D000BE00242046BDE8F08729
:10396000841C0020AC3C002000000000000000008F
:10397000941C002000000000A01C0020F0ED00E0DE
:103980000A4492B291424FEA400001D8824201DBE0
:10399000121A92B21046704738B50D46D41A818873
:1039A000A4B29A423CBF04EB4104A4B2BCB1A14210
:1039B00005D2914294BF531A8B189BB2438199420E
:1039C0000AD9C2880168C2F30E0202FB031128461D
:1039D0000AF01EF9012038BD5B1A9BB2EFE72046C2
:1039E000F9E7F7B50446900803460D464FF6FF7613
:1039F000013B9BB2B3420ED112F0030201EB8001F6
:103A000007D0002302A840F8043D0AF001F9019B09
:103A1000236003B0F0BD55F8047B2760E8E72DE98B
:103A2000F3470F46BDF8281084885E1AB6B28B4261
:103A30003CBF06EB4406B6B280466EB3B44206D233
:103A400026469C4294BF191BE11889B241819642D7
:103A500028BF16468C4223D9641AB8F80630A4B29F
:103A6000C3F30E03A6EB0409D8F800509AB214FB76
:103A700003FA19FB03F902FB01559DF82C101FFAFC
:103A80008AFA01291FFA89F918D0A6420BD82946CB
:103A9000384672430AF0BCF8304602B0BDE8F08701
:103AA000091B89B2D6E75246294638460AF0B0F8D3
:103AB0004A46D8F8001007EB0A00EBE7A64207D801
:103AC000294616FB03F292B23846FFF78AFFE3E776
:103AD0002AF00304A4B2224629463846FFF781FFA4
:103AE0001AF0030A27D0CAF104039BB24B4528BF42
:103AF0004B4600202919A9EB030902AC1FFA89F9EA
:103B000044F8040D0A5C0255421C92450CD1D8F8C9
:103B1000001020440B44994208D1019B3B60B9F14D
:103B2000000FB9D04A46CFE71046EBE711F8012B5A
:103B300000F8012FEFE7D8F80010F0E7F7B5940888
:103B4000234605464FF6FF76013B9BB2B3420CD1AC
:103B500012F0030200EB840005D00B6802A941F8C3
:103B6000043D0AF055F803B0F0BD0F6845F8047B3A
:103B7000EAE72DE9F74F1446C27905890F464189D6
:103B80009B46D3090646ADB289B2B0F8048015D180
:103B90008D4236BFC1EB4801691A491989B24145C6
:103BA0002EBF0021A8EB010189B28C4228BF0C4630
:103BB000002C50D1204603B0BDE8F08F44450CD313
:103BC000BBF1000F06D1C288A4EB0804C2F30E02B9
:103BD00002FB04770D464446EAE78D424FEA48006F
:103BE00036BF421A6A1A521992B222448242DFDB6D
:103BF000A8EB040292B24046FFF7C2FE0546D7E7A3
:103C0000ACEB080C1FFA8CFCC445F9D2A8EB0C01F4
:103C1000F08889B2C0F30E00A4EB010911FB00FA91
:103C200019FB00F9336882B2BBF1010F1FFA8AFA5F
:103C30001FFA89F902FB0C3819D08C420DD839468D
:103C40004046624309F0E4FF22462946B088FFF768
:103C500097FE3081AEE7AC46D6E75246394640463D
:103C600009F0D6FF4A4607EB0A013068EAE78C42C2
:103C700007D814FB00F23946404692B2FFF75EFFC8
:103C8000E2E72AF0030B1FFA8BFB5A4639464046FF
:103C9000FFF754FF1AF0030A28D0CAF1040080B2DB
:103CA000484528BF484600213A68A9EB000902AB05
:103CB000D8441FFA89F943F8042DCA5C08F801209A
:103CC00001318A45F9D19A4433680AEB00015A1E42
:103CD000514506D11844B9F1000FB5D04A463946CE
:103CE000CCE71AF801CB02F801CFF1E73068F2E730
:103CF000B2F5004F11D88280C288016063F30E02D2
:103D00009DF80030C280C2F3072263F3C71200237C
:103D1000C2714381038101207047002070470389ED
:103D2000428981889BB292B2934236BFC2EB410274
:103D30009B1A9B1898B2884228BF08467047028990
:103D400043899BB29B1A5842584170470389428964
:103D5000818892B29BB2934236BFC2EB41029B1A5A
:103D60009B189BB299428CBF00200120704782882B
:103D7000038940899BB280B2834236BFC0EB4200C8
:103D8000181AC01880B2824286BF101A80B2002072
:103D9000704710B5028943890446FFF7FDFD61892C
:103DA000034682B2A088FFF7EBFD6081184610BD84
:103DB00073B50026038945890446CDE90056FFF70F
:103DC0002EFE618903460246A088FFF7D9FD608177
:103DD000184602B070BD02894389FFF7DDBD70B59A
:103DE000058904460E46ADB2FFF7B0FF10B1E07989
:103DF000C00913D02B46A2889A4210D9E2882068C5
:103E0000C2F30E0202FB0300314609F001FF01225A
:103E10002946A088FFF7B4FD2081012070BD9B1AC0
:103E20009BB2E9E712B10023FFF7A3BE104670472B
:103E300000234381038101207047C37961F3C713D5
:103E4000C3710120704708B5034600890A46014640
:103E50009888FFF795FD188108BD08B5034640898D
:103E60000A4601469888FFF78BFD588108BD70B55A
:103E700005894389ADB29BB284889D4236BFC3EBAE
:103E80004402EA1A521992B2944206D22246AC4235
:103E900094BF2B1B63199BB243812AB9C1E900224D
:103EA0008A6070BD2D1BADB2AC42FBD99C420AD9D1
:103EB0000068AB4200EB03064E6007D200230A8085
:103EC0004B808B60EDE71B1B9BB2EFE7E31A9BB2C5
:103ED000D21A0B804A808860E3E770B50289448972
:103EE00092B2A4B28588A24236BFC4EB4503131B2D
:103EF0009B189BB29D4202D9EB1A9BB233B90023A7
:103F0000C1E900338B6070BD521B92B29542FBD960
:103F1000A5420AD90068944200EB02064E6007D918
:103F20000023A21A0A804B80ECE7641BA4B2EFE7DF
:103F3000AA1A92B29B1A0A804B808860E3E7FFFFBF
:103F40000B4B63B10B4B1B78834206D90A4B00EB3A
:103F500040001B6803EBC0007047C01AC0B20328C2
:103F600003D800EB4000054BF4E70020704700BF8A
:103F700000000000B0400020AC400020ACEC01008C
:103F800070B506460024124D2B78E0B2033383420D
:103F900010DA3B2200210F4809F012FF1022FF2106
:103FA0000D4809F00DFFBDE870401422FF210B48B9
:103FB00009F006BFFFF7C4FF013428B9084B1B689E
:103FC000DB0700D500BE70BD436830469847DBE78D
:103FD000B0400020B1400020B4400020C440002088
:103FE000F0ED00E070B50C4605461646086800F096
:103FF0004FFD236832462846BDE87040012118472E
:10400000044B1B7810B1184601F022BC184601F091
:1040100045BC00BF30000020024B5878003018BF6C
:1040200001207047B1400020024B1878C0F3800097
:10403000704700BFB1400020024B1878FF3818BF0E
:104040000120704730000020F8B51B4E054632783D
:10405000FF2A1FD1194C3B220021194809F0B0FE5C
:10406000201DFFF7E5FE174B1C60174B23B11748C7
:1040700000E000BF164B18600024144F3B78E0B2FC
:104080000333834208DA2846357001F049FC28469C
:1040900001F0DEFB012009E0FFF752FF013430B9E7
:1040A0000C4B1B6813F0010304D000BEF8BD03687D
:1040B0009847E3E71846F9E7300000202000002089
:1040C000B1400020EC40002000000000B040002083
:1040D000AC400020F0ED00E0F0B5437885B0023B45
:1040E00005460C46032B12D8DFE803F0026F242CA0
:1040F0000021374B1A786FF300021A701A786FF3A9
:1041000041021A7059701A7861F382021A70314BA9
:104110001E6814B93368204698472946301DFFF7BA
:104120005EFE054614B9336801209847002D46D03D
:1041300005B0F0BD264B1A78D607F9D51A7842F0AB
:104140000402E3E7224A1378D807F1D513786FF316
:1041500082031370DBE7FFF7F3FE20B1436913B16D
:1041600069682878984701363B78F0B20333834278
:10417000F1DA174A13785907DAD513786FF3820307
:1041800013700023CDF80630CDF80A30ADF80E30AC
:104190002B788DF8043005238DF805300D4B1D6804
:1041A00014B92B682046984701A9281DFFF717FE70
:1041B000064614B92B6801209847002EB8D1064B4B
:1041C0001B68DB07B4D500BEB2E70026034FCBE780
:1041D000B1400020EC400020F0ED00E0B0400020B5
:1041E00038B58B780C4603F07F03092B06D90B4BAF
:1041F0001B68DB0700D500BE002038BD084B2046F9
:104200001D78084B997802F0A3FD0028EFD02146D5
:104210002846BDE8384001F0D7BB00BFF0ED00E014
:1042200030000020B14000202DE9F0478046DDE954
:1042300008560C4691469A460027B94501DC0120F4
:104240000CE06378052B04D1E17801F003015145BE
:1042500008D00E4B1B68DA0702D40020BDE8F087B7
:1042600000BEFAE721464046FFF7BAFF28B9074BE0
:104270001B68DB07F1D500BEF0E7A1780137CB0959
:1042800014BF3170297023781C44D6E7F0ED00E0AC
:10429000CB0901F07F00273303EB400302480021E4
:1042A000184402F02EBD00BFB1400020CB0901F040
:1042B0007F00273303EB400302480021184402F03B
:1042C00037BD00BFB140002038B5154C01F07F0567
:1042D00004EB450404EBD1142034E079C00707D582
:1042E000104B1B68DA0701D4002038BD00BEFBE785
:1042F000E5790D4845F001050078E57101F046FCCF
:104300000028F2D1E37960F30003E371E37960F30D
:104310008203E371034B1B68DB07E5D500BEE4E7CE
:10432000B1400020F0ED00E030000020054B01F02E
:104330007F0203EB420303EBD11191F8270000F059
:1043400001007047B140002010B50C4C01F07F0215
:1043500004EB420404EBD11494F8273020349B077B
:104360000BD4074B187801F02AFCE37943F00203E1
:10437000E371E37943F00103E37110BDB140002024
:104380003000002010B50C4C01F07F0204EB420419
:1043900004EBD11494F8273020349B070BD5074B3E
:1043A000187801F025FCE3796FF34103E371E379B9
:1043B0006FF30003E37110BDB14000203000002016
:1043C0002DE9F04FB84B89B01B78FF2B00F08B82A2
:1043D000B64B00201D682C4654F8043B98472046F5
:1043E00005A9FFF7D6FC04462B6801209847002C4E
:1043F00000F079829DF81530013B072B00F2A08276
:10440000DFE813F0080013009E027C028B021F00FD
:104410004A0297029DF81400FFF7B2FD00F030FB4E
:104420009DF81820A24B9A70D2E79DF81400FFF770
:10443000A7FD00F025FB9F4B002BC9D000E000BF7B
:10444000C6E79B4C002023789DF8145043F00103ED
:10445000237094F827306FF3000384F8273094F822
:1044600027306FF3820384F8273094F828306FF3F5
:10447000000384F8283094F828306FF3820384F81E
:10448000283000F005FB9DF8186006F06007602FEB
:104490000FD1894B1B68DC0700D500BE9DF81400C6
:1044A000002101F08CFB80219DF8140001F087FBB6
:1044B0008EE7402F0CD181480028EFD000F0E8FAB9
:1044C00006AA0121284600E000BF002880D1E5E7C8
:1044D00006F01F06012E00F0888118D3022ED8D1D5
:1044E0009DF81C1001F07F02092AD2D804EB420289
:1044F00002EBD112D07CFFF723FD8046002F00F0A5
:10450000A0810028CAD006AA00F10C010EE0202FDD
:1045100010D19DF81C300F2BC0D81C44E078FFF759
:104520000FFD0028BAD006AA00F10C012846FFF7BB
:1045300059FDCAE7002FACD19DF81930092BA8D836
:1045400001A252F823F000BFD3470100C147010088
:1045500093440100AD4701009344010071450100FF
:10456000EF460100934401008B4501009F45010087
:1045700006A800F093FA9DF81A10284601F0BCF93D
:10458000237843F00203237022E7637808AA02F835
:104590000E3D012306A9284600F03AFA18E79DF8D7
:1045A0001A906378994531D063783BB1284601F081
:1045B000D3FAA6782846FFF7E3FCA670B9F1000FFE
:1045C00024D009F1FF30C0B2FEF796FD10B1437858
:1045D000022B06D0384B1B68DF077FF55AAF00BEB1
:1045E00057E7C2792378511161F30413921162F3F2
:1045F00045132370438800F10906C3180293029BF8
:10460000B3420AD82E4B0BB100E000BF84F80190F2
:1046100006A9284600F0E2F9DAE673780B2B02BF10
:10462000337896F80380F618737818BF4FF00108B6
:10463000042BCFD1029B9B1B9BB2039300230193BE
:10464000204B9DF804701B780333BB4225DB3846B2
:10465000FFF776FC83460028BCD08368039A314676
:1046600028469847082882463ED9039B83423BD37D
:10467000B8F1010F06D1DBF80820134B9A4208BFAE
:104680004FF002080022D3B2434521D331463B46C6
:1046900052460E4802F08CFB56440A4B1B780333FB
:1046A0009F42ACDD96E700BF30000020EC400020C8
:1046B000B140002000000000F0ED00E0000000002C
:1046C00000000000B04000201D370100C440002061
:1046D000B17801320B449E4951FA83F3D978FF290E
:1046E0007FF478AFDF70CEE7019B0133A7E7BDF819
:1046F0001A00030A5A1EC0B20E2A3FF6CFAE01A11D
:1047000051F822F0414701006B4701008B4701003F
:104710009D4401009D4401009F4701006B4701003B
:104720009D4401009D4401009D4401009D44010001
:104730009D4401009D4401009D4401004B47010040
:10474000FEF7C4FC122302460AE0824B002B3FF422
:10475000A5AE00E000BF024600283FF49AAE4388B1
:1047600006A9284600F054F9AFE6022B06D1FEF761
:10477000C3FC00283FF48DAE4388E4E7764B002B62
:104780003FF48CAE00E000BFF3E7BDF81C10FEF76D
:104790009FFD024600283FF481AE0378E0E76F4BAF
:1047A000002B3FF47BAE00E000BFF2E7BDF81A300B
:1047B000012B7FF473AE237843F00803237027E7BF
:1047C000BDF81A30012B7FF469AE23786FF3C30371
:1047D000F4E72378C3F340129B0803F0020313436A
:1047E00008AA22F80E3D0223D4E69DF81C300F2BB8
:1047F0003FF654AE1C44E078FFF7A2FB00283FF4DC
:104800004DAE00F10C0106AA2846FFF7EBFB00288D
:104810007FF4DEAD9DF8183013F060047FF43EAEF7
:104820009DF819300A3B012B3FF638AE00F030F905
:104830009DF819300A2B7FF4EBAE08AA02F80E4D52
:10484000A7E69DF81930012B03D01DD3032B7FF46D
:1048500020AEBDF81A2022B9012B284619D1FFF746
:1048600091FDB8F1000F3FF4B3AD06AA08F10C01B9
:104870002846FFF7B7FB002000F00AF994F828302B
:10488000DE073FF5A5ADC3E692F82730C3F340033A
:10489000A6E7FFF759FDE4E79DF818102C4B01F04F
:1048A0007F0403EB440303EBD11393F827006FF36A
:1048B000000083F8270093F827006FF3820083F845
:1048C00027003CB9079B9DF819209DF8140000F0C3
:1048D000F1F87DE5D87CFFF733FB38B9204B1B6836
:1048E000D80700D500BE09B0BDE8F08F0469079B6A
:1048F0009DF819209DF81400A04769E5144B1A781B
:10490000D1077FF565AD174A002A3FF461AD1878ED
:10491000C0F3C00000E000BF5AE50D4B1B78DA077A
:104920007FF556AD104B002B3FF452AD00E000BFB9
:104930004EE5069B002B3FF44BAD0798984747E5A3
:10494000074B1B68DB077FF543AD00BE40E500BFAA
:10495000B140002000000000000000000000000046
:10496000F0ED00E00000000000000000054B01F049
:104970007F0203EB420303EBD11191F82700C0F350
:1049800040007047B1400020124B70B59989DA8918
:1049900005468C1AA4B293F90000402C28BF40248D
:1049A000002809DA914212D0996822460A4809F093
:1049B0002FF98021084A04E091424FF00001F9D11B
:1049C000002223462846BDE87040FFF77DBC8021C9
:1049D000F6E700BFF04000200441002030B40B4C4B
:1049E0000546234608680A46496803C30023C4E90C
:1049F000023392F90020284630BC9A42A8BF802199
:104A00001A46B8BF1946FFF75FBC00BFF040002050
:104A1000F8B5194D0C462E46074608684968AA6045
:104A200003C60021E981E1888B4228BF0B46AB8198
:104A300079B143B13AB9114B1B68DA0701D40020B0
:104A4000F8BD00BEFBE73846FFF79EFF68B10120C6
:104A5000F6E794F900300A46002B38460B46ACBF07
:104A600080210021FFF730FCF0E7044B1B68DB07D7
:104A7000E5D500BEE4E700BFF0400020F0ED00E027
:104A800014220021014809F09BB900BFF04000202A
:104A9000014B1861704700BFF04000200146044AF6
:104AA00000681346496803C30023C2E90233704714
:104AB000F040002070B5304C1E462378C909B1EB98
:104AC000D31F054616D03EB12C4B1B68DA0701D424
:104AD000002070BD00BEFBE7294B13B1214600E06A
:104AE00000BF23690BB90120F3E7234A03212846BD
:104AF0009847F8E794F90030002B06DBA0680028FF
:104B0000E6D032461F4909F083F8A368E2893344AE
:104B10003244A360E38892B29342E28101D03F2EF7
:104B200025D82369A3B994F900302846002B4FF00B
:104B30000003A8BF80211A46B8BF1946FFF7C4FB7F
:104B40000028D0D10D4B1B68DB07C1D500BEC0E7E4
:104B50000221094A2846984701460028E3D1284601
:104B600001F02DF88021284601F029F8BBE72846FE
:104B7000FFF70AFFE4E700BFF0400020F0ED00E09F
:104B80000000000004410020C27843691A70704799
:104B900030B589B06A460E4B05460C4693E80300D3
:104BA00082E803000021D88A0291CDE903029A68C5
:104BB00018690592DA688DF808508DF80B40069256
:104BC000079059750AB102A8904709B030BD00BFDF
:104BD000E4480020044B1B7810B1184601F066BB76
:104BE000184601F089BB00BF3100002010B50A4C07
:104BF00056220021204609F0E3F80822FF2104F1A3
:104C00000D0009F0DDF804F115002022BDE8104088
:104C1000FF2109F0D5B800BF4C42002070B5064C0A
:104C20000546207801F0E0FB0646207801F0DCFB29
:104C3000801BA842F9D370BD3100002001280CBFB1
:104C4000014B024BD87870474C4200204441002071
:104C5000024B1878FF3818BF012070473100002040
:104C600070B5184C05462378FF2B29D1164E301D00
:104C7000FFF7DEF8154B0522002115481E6009F0EC
:104C80009FF856220021134809F09AF818220021B3
:104C9000114809F095F8FFF7A9FF03F01FF828461F
:104CA000257001F0B9FA044630B90C4B1B68DB07DC
:104CB00000D500BE204670BD284601F0F7FAF9E79E
:104CC0000124F7E73100002034000020A442002036
:104CD000444100204C420020E4480020F0ED00E078
:104CE00008B5074B1B78FF2B08D0064B186804301B
:104CF000FFF725F880F00100C0B208BD0020FCE7F6
:104D000031000020A442002001280CBF014B024BBF
:104D1000187870474C42002044410020002313B50E
:104D20000446CDF802308DF8063040F20753ADF856
:104D30000410ADF80030FFF7E7FF6A46214601F0A6
:104D40001BFC02B010BDFFFFF7B50546FFF7DCFF07
:104D5000074621B12846FFF71BFF01201EE0194B33
:104D60005C7D1E46E4B2022C1AD0032CF2D0012C3A
:104D700026D1D988A1B102241A785C75D209009194
:104D800014BF8022002229469B6801F0CBFC00283A
:104D9000E3D10D4B1B68DB0710D4002003B0F0BD3E
:104DA000032392B2F2827375002332782946D20926
:104DB00000930CBF80221A463846E6E700BEEDE7B6
:104DC0000846EBE7E4480020F0ED00E0012873B569
:104DD00002D0002002B070BD164E01F07F0406EB39
:104DE000440404EBD11430346579ED0705D5124B3A
:104DF0001B68DA07EDD500BEEBE7657945F00105E4
:104E000065713578009313460A460146284601F03D
:104E100089FC0028DED1637960F300036371637954
:104E200060F382036371044B1B68DB07D1D500BEBE
:104E3000D0E700BF4C420020F0ED00E038B50D4651
:104E40000446FFF7FBFE0146284601F081FF30B91A
:104E5000074B1B68DB0700D500BE002038BD20468D
:104E6000FFF752FF2A462146BDE8384001F084BBD7
:104E7000F0ED00E001280CBF054B064B1A780A70D4
:104E80005A784A709A788A70DB78CB70704700BF86
:104E90004C420020444100200C4B70B506461C6873
:104EA0000D4611B92368084698473146201DFEF784
:104EB00096FF064615B923680120984726B9044B8A
:104EC0001B68DB0700D500BE70BD00BFA4420020F8
:104ED000F0ED00E00128124B18BF002310B501319E
:104EE000C9B201F10C021344072909D9082906D1D6
:104EF00000220C4B1A710C4B0BB100E000BF10BD2F
:104F000013F8012FFF2A07D01424084B04FB0232A8
:104F1000BDE81040936818470131C9B2E4E700BF0B
:104F20004C42002044410020000000000CED010034
:104F300000232DE9F0477A4A8AB013704269057858
:104F4000033A092A00F2E980DFE812F00A00E700DC
:104F5000E700E70022004C00680080008A00DA00C9
:104F600008210020FFF7DAFE38B96E4B1B68DB071B
:104F700000D500BE0AB0BDE8F08707230822002054
:104F800000936949694B00F046FA0028EDD0F1E73B
:104F900065480379092BE8D0654B197911F00101B7
:104FA000E3D1644A14781C7054785C709478D27899
:104FB0009C70DA701A7942F001021A71C2795A7142
:104FC00010225D4B0DEB0200CDE9023108F0F8FE36
:104FD00002AB0693554B04A808930823099300F0ED
:104FE00099F9D2E783685C88E4B2012CBDD1504DB9
:104FF00000212B7943F002032B714E4B187801F0FE
:1050000013FA69792046FFF789FE0028ADD00923FD
:10501000122200934449454B2046B4E7012DA4D108
:10502000414A434B1189D98051891981917B9972E9
:10503000D17BD972117C19730A2301933B4B0093E6
:1050400009230021284600F0F5F99EE7364A5388E7
:10505000B3F5807F89D80B21019134490091F0E7A5
:10506000012D334E4FF0000A18BF00262E4C6788E2
:10507000237827441C44A74206D80C232B4A01213D
:10508000284600F0E4F980E763780B2B02BF237811
:1050900094F80390E418637818BF4FF00109042BCB
:1050A00006D0204B1B68DA077FF55FAF00BE5CE7D8
:1050B0003A1B92B24946204601F08CFE08288046F1
:1050C000EFD9034622462946307802F09FFEA8B168
:1050D000002209E0A17801320B4456FA83F3597B90
:1050E000FF29DED183F80DA0D3B29945F2D8002371
:1050F0004246214606F1150001F05AFE4444BAE743
:10510000012D7FF432AF0A4AFF211379284643F07C
:1051100004031371FFF7DEFE2CE7064A137129E73B
:10512000A8420020F0ED00E04C410020895401002D
:105130004C42002044410020000501002DE9F043CD
:105140006D4B8BB01B780D46FF2B00F0A0806B4E93
:10515000DFF8BC813746D6F8009000204C4654F862
:10516000043B9847204601A9FEF713FE0446D9F8F0
:10517000003001209847002C00F089809DF8053010
:10518000032BE8D8DFE803F0024776B15C4C2379C3
:10519000B3B13C6815B923682846984701A9201D7A
:1051A000FEF71DFE814615B9236801209847B9F125
:1051B000000FD0D1D8F80030DC07CCD500BECAE74C
:1051C00001239DF8040023719DF808909DF8093093
:1051D000207084F80190A370B9F1000FBBD101F0E9
:1051E000C1F84FF4FA70FFF719FD207801F00CF9BF
:1051F000207801F0AFF80028ADD0207801F006F952
:105200000323E07004A88DF810908DF81390099393
:10521000FFF78EFE9FE73B4B9DF8044018789DF802
:105220000810A0429DF8092095D11879C00792D5A1
:10523000D9B9AAB9344B7BB9012002F057FD01213D
:10524000204601F0F1F8FFF7D1FC304B1A7D012A1E
:1052500081D100225A757EE7012000E000BFEBE714
:105260009B7893427FF477AFE4E7587888427FF4E5
:1052700072AFDEE79DF808109DF8060001F07F048C
:1052800078B93CB1224B1B68DB0700D500BE0BB0E0
:10529000BDE8F0832046039A9DF80910FFF754FDFE
:1052A00059E70128F3D1174B1A79D207EFD503EB51
:1052B000440303EBD11393F835C06FF3000C83F86C
:1052C00035C093F835C06FF3820C83F835C01CB934
:1052D000039A9DF80910E1E75B7D002BD2D1039B77
:1052E0009DF8092002F020FD35E7029B002B3FF4DA
:1052F00032AF039898472EE731000020A4420020E7
:10530000444100204C42002000000000E4480020FE
:10531000F0ED00E073B5437804461BB10025284644
:1053200002B070BD81680029F8D0274A537D164627
:10533000002BF3D1537D03F0FF00002BEED10123AE
:105340002578537513461575D0820868496803C3DC
:10535000E3682169936063692846D1601361FFF7B0
:10536000D3FC59B1294601F0B5F805460028D6D13D
:10537000164B1B68DB07D1D500BED0E7042102AB7A
:1053800003F8011D1361124B2946D36001F0A2F806
:1053900005460028ECD09DF80730042B0AD063693D
:1053A00013B19DF807201A709DF80730E370F38A57
:1053B0006360B4E7FFF794FC0028ECD000214FF0C5
:1053C000FF30FFF7BBFEE6E7E4480020F0ED00E029
:1053D000894B010010B542EA012288B0ADF80220E5
:1053E00000224FF4D06405930B9BBDF82810069360
:1053F0000C9BCDE902228DF8080002A8ADF8004010
:10540000ADF80420ADF80610CDF810D00793FFF7E3
:1054100081FF08B010BD122A1FB528BF1222069CBA
:105420000092CDE9013400220B460121FFF7D2FFA3
:1054300004B010BD1FB5079C0294069CCDE9003452
:1054400013460A460221FFF7C5FF04B010BD70B530
:1054500088B01C46ADF802104FF4106300210646D8
:10546000154602A81022ADF80030019108F0A8FC02
:1054700002A88DF80860CDF810D0CDE90654FFF7EA
:1054800049FF08B070BDFFFFC37810B50446B3B143
:105490000D4A1378022B0ED8013364201370FFF7E6
:1054A000BDFB2046FFF736FF20B9084B1B68DB0722
:1054B00000D500BE10BD0022054B1A71FAE7BDE809
:1054C0001040FFF735BD00BFA8420020F0ED00E01E
:1054D00044410020054A1146138D03F00F03834217
:1054E000FAD14B8D9B04FCD5704700BF00101140D2
:1054F000034630B58518EC1A012C0DD86FF0010564
:10550000530822F0010405FB032222B1025DCB788F
:1055100062F30703CB7030BD33F8024B4C80EAE7EF
:105520000244904200D170470B7800F8013BF8E745
:105530002DE9F04F1F460C2315467B43154E85B0D1
:10554000894606EB030A01A9F35880469847BDF83F
:105550000440DAF808B0AC4228BF2C46494622463F
:105560000298D8472C1B0AD0BDF806A04946A24590
:1055700028BFA24603985246D847A4EB0A040C233E
:1055800003FB0766291B736889B24046984705B03C
:10559000BDE8F08F20ED01002DE9F843194BDC88C0
:1055A0001F4634B901201C705C709C70DC70BDE833
:1055B000F883154B2546B3F85E90984609F07F09AD
:1055C0004C4528BF4D464DB17B7A3E68DB0711D56F
:1055D00001232A460D493046FFF7AAFF4D4538BF43
:1055E0004FF40043A4EB050438BFA8F82230002094
:1055F000FC80DCE730462A4604492E44FFF778FF5A
:105600003E60EBE7A9420020001011401410114049
:105610002DE9F84F4FF00C0909FB00F9234B8046A8
:1056200003EB0905EC889B463CB9012003F80940CF
:105630006C70AC70EC70BDE8F88F83B21C4E43F414
:1056400080623285A6F86430B6F86CA0FFF742FF9E
:105650001FFA8AFA5445274628BF57465FB12B46A2
:1056600053F8085B5B78DB0717D501233A461149ED
:105670002846FFF75DFF57453CBF4FF40043738555
:1056800000233385308D10F00F00FBD10C2303FB7A
:1056900008B8E41BA8F80640CDE728463A46054975
:1056A0003D44FFF725FF4BF80950E4E7A9420020ED
:1056B000001011401810114070B51B4DF9B14FF496
:1056C00084642C842C8CA606FCD5184C667AA380A6
:1056D00060F300066672E380E3B12260B1B1B5F811
:1056E0006030DB0B03D0B5F854301B060CD4104BE4
:1056F000186810F0010001D000BE002070BD2984A0
:105700002C8CA406FCD4E0E7FFF746FF0120A5F8A7
:105710006000F3E723706370A370E370052301203A
:10572000A5F86030EAE700BF00101140A942002050
:10573000F0ED00E02DE9F041344C4FEAD11E1F4658
:1057400001F07F0104EB0E131944054691F878002F
:1057500038B92F4B1B6813F0010355D000BEBDE8CC
:10576000F0810C234343E11891F809C0E25065F33E
:10577000000C81F809C08F80CF80BEF1000F11D0DE
:105780001FB1FFF745FF0120E9E7224C83B22385D3
:10579000FFF7A0FE4FF4004363852785238D1A078A
:1057A000FCD1F0E7431E042BEDD81A4B82B2DFF890
:1057B0006CC000F10041A3F864200139B3F86C60BB
:1057C0003CF81130144D9B074FF4807300F1804476
:1057D000B6B204F1FF3406F1FF3218BF2CF811E025
:1057E00025F82430D319B3FBF6F301209BB205EB67
:1057F0008408A8F8023035F8243043F4007325F803
:1058000024302CF81100AAE71846A8E7A942002086
:10581000F0ED00E0001011409010114070101140A8
:10582000C0B210F07F020BD0C309064800EB031092
:10583000104490F878301BB103485B00184470475F
:1058400002487047A94200206E10114060101140BC
:1058500001280CD10E4B93F90030002B06DB5A09BE
:1058600003F01F0398400B4B43F8220070470028B9
:10587000FCD1094B93F90030002BF7DB01225909C9
:1058800003F01F0302FA03F3024A42F82130EDE766
:105890004500002000E100E044000020012812D172
:1058A000124B93F90030002B0CDB5A0903F01F0355
:1058B000984002F120030E4A42F82300BFF34F8FB5
:1058C000BFF36F8F70470028FCD10A4B93F900306B
:1058D000002BF7DB01215A0903F01F0301FA03F340
:1058E0000349203241F82230E8E700BF450000209C
:1058F00000E100E0440000207047FFFF10B5074CB6
:105900004FF47A7123880A2043F480732380FBF7D5
:105910003FF9238843F01003238010BD001011408D
:1059200038B5244C054623884FF47A7143F0800340
:105930002380E38F01206FF30003E387FBF728F94F
:10594000E38F6FF34103E38723886FF345132380CD
:10595000238843F001032380B4F8023143F48043E9
:10596000A4F802312346DA88D207FCD50122198C2B
:10597000402062F38B211984198D62F38B211985E4
:10598000998D62F38B2199850021A3F84010B3F81B
:105990005E1060F30601A3F85E104FF45F411986B4
:1059A0005A87DA86B3F840301B0602D52846FFF73F
:1059B000A5FF38BD00101140024B1A886FF3041286
:1059C0001A807047001011402DE9F047CE78B1F8E9
:1059D00004A006F00306012E0746CAF30A0A04D102
:1059E000BAF5807F06D9002055E0022E55D069D83F
:1059F000012EF8D13D4B1A7D002A5BD093F8203060
:105A0000002BF0D102240C23384A897803FB0423AD
:105A10004FEAD1184FEA081501F07F092A4419729C
:105A20004A44384682F87840FFF738FF47F6084383
:105A30002F4A3048A2F86A30A3B2A2F864304FF47B
:105A4000407304F100410139A2F86CA020F8113034
:105A50000023022E20F8113045EA09033ED143F419
:105A600085439BB2A2F86830012303FA04F4A4B280
:105A700084F4FF755D40A2F84650D58E2C43D48641
:105A8000B8F1000F01D1022E01D020F811303846B4
:105A9000FFF7DEFE0120BDE8F087144B93F82C20C1
:105AA00052B193F838204AB193F8442042B11B7D9B
:105AB000002B98D10124A6E70324A4E70424A2E73D
:105AC0000524A0E706240C22084B02FB0430007AD0
:105AD000002898D001340A2CF7D184E7032E0CBF9C
