:020000021000EC
:1000000000FE072005530100755101000153010056
:10001000015301000153010001530100015301008C
:10002000000000000000000000000000015301007B
:1000300001530100000000000153010001530100C1
:1000400000000000000000000000000000000000B0
:1000500000000000000000000000000000000000A0
:100060000000000000000000000000000000000090
:100070000000000000000000000000000000000080
:100080000000000000000000000000000000000070
:100090000000000000000000000000000000000060
:1000A0000000000000000000000000000000000050
:1000B0000000000000000000000000000000000040
:1000C0000000000000000000000000000000000030
:1000D0000000000000000000000000000000000020
:1000E0000000000000000000000000000000000010
:1000F0000000000000000000000000000000000000
:1001000000000000000000000000000000000000EF
:1001100000000000000000000000000000000000DF
:1001200000000000000000000000000000000000CF
:1001300000000000000000000000000000000000BF
:1001400000000000000000000000000000000000AF
:10015000000000000000000000000000000000009F
:10016000000000000000000000000000000000008F
:10017000000000000000000000000000000000007F
:10018000000000000000000000000000000000006F
:10019000000000000000000000000000000000005F
:1001A000000000000000000000000000000000004F
:1001B000000000000000000000000000000000003F
:1001C00010B5054C237833B9044B13B1044800E053
:1001D00000BF0123237010BD80110020000000002B
:1001E000A8C6020008B5034B1BB10349034800E051
:1001F00000BF08BD0000000084110020A8C6020056
:100200007047FFFF1FB54FF41651114807F045F92D
:100210000F4807F02BFA0028FAD00E4800F022F819
:10022000FF2804D10C490A4806F054FFFEE700F00D
:1002300015F8014601A806F0CFFF01A9044806F011
:100240003FFF01A806F07DFF05B05DF804FB00BF8D
:10025000803F00209C1100207C7002000048704705
:100260008570020008B500F07DF8014B187808BDD4
:10027000081200204CF250310022024BC3E9001258
:10028000704700BF9C11002000207047F0B54FF070
:10029000FF330025012785B0436005700572477262
:1002A000C0E90355456104460EF0E1FF082304AEA2
:1002B00006F8013D2946304605F052F9002803DAD8
:1002C0003946304605F04CF900250E4BDFED0E0A9D
:1002D000B2EE040A9DF80F2000932946C3B201959F
:1002E0000A4805F079FA2A460C21084805F0ACFBCB
:1002F000064805F0F9FA054805F01DFB204605B053
:10030000F0BD00BF9D030100000048420C12002018
:1003100038B5114B05461B781BB100F0BDFB00F052
:1003200097FC0E4CA06810B103685B699847206881
:1003300010B103685B699847606810B103685B6936
:10034000984710F065FD2B7A2BB1054805F062FB4C
:1003500000232B726B7238BD09120020441200205A
:100360000C12002010B50A4CD4E88F3FDB070CD4E8
:1003700020460CF093F940B10648FFF787FF20466E
:100380000CF0A8F9044806F0E9FF024810BD00BFD0
:10039000A411002078120020DD03010008B5FFF74A
:1003A000E1FFBDE80840FFF7B3BFFFFFF8B5002449
:1003B00005462746084E56F8240020B103685B68BE
:1003C000984746F824700134032CF4D1E86808B14A
:1003D0000CF084F92846F8BD441200200148FFF7CC
:1003E000E5BF00BF78120020036870B5044663B112
:1003F000436A45691E1DAE4204D955F8040B0CF042
:100400006DF9F8E720680CF069F9204670BD10B569
:100410000446FFF7E9FF204610BDF8B5002303604E
:10042000C0E90233C0E90433C0E90633C0E9083348
:1004300008230446436020200CF012F96568064644
:10044000013D6D0800EB850720604FF400700CF053
:1004500007F900F5007346F82500E060C4E90703DA
:10046000A060A0616761236167622046F8BDFFFF5D
:1004700008B50C490C4806F0E1FD0C490C4806F0A3
:10048000DDFD0C490C4806F0D9FD0C490C4806F07E
:10049000D5FD0C48FFF7C1FFBDE808400A4804F04D
:1004A000ABBF00BF8B700200C0110020987002002B
:1004B000D8110020A6700200A8110020B27002001E
:1004C000F0110020501200200C12002008B5034843
:1004D00005F084FA0248FFF79AFF08BD0C120020CD
:1004E0005012002070470021031F00F1680243F8FA
:1004F000041F9342FBD1704710B50A4CD4E88F3FDC
:10050000DB070CD420460CF0C9F840B10648FFF7D1
:10051000EAFF20460CF0DEF8044806F01FFF024810
:1005200010BD00BFB4130020B8130020E504010083
:10053000A1F16400152805D9A1F1C800152888BFCC
:100540004FF0FF307047A1F59672042A01D9FFF7EA
:10055000EFBFA1F58B70704710B503461446FFF747
:10056000F2FF002806DB53F820302BB120469847D5
:10057000012010BD0020FCE71846FAE710B504463C
:1005800023698068103B984205D000F0C7FBA36840
:100590001033A36010BD00F0C1FBE0680CF09EF8C2
:1005A00063691A1D5B68626103F50072E360226192
:1005B000EFE7036870B5044663B1436A45691E1DE1
:1005C000AE4204D955F8040B0CF088F8F8E720681F
:1005D0000CF084F8204670BDF8B500230360C0E934
:1005E0000233C0E90433C0E90633C0E90833082305
:1005F0000446436020200CF033F865680646013D50
:100600006D0800EB850720604FF400700CF028F8AF
:1006100000F5007346F82500E060C4E90703A06018
:10062000A0616761236167622046F8BDC368CA683C
:100630009B1A9B105A1ED0E900301B1A1B1103EBAA
:10064000421388680A68801A03EB201070470A6812
:1006500002604A6842608A688260CA68C260704705
:100660007FB50E461249054601F11000FFF7DEFF87
:100670000446A8B10E496846FFF7E9FF00996846AD
:1006800000F030FB32462946684600F04EFC09482F
:10069000FFF774FF684600F041FB012004B070BD15
:1006A00001463246284616F075F82046F6E700BFA8
:1006B0007C140020741400202DE9F0430446236AC2
:1006C0008069103B984285B00E4618D000F00AFBB6
:1006D000A3691033A36104F118016846FFF7B7FF5F
:1006E000DDE900239A4201BF039B53F8043C03F564
:1006F000007300930098103805B0BDE8F083626A7B
:1007000020686368111AA3EBA101012927D8616948
:10071000571ABF1001377D1CB3EB450F39D95D1B4C
:100720006D0800EB8505131DA942A3EB010229D931
:10073000994202D0284615F0CBFF2B686561E36033
:1007400003F50073236107F18043013B05EB83024E
:1007500055F823306262E36103F5007323624FF4BE
:100760000070656A0BF07CFF68603146A06900F09C
:10077000B9FA636A1A1D5B68626203F50072E3618D
:100780002262A7E799424FEA8700D6D0801A284410
:10079000D1E7002B14BF98464FF00108023398446C
:1007A000B8F1804F01D30CF035FB4FEA88000BF015
:1007B00057FF626A6169A8EB050504326D088A4239
:1007C000814600EB850503D0521A284615F080FFBC
:1007D00020680BF083FFC4E90098AEE730B50D4602
:1007E000044685B0684600F073FA2A4621466846FA
:1007F00000F04BFB30B90024684600F08FFA204629
:1008000005B030BD684600F0A5FA04460028F2D0D5
:1008100069460248FFF750FFEEE700BF9C14002036
:1008200038B5054600F096FA044618B12946024844
:10083000FFF742FF204638BD4C14002038B505466E
:1008400000F088FA044618B129460248FFF734FF41
:10085000204638BD241400201FB50A49044601F182
:100860001000FFF7E3FE58B106496846FFF7EFFEB8
:100870000099204600F058FA0348FFF77FFE012058
:1008800004B010BDA41400209C1400207FB56D4658
:100890000C46064601462846FFF7D9FE94E80F00AD
:1008A00086E80F0095E80F0084E80F0004B070BDE3
:1008B00038B505460C4608300831FFF7E7FF04F16C
:1008C000180105F11800FFF7E1FF2B6822682A6084
:1008D000236062686B686A60636038BD38B504463F
:1008E0000D46AC4204D0204600F018FA1034F8E768
:1008F00038BD70B506460D46C4680434EB68A342A3
:1009000006D954F8040B00F50071FFF7E7FFF5E78F
:10091000F2683068934207D0B168FFF7DFFFD5E98E
:100920000010FFF7DBFF70BD2968FAE7F0B595B05E
:100930006C46074600F108012046FFF788FE07F1E4
:100940001805214608A8FFF782FE294604A8FFF7EC
:100950007EFE08A90CA8FFF77AFE04A910A8FFF7ED
:1009600076FE10A90CA8FFF7C4FF039E7F6A043629
:100970000437B74204D956F8040B0BF0AFFEF8E782
:1009800094E80F0085E80F0015B0F0BD10B50446DF
:1009900090B000F108016846FFF759FE04F1180114
:1009A00004A8FFF754FE694608A8FFF750FE04A903
:1009B0000CA8FFF74CFE0CA908A8FFF79AFF2046E9
:1009C000FFF7F7FD204610B010BDFFFF00B58BB05C
:1009D0006846FFF701FE69460548FFF769FF68466C
:1009E000FFF7A4FF6846FFF7D1FF0BB05DF804FBEB
:1009F0009C14002000B58BB06846FFF7EDFD6946FA
:100A00000548FFF755FF6846FFF790FF6846FFF778
:100A1000BDFF0BB05DF804FB7414002008B5064858
:100A2000FFF7DAFD0548FFF7D7FD0548FFF7D4FDCE
:100A30000448FFF7D1FD08BD741400209C14002069
:100A40004C1400202414002008B50648FFF79EFF30
:100A50000548FFF79BFF0548FFF798FF0448FFF79D
:100A600095FF08BD241400204C1400209C14002085
:100A7000741400207047FFFF014800F04FB900BF19
:100A8000C814002010B50446C06910B1002100F060
:100A900003FD204610BDFFFF10B50A4CD4E88F3F80
:100AA000DB070DD420460BF0F9FD48B14CF2503273
:100AB000054B20461A600BF00DFE044806F04EFC74
:100AC000014810BDD8140020DC140020750A010074
:100AD000F8B50E461446002A54D02C4DD5E88F3F69
:100AE000DB070CD428460BF0D9FD40B1284800F0B4
:100AF000EFF828460BF0EEFD264806F02FFC3046B6
:100B000000F0A2F905463146214800F0DCF915F065
:100B1000010501D00020F8BD1D4800F02DF9064662
:100B200060B11B4800F026F90746194800F01DF98E
:100B300039460246284600F0A7FCE061144800F060
:100B4000E0F8002EE6D0E369002BE3D0DB68032B4E
:100B500009D1FFF7D1FCE16901B109692246FFF72C
:100B6000FBFC0420D7E7022BD4D1FFF7C5FCE169D9
:100B700001B109692246FFF7EFFC002814BF0320EA
:100B80000220C8E76FF00A00C5E700BFC4140020C8
:100B9000C8140020790A0100F0B58FB0064601A8FC
:100BA0000D46012400F094F872B601A8FFF754FE38
:100BB000074608B9FFF70AFF62B6FFB101A800F0C7
:100BC0001BF9022827D1FDB91C22294605A80C953E
:100BD00015F0E0FD05A800F04BFCC823CDE9093372
:100BE000012305AA01A930468DF83430FFF770FFC4
:100BF000044605A8FFF746FF022CD5D101A800F056
:100C00008DF820460FB0F0BD2A4601A93046FFF707
:100C10005FFF0446F0E701A800F0EEF828B972B6CD
:100C200001A8FFF7FDFD62B6BEE701A800F0E4F8F9
:100C3000012804D172B601A8FFF700FEF3E701A86E
:100C400000F0DAF80428AFD001A800F0D5F8ABE73F
:100C500038B5044600F0AAF958B100F09FF90546EE
:100C600038B900F045FA29462046BDE83840FFF77C
:100C700093BF38BD70B50024B1F5C86F05460E4668
:100C800084800CD208460BF09BFFAE802860324671
:100C9000214615F07FFD2B68A888AB6070BD034925
:100CA000034806F017FA2046F8E700BF2A71020051
:100CB000803F00200B46002010B55C1AA4B2A2426F
:100CC00004D913F8014B204480B2F6E710BDFFFFB2
:100CD0000022C0E900228260014A128882817047A6
:100CE000E214002000230A6802608A8882808A68F1
:100CF0008260CA88C2808A898281C1E900338B60A0
:100D0000704710B50446006820B10BF0B5FD002314
:100D10002360A3800023A360E38010BD10B50446C8
:100D2000FFF7EFFF204610BD884238B505460C4658
:100D30000FD0FFF7E6FF23682B60A388AB80A36882
:100D4000AB60E388EB80A389AB810023C4E9003367
:100D5000A36038BD036833B1838823B18068003055
:100D600018BF0120704718467047838900680C330C
:100D700018447047C088704738B5838904461BB350
:100D80000068037B012B01D0002038BD144B1B8869
:100D9000C35C022BF8D1437B124D817B2A8803EB85
:100DA00001239BB29A42EFD10F490F3016F08EF813
:100DB00060B90E4B22681B880D49D35C0988E3801B
:100DC000525C03EB0223E3800120DEE720682A88DF
:100DD00008490F3016F07AF80028EAD0D4E700BFAF
:100DE000E4140020E014002018710200E614002032
:100DF000E81400202171020008B583681BB118783F
:100E000000F00F0008BD0349034806F063F90A200B
:100E1000F8E700BFBE700200803F002010B5044616
:100E2000FFF7EAFF022803D1064B1B88A38110BD00
:100E30000023A268A3819378D27843EA0223E38057
:100E4000F5E700BFE214002083685878704738B592
:100E50000024CD888C71CC71FFF72CFF2B1A5842DF
:100E6000584138BD8B8810B50C2B01D0002010BD27
:100E700040F234634A889A42F8D80C3292B2FFF7B3
:100E8000E6FF0028F2D04888F1E770B505460E4627
:100E9000FFF7E8FF84B20CB9002070BD0C3428467F
:100EA000A4B2FFF72EFF21462846FFF7E3FE844257
:100EB000F2D122463146286815F094FB2846FFF708
:100EC000ADFF0120E9E70268F8B504460E468388C5
:100ED0005AB953B90A68898802608260F2888180B1
:100EE000C280C6E90033B360F8BDB26855882B44B0
:100EF0009DB228460BF064FE0746A288216815F0D3
:100F000071FBB3683168A0885A880C31384415F0F9
:100F100069FB00233046E380FFF7F3FE2046FFF72E
:100F2000F0FE2760A580A760DEE710B50446A38821
:100F30000846934208D81A46216815F053FB20460C
:100F4000FFF7DFFE012010BD0020FCE710B50D4CBF
:100F5000204615F08DFF0C4B80B218800B4B0630ED
:100F60001880204615F084FF094B80B200F10F0273
:100F70001A80084B00F110021A80074B11301880BC
:100F800010BD00BF18710200E0140020E214002020
:100F9000E4140020E6140020E8140020024B187826
:100FA00008B901221A7070479D210020014B187862
:100FB000704700BF9C21002007B540F603010DF1EA
:100FC0000702002002F02EF89DF80700431E584249
:100FD000584103B05DF804FB10B572B64FF4C86118
:100FE0000448FFF73DFB044608B9FFF703FD62B66E
:100FF000204610BD5C1B0020F0B585B0FFF7DCFF7C
:101000000446FFF7E9FF0CB9002843D041F28834C9
:101010000DF10F0240F60601002002F003F89DF8E2
:101020000F50012D3AD00121642004F06FF8013CEB
:10103000EED1052418E041F2883704243578012DDB
:1010400026D0022D0ABF0125002506240121642097
:1010500004F05CF8013F01D0002DEFD00022954252
:1010600008BF07241D4B1A7001224FF48271002023
:1010700001F0EAFF4CB972B64FF4C8611848FFF7A7
:10108000ADFB62B6002818BF0824204605B0F0BDAD
:101090000024DBE7114B03241870F6E700224FF41D
:1010A0008271104601F0D0FF2946642004F02EF82A
:1010B0004FF4C86200210A4815F06CFB0323094E67
:1010C000074A337007230849009308484FF4C86360
:1010D00001F0F6F80028AED00424C5E79D210020D9
:1010E0001C150020F00600205C1B0020EC140020E2
:1010F00010B50446FFF780FF032804D01CB1082870
:1011000001D00028F6D010BD282208B5002115F026
:1011100041FB014A026008BDA09C0200044B036031
:101120000023C0E90133C0E903334361704700BFC6
:1011300080710200034B03600023C0E90133C360E8
:10114000704700BF18820200044B03600023C0E90F
:101150000133C0E903334361704700BF0C8D0200C7
:10116000024B03600023C0E9013370479482020000
:10117000034B03600023C0E90133C0E90333704728
:10118000B88D0200034B03600023C0E90133C36044
:10119000704700BF60850200034B03600023C0E975
:1011A0000133C360704700BF24940200024B036008
:1011B0000023C0E9013370470C830200034B036036
:1011C0000023C0E90133C360704700BF30900200C4
:1011D000044B03600023C0E90133C0E903334361DA
:1011E000704700BFB4840200034B03600023C0E9D2
:1011F0000133C360704700BFA8930200024B036035
:101200000023C0E901337047DC8102002C2208B5BD
:10121000002115F0BFFA014A026008BDA08B020050
:1012200030B50446034D0FCD0FC495E80F0084E898
:101230000F0030BD589C0200044B03600023C0E93E
:101240000133C0E903334361704700BFF48A0200F1
:10125000024B03600023C0E901337047D0820200D3
:10126000342208B5002115F095FA014A026008BD44
:10127000648E020030B50446044D0FCD0FC40FCD6F
:101280000FC495E8030084E8030030BD789C020099
:10129000044B03600023C0E90133C0E90333436119
:1012A000704700BF74960200024B03600023C0E940
:1012B0000133704778840200044B03600023C0E9C7
:1012C0000133C0E90333C0E905337047CC92020013
:1012D000024B03600023C0E90133704764870200BA
:1012E000044B03600023C0E90133C0E90333C0E9C4
:1012F0000533704798950200024B03600023C0E954
:101300000133704784830200034B03600023C0E96C
:101310000133C360704700BF58910200034B036064
:101320000023C0E90133C0E903337047FC830200A6
:10133000034B03600023C0E90133C360704700BF63
:1013400050920200024B03600023C0E90133704752
:10135000C0830200034B03600023C0E90133C36074
:10136000704700BFD4910200282208B5002115F073
:1013700011FA014A026008BD3C890200044B036077
:101380000023C0E90133C0E90333C0E905337047E6
:10139000DC850200034B03600023C0E90133C36016
:1013A000704700BFA0940200034B03600023C0E914
:1013B0000133C360704700BFE8860200034B03603F
:1013C0000023C0E90133C360704700BF1C950200D1
:1013D000024B03600023C0E90133704748830200D9
:1013E000034B03600023C0E90133C0E903337047B6
:1013F000AC900200034B03600023C0E90133C0E955
:1014000003337047F47F0200034B03600023C0E9FD
:101410000133C360704700BF788A0200034B03604A
:101420000023C0E90133C0E9033370477874020038
:10143000034B03600023C0E90133C360704700BF62
:10144000F4740200034B03600023C0E90133C3605E
:10145000704700BF70750200044B03600023C0E9B1
:101460000133C0E903334361704700BFEC750200EC
:10147000044B03600023C0E90133C0E90333C0E932
:10148000053370473C74020013460A460146014882
:1014900012F06ABE3C74020008B570B10268074BD6
:1014A0009A4206D0064B074A40F2C371064803F041
:1014B00025FEBDE8084013F0ADBA08BD3C7402003B
:1014C000987F020066710200019E020046F2A81396
:1014D00070B503800A238370484B0446D3E900218A
:1014E0004A40C2709A684FF4003102710822DB68EA
:1014F000C0E90312012243718275002380F83D2068
:1015000080F83E2040F2011200F10801416300F131
:10151000200101633A490381816300F5D661C0F877
:10152000901000F5D461C0F8941000F1A00103758B
:101530004375C0E90633C0F8981080F83C3080F855
:101540003F3080F8403080F84130C0E91133E0642A
:10155000A0F8502000F1980242654FF4C062826505
:10156000DF2280F85C200C220266264A264E274D98
:10157000426600F13002C0E91A2300F190030367CC
:10158000324640F20E21284601F0C4FD324640F2B8
:101590000B21284601F0BEFD324640F205412846A7
:1015A00001F0B8FD324640F20641284601F0B2FD96
:1015B00032464FF4E061284601F0ACFD324640F27D
:1015C0000171284601F0A6FD324640F2027128461C
:1015D00001F0A0FD324640F20371284601F09AFD69
:1015E000324640F20471284601F094FD324640F242
:1015F0000571284601F08EFD204670BD90810001E6
:1016000020BD02004D16010000000117A871002046
:1016100008B50A4B1B681B020ED5094803F054F9A4
:10162000084A0949136801F1380043F001031360C7
:10163000BDE8084003F0ACB908BD00BF2840114028
:101640001422002000401140DC210020036810B566
:10165000002B2ED103792BB9164B1B684BB3BDE879
:1016600010401847012B01D1134BF6E7022B01D193
:10167000124BF2E7032B1CD1D0E90234980703D5B3
:101680000F4B1B6803B19847A10206D501220D4BF1
:101690001A700D4B1B6803B19847620303D50B4BBF
:1016A0001B6803B19847230203D5BDE81040FFF73C
:1016B000AFBF10BD6C2800207428002070280020C7
:1016C0007828002060280020682800206428002056
:1016D0000148FFF7FBBE00BFA0210020704710B5F6
:1016E0000446D0210BF0CCF9204610BD014B024A34
:1016F0001A6070477C280020BCB6020003681B7883
:10170000092B0BD80A4A52F823303BB11A7F2AB171
:101710000279012A03D1032283F82E207047022A7E
:1017200001D10122F8E7032AF8D10222F4E700BF31
:10173000943A002003681B78022B0BD80A4A52F80F
:1017400023303BB11A7F2AB10279012A03D1032247
:1017500083F82E207047022A01D10122F8E7032ADC
:10176000F8D10222F4E700BF6C3A002010B5037FE5
:10177000044633B1437F3BB1D0F81C310BB13C3050
:1017800098470023237710BDD0F83031002BF8D0D4
:10179000A430F5E7036801211B6B184710B40368F8
:1017A0009C6B0123A4465DF8044B604707B5037F9B
:1017B0008DF8071063B1437FC3B190F82C309BB113
:1017C000D0F83834FE2B07D9012380F82D30436040
:1017D000002003B05DF804FB9DF80710C218013328
:1017E00082F83312C0F838340120F2E7D0F82831FB
:1017F000002BF9D001220DF10701A4309847F3E73F
:10180000C0F840147047C0F84414704790F83C3456
:10181000D0F83404C01A7047024690F83C34D0F82F
:1018200034148B423FBFC118013391F8320382F860
:101830003C3428BF4FF0FF30704790F83C34D0F86C
:10184000342493423ABFC01890F832034FF0FF306F
:10185000704790F82E30022B03D090F82E30032BD7
:10186000F7D1704738B5037F04460D4633B1437F47
:1018700023B1D0F81C310BB13C309847637F2BB1BA
:1018800015F0FF0510D10C4BC4F88030237F53B105
:10189000D4F800313BB104F17C0104F13C009847DD
:1018A00008B10023237738BD012D01D1034BEBE7AD
:1018B000022DEBD1024BE7E7A0860100801A06005B
:1018C00040420F00F8B5037F04460D46164693B11B
:1018D000437F4BB18F18BD420BD0236815F8011B15
:1018E0001B6820469847F6E7D0F828310BB1A430A2
:1018F00098473046F8BD1E46FBE717B4D0F82431B0
:1019000001914BB1016900F59A74019A2144A43008
:1019100003B05DF8044B1847012003B05DF8044B99
:101920007047FFFF7FB54368019303681A78022A66
:1019300046D81A783B4B53F82240002C40D0237FE6
:10194000002B3DD0037A012B03D1032384F82E30E2
:1019500036E0022B1DD1012384F82E30019E04F5C0
:101960009A753246294604F2323014F03BFE0021CB
:10197000C4F83464216184F83C14FF22284614F032
:1019800009FFD4F84034DBB1019804B0BDE87040E1
:101990001847032B01D10223D8E7042B12D184F876
:1019A0002E302369019A1344FE2B2DD801212046A5
:1019B000FFF7A3FF0290029B13B923690133236150
:1019C00004B070BD052B09D184F82E30D4F844340E
:1019D000002BF5D004B0BDE870401847062B18D195
:1019E000042384F82E302369019A1344FE2B0BD86C
:1019F00001992046FFF781FF0390039B002BDFD165
:101A0000019A23691344DAE700212046FFF775FFA6
:101A1000D6E7072B01D10523D6E7082BD0D1062323
:101A200094E700BF6C3A0020F0B5C0E9051200252C
:101A30004FF47A76012280F825309DF81430214F3A
:101A400080F826309DF81830C0E90156076005611E
:101A50000577427780F82450866280F82C5080F811
:101A60002D50C0F80051C0F80451C0F80851C0F81A
:101A70000C51C0F81051C0F81451C0F81851C0F8FA
:101A80001C51C0F82051C0F82451C0F82851C0F8AA
:101A90002C51C0F83051C0F83454C0F8385480F894
:101AA0003D34DF2380F88A3080F88B3080F88C302A
:101AB00080F88D3080F8E43080F8E53080F8E6304A
:101AC000F0BD00BFCCB602002DE9FF4143690446DA
:101AD000002B03DA002004B0BDE8F0818269002AFF
:101AE000F8DB8B42F6DA8A42F4DAD9B2022268468F
:101AF00002AE06F02BF830460322217E06F026F8CF
:101B0000002000253DF810108B1109B336F8152080
:101B1000F2B183EA9217FF061AD181EA0207FF07A2
:101B200016D403F01F0312F00100236217D1022B19
:101B3000D0DCA3691D4D84F8240035F833101C4A0D
:101B40001C4801F0E7FA6369194A35F8331028E0B8
:101B50000135032DD9D101300328D2D1BAE7092BA1
:101B6000B8DC12F4F04F4FF001050CBF4FF080626B
:101B70004FF0A06211F4F04F0CBF4FF080684FF0AF
:101B8000A068A3690C4F094E84F8245036F833102E
:101B90003A43084801F0BEFA636948EA070236F89A
:101BA0003310044801F0B6FA012094E748B9020066
:101BB00010040107A8710020100001007FB5012367
:101BC0000377874B04461968C908FFF77DFF237F19
:101BD00018402077002800F0AA80627F94F8243013
:101BE000002A00F0A180226A002B78D07D4B43F8B8
:101BF00022407D4BC4F800317C4BC4F804317C4B4F
:101C0000C4F808317B4BC4F80C317B4BC4F810315D
:101C10007A4BC4F814317A4BC4F81831794BC4F8B4
:101C20001C3104F12F03C4F8A030774B774AC4F875
:101C300098302263012284F8342084F835201B2256
:101C400084F839201A2284F838200222002384F8EC
:101C50003720226A84F82F3084F87C206C4A84F87C
:101C60003630C4F8802094F82520012A58D1694ADA
:101C7000C4F88020C4F8843094F82630002B14BFB8
:101C80000223012384F888300023C4E9243304F1BB
:101C90007C03C4F89C300C2384F88930637F002BCC
:101CA00000F08D80236A04F13C058DF80C3094F827
:101CB000243004F17C0601950296002B7AD003F0C3
:101CC0002BFF062101AA04F051FA237F3146184068
:101CD00020772846D4F80031984730BB27E04E4B98
:101CE00043F822404D4BC4F800314D4BC4F8043149
:101CF0004C4BC4F808314C4BC4F80C314B4BC4F876
:101D000010314B4BC4F814314A4BC4F818314A4BCC
:101D1000C4F81C3104F13503C4F8A030474B85E703
:101D2000022AA7D1464AA3E71BB10023237704B0B8
:101D300070BD394B226A43F82240424BC4F820312F
:101D4000414BC4F82431414BC4F82831404BC4F80E
:101D50002C31404BC4F83031236A84F8D8302C4BF6
:101D6000C4F8DC3094F82530012B1FD1294BC4F87E
:101D7000DC30B4F8F83040F60C42A4F8E03094F8C7
:101D80002630A4F8E820002B14BF0223012384F896
:101D9000E2300023304A84F8E330C4F8EC2004F148
:101DA000D80284F8EA30C4E93C2377E7022BE0D17B
:101DB000234BDCE703F0B0FE01AA052183E704F121
:101DC000D80503F0A9FE07212A4604F0CFF9237FA6
:101DD000294618402077D4F8203104F1A4007BE78D
:101DE00018BD0200943A0020C52A0100D52901003F
:101DF000E9280100E9270100112801001D28010040
:101E00002D28010045280100FD1601000E00FF0FDE
:101E1000A0860100801A06006C3A0020053D0100F2
:101E2000E53A0100193B0100153E01006D39010042
:101E30007939010089390100613E0100351701003F
:101E400040420F00B1330100BD310100F531010006
:101E500029320100393201002519010000220368EE
:101E60004277A0F8F810DB6918470022A0F8F810B4
:101E70004277FFF7F3BF2DE9F8431E46037F044680
:101E80009146089D03B3D0F810318BB100F13C08A6
:101E900090F888204046984750B9D4F804713FB173
:101EA0009DF82430324683F0010349464046B84746
:101EB000002384F82E303DB194F82E3023B9012050
:101EC000013D05F0A3FAF6E794F82E30012B0CBF84
:101ED00030460020BDE8F8832DE9F8439946037F9A
:101EE00004469046089D8BB3D0F81031F3B100F151
:101EF0003C0790F888203846984750B9D4F80861D4
:101F00003EB19DF824304A4683F0010341463846ED
:101F1000B047002384F82E30D0B94DB194F82E305C
:101F200033B90120013D05F071FAF6E70120F0E731
:101F300094F82D3073B994F82E306BB194F82E309C
:101F4000032B14BF00200220BDE8F8830620FBE726
:101F50000420F9E70120F7E70520F5E737B590F809
:101F6000FC5090F838340191826A2946009200F2C0
:101F700033220446FFF7B0FF002384F82C3003B06F
:101F800030BD037F4BB10023012280F82D30C0F813
:101F9000FC1080F82C20C0F838347047FFF7F1BFF0
:101FA0002DE9F3411646027F04460F4698469DF8F8
:101FB0002050002A31D0B5B10368DB6A9847032D61
:101FC00028BF0325013DEDB2FF2D236807D0E900AE
:101FD00028FA01F11B68C9B220469847F2E71B6B4B
:101FE0000021204698479DF82430FF2E28BFFF2669
:101FF000003318BF01230193A36A04F23232009325
:102000003946F3B22046FFF736FF0023C4F8340404
:1020100084F83C3402B0BDE8F0811046FAE707B519
:10202000019300230093FFF7BBFF03B05DF804FBAF
:1020300013B500240B222346CDE900440C210E48A1
:10204000FFF7F2FC2346CDE90044252226210B4868
:10205000FFF7EAFC2346CDE900442722282108485F
:10206000FFF7E2FCCDE900442346602261210548E8
:10207000FFF7DAFC02B010BD4C290020942D00209F
:10208000DC3100202436002008B505F0ABF9002033
:1020900008BDFFFF08B51A494FF4C06005F0A6F966
:1020A00003200023174A9178137060F302019170A6
:1020B0005178137101F0F80163F306115170124960
:1020C000537193710B700B72C1E90533CB604FF6FE
:1020D000037301200B82DF23D07048600B48CA6174
:1020E0008B7402F027FE50B9084802F033FD30B976
:1020F000064802F08DFD10B90222054BDA7008BDCA
:1021000000000101DC3A0020A03A0020C03A002083
:10211000D43C002008B5FFF7BDFFBDE80840002112
:10212000232005F0B1B8FFFF30B5836A85B00446BF
:102130008C4601ADABB193E8070085E80700626803
:102140001846117883F804C0E26A19609A60636ADD
:102150009847A36A1BB195E8070083E8070005B01C
:1021600030BD2B46EBE700BFF8B586681D463378D7
:102170009DF818C013F0400340F08280C0E90312BC
:102180000F46416880F820C00446C0E90533C561A8
:102190004869F0B1BCF10F0FA5615DD90226436813
:1021A0001968CB7866F30513CB7002268B7866F33B
:1021B00083038B70ABB2CB818A60002A6ED08368B8
:1021C00000685B689847002845D1616894F820C092
:1021D000A6680B6903B3BCF10F0F656146D90220F5
:1021E0005A681168CA7860F30512CA700220CA786A
:1021F000ADB260F38302CD81CA704F60002F54D01E
:1022000032789D686FF3451218686B683270984792
:1022100008BBA66894F820C0F27A338ABCF10F0F8D
:10222000D2B29BB22ED90CF1010C22F040024FEA3F
:102230009C0CACF1050C42F02002002023F47063EA
:1022400043EA0C2C1FFA8CFCF272A6F810C033780B
:1022500043F060033370F8BDBCF1070F1AD8416832
:102260000968CE7863F30516CE709EE7BCF1070FC0
:1022700012D85A681168CA786FF30512CA70B5E7A8
:102280000820F8BDBCF1070F94BF42F0400202F0F5
:102290009F02D2E7012682E70120A1E78B7862F353
:1022A00083038B70044B8B6089E7D2B267F38302A0
:1022B000CA70024A4A60A3E7E43A0020E83A0020E4
:1022C00010B49DF8044001945DF8044BFFF74CBF37
:1022D00010B4EFF30383103B214A5BB203F1C0015A
:1022E00052F821001F4C6FF3104042F8210054F8BF
:1022F0002330D3E906218A421BD0186938B393F8FA
:1023000020400F2C0BD99968496840F82210D969F0
:1023100001328A429A610CD05DF8044B7047072C59
:1023200018D8996809798154D96901328A429A6129
:10233000F2D101225B680C4993F903305DF8044B3C
:1023400003F01F0082405B0941F823207047986822
:102350004068DDE79C68A48820F81240D8E700BFF9
:1023600000600040483B002000E100E0F0B5EFF3E2
:102370000383103B30495BB203F1C00251F82200E5
:102380002E4C6FF3104041F8220054F82330586867
:10239000026A002A31D092F801C0DC69BCF1010F59
:1023A0005A6918D0944210D0D96849B393F82000E4
:1023B0000F280BD8072898BF895C98688ABF31F826
:1023C00012100171818001325A61F0BD986851F894
:1023D00022104160F7E704F1FF3E724513D0016916
:1023E0000029DFD090F90300154D00F01F010CFA11
:1023F00001F1400945F82010D4E75A69DC69D1E7BA
:1024000098684160DFE790F903E00EF1C0064FEAFB
:102410005E1051F8267080000EF01F0E00F1604033
:102420000CFA0EF500F561406FF3104741F8267085
:10243000C0F880510560B5E700600040483B0020CF
:1024400000E100E010B4EFF30383103B324A5BB2CB
:1024500003F1C00152F82100304C6FF3104042F8F4
:10246000210054F823008268D278920706D542688A
:10247000527A012A02D05DF8044B70470122284CA1
:10248000590903F01F03203102FA03F344F8213005
:10249000BFF34F8FBFF36F8F436893F90230002B68
:1024A0002FDB590903F01F0302FA03F3203144F82C
:1024B0002130BFF34F8FBFF36F8FD0E90114237822
:1024C00091F902106FF386130029237014DB124C6C
:1024D00001F1C00C4B0901F01F018A409B0054F828
:1024E0002C1003F1604303F561436FF3104144F88E
:1024F0002C10C3F880211A6001215DF8044BFFF70E
:1025000013BE8268012113785DF8044B6FF38613C4
:102510001370FFF709BE00BF00600040483B002079
:1025200000E100E070B5EFF30384324B103C64B27D
:1025300053F82460736893F90230002B42DB0120CA
:102540002D495A0903F01F03203200FA03F341F822
:102550002230BFF34F8FBFF36F8FD6E9012392F97B
:1025600002101A7800296FF386121A7015DB234DBA
:1025700001F1C00C4A0901F01F0100FA01F19200BB
:1025800055F82C0002F1604202F561426FF31040F1
:1025900045F82C00C2F8801111600021DA78D9705A
:1025A000D5B2120721D4EB0712D405F01405142D6F
:1025B00016D0124BC03453F824206FF3104243F866
:1025C000242070BDB3681A786FF386121A70E4E79E
:1025D0000421304605F01405FFF7A6FD142DE8D1BF
:1025E00008213046FFF7A0FDE3E705213046FFF75D
:1025F0009BFDD8E7483B002000E100E00060004080
:1026000030B5D0F83C5285B0DDB1D0F84032044648
:102610008C46C3B193E807000DF1100E0EE90700D8
:102620009CE8070083E80700D4F8442218469A6023
:10263000A847D4F8403223B104AA12E9070083E87E
:10264000070005B030BD0B46EEE700BFF0B585B022
:10265000EFF303840022454B103C64B253F824602E
:10266000CDE90122336A0392196948F27F3062F39F
:10267000000119619A6BDD6B02F00502D143054040
:102680009963E943D00742EA0545D96311D508218A
:10269000ADF804101969C9054CBF996A996902918E
:1026A0001968262952D0196C21F0040141F001016A
:1026B00019642F4F2F4077BB530712D4736A1D4301
:1026C000B37F75621BB1BDF80430002B49D1294B93
:1026D000C03453F824206FF3104243F8242005B08F
:1026E000F0BD96F82830012BE8D0736886F8287082
:1026F0005B68C6E90C779A681868F7621369B76374
:102700009847BDF8043043F02003ADF80430336A35
:10271000C3F8B071D2E7012200271A61736886F806
:1027200028705A68BDF80430C6E90C7743F04003BE
:10273000ADF80430936810681B69F762B763984777
:10274000336A45F40005C3F8B071B7E7D96B01F4FB
:10275000814180290CBF88214FF48471ADF80410A9
:10276000A7E7304601A9FFF74BFFB0E7483B002041
:1027700000007F8000600040002230B585B0CDE9C8
:1027800001220392EFF30384154B103C64B253F81B
:102790002400056AAB6B13F4847F03D08277012297
:1027A000ADF8042013F4047F05D0BDF8042042F0F6
:1027B0000202ADF8042003F44673DB43D0F8442250
:1027C00001A9AB630392FFF71BFF064BC03453F81C
:1027D00024206FF3104243F8242005B030BD00BF21
:1027E000483B002000600040034600224FF0F00C00
:1027F000196910468A7081F80BC093F82AC0D9690C
:102800001A6283F8302083F82CC05962704700BFE9
:102810000346002059601A72704700BF84460020AA
:10282000CCE90E32CCF83410704700BF0346044A9E
:10283000DB6800209B1AB3FA83F35B090B707047C7
:102840004332495300234FF0F00C10B5044602699F
:1028500001689370937082F80BC090F82A00E269C7
:1028600084F82C0062628A69236284F83030E36065
:1028700022B1936810681B6A984721684B691BB1A5
:102880009A681868136A9847EFF31081012383F35D
:1028900010884FF000432068054A04785068E340F0
:1028A00003435360536881F31088002010BD00BFBC
:1028B0000040084003685969A1B190F82D3070B507
:1028C000044603F0FF0563B98A68038C96680868BC
:1028D0002A46A169B0470123E26984F83330C4E98C
:1028E000085270BD704700BF38B590F808C0054663
:1028F000BCF1010F816180F82E30C26147D090F8A1
:102900002AC0002385F82D3085F82F3085F8313026
:1029100085F833302A6295F82D2085F82BC085F88C
:102920002C306B6212B1012385F83130B4212A6852
:102930002B69526999706AB10021526812689970C6
:1029400095F82D40FCB94FF0006111602321B422AD
:1029500099729A7095F830201AB951220020DA72D3
:1029600038BD0022BCF1010F85F8302019D00122BA
:1029700095F829100CF1FF3CD97085F82BC085F82B
:102980002C20002038BD116011495160DEE7002184
:10299000436880F82AC05B0080F8283080F829104E
:1029A000AFE72846FFF786FF95F82A3095F82C20E8
:1029B000012B07D1013295F828102B6995F82BC00F
:1029C000D2B2D7E701322B6995F82BC0D2B2CFE74C
:1029D0001CBD020038B590F808C00546BCF1010FD7
:1029E000816180F82E30C26147D090F82AC0002360
:1029F000012185F82D1085F82F3085F8313085F8C4
:102A000033302A6295F82D2085F82BC085F82C30BC
:102A10006B620AB185F83110B4212A682B695269BA
:102A200099706AB1002152681268997095F82D402A
:102A3000FCB94FF0006111602321B42299729A70A1
:102A400095F830201AB951220020DA7238BD0022E0
:102A5000BCF1010F85F830201BD0012295F8291018
:102A60000CF1FF3CD97085F82BC085F82C20002094
:102A700038BD116012495160DEE70021436880F8DB
:102A80002AC05B0043F0010380F8283080F8291049
:102A9000ADE72846FFF70EFF95F82A3095F82C2071
:102AA000012B07D1013295F828102B6995F82BC01E
:102AB000D2B2D5E701322B6995F82BC0D2B2CDE75F
:102AC0001CBD02002DE9F0470D4600220B788968F5
:102AD00003F58003C0E9005103F58C531B02036129
:102AE000297B04460172E96982B04163296A8263E5
:102AF000AA69C163C2B16E464FF4002E5168053316
:102B00000F6895F90EC003C97B60C7F800E086E83E
:102B10000300019B314683F800C0936810681B686E
:102B20009847002840F0C2806B69BBB159682269A0
:102B300008682668033296F90F60002782606A46AB
:102B4000076003C982E803001146019A16709A686B
:102B5000186813689847002840F0C580EFF3108686
:102B6000012080F310884FF00042644B297822FA4C
:102B700001F15A6822EA01025A605B6886F3108804
:102B800000214FF0F00A4FF0FA094FF0230E2268AF
:102B90002369D2F824805A4E98F800C0997083F8BF
:102BA0000BA098F802A04FEA8C0C0AF0030A83F8F5
:102BB00000A083F8069098F801904CF0200C5FFA82
:102BC0008CFC83F8019083F807C098F805C04D4F3E
:102BD00083F808C098F803C04B4A83F812C098F8ED
:102BE00004C04FEACC0C4CEA000C5FFA8CFC83F872
:102BF00009C083F80AE0597395F80DC095F90F30B4
:102C00004FEA0C1C06EB030E5FFA8CFC8EF800C337
:102C100003F1C00847F823404FEA531E52F82890AA
:102C20004FEA8E0E03F01F030EF1604E00FA03F31D
:102C30000EF5614E61F3104942F82890CEF88031CC
:102C4000CEF8003095F9103006EB030E8EF800C375
:102C500003F1C00847F823404FEA531E52F828906A
:102C60004FEA8E0E03F01F030EF1604E00FA03F3DD
:102C70000EF5614E61F3104942F82890CEF880318C
:102C8000CEF8003095F90E308B4212DA0023184648
:102C90001E4AC4E9083384F82D30E26084F82E30EF
:102CA000A36184F82F30E36184F8303002B0BDE8CE
:102CB000F0871E445D0986F800C3AD0047F8234045
:102CC00003F1C00603F01F03984005F1604352F87A
:102CD000265003F5614361F3104542F82650C3F8CE
:102CE00080011860D2E7AB69002BDFD09A681868C2
:102CF000136A98470028D9D130E700BF0040084048
:102D000000E100E0483B00200060004043324953AE
:102D100070B5856B82B004460B466E463DB395E8B0
:102D2000030086E80300E26B2B7123682A605A696E
:102D300012B194F82D10A1B19B6913B194F82D2014
:102D400052B9636B28469847A36B1BB196E8030002
:102D500083E8030002B070BD9A6818681369984749
:102D6000EFE7936810681B6998472368E4E73546E6
:102D7000D9E700BFEFF30383103B054A5BB2C033D2
:102D800052F823106FF3104142F82310704700BF30
:102D90000060004070B5EFF30383103B634A5BB201
:102DA000C03352F823106FF3104142F82310EFF3B1
:102DB00003835F4A103B5BB252F823402269137BC6
:102DC000C3F30000DB072CD494F82C3094F82A10BD
:102DD000994216D094F82D1009B1022B46D0204606
:102DE000FFF768FD236994F82820DA7094F82B2007
:102DF00094F82C30013A013384F82B2084F82C30DD
:102E000070BD94F8333003F0FF0563BB236ABBBB8E
:102E100094F82E308BB352210123D17284F83030D4
:102E200070BD94F82D30B3B194F831309BB951791D
:102E3000636AA269D15494F82E10D4E90823013AA8
:102E40000133C4E90823A1B1522101232269D172BF
:102E500084F8303070BD002001215423206284F8B2
:102E60002F10D37270BD84F8330070BD5223D3721B
:102E700070BD54222369DA7270BD5423D37270BDC1
:102E800094F82D1041B9616AA069013B405C0131A1
:102E9000C4E90831D07070BD94F8311000292ED0EB
:102EA000216884F831504869002838D089690029A0
:102EB00035D0E069022832D9831EF42090708A68E8
:102EC000086896682946A2699BB2B0472268E36900
:102ED0005269023B916810688E682A4629469BB267
:102EE000B04702200121E3692269023BC4E90803DB
:102EF00084F833100023FF209372D070CBE7517910
:102F0000636AA269D154D4E90832013B0132012B32
:102F1000C4E90832226904D0FF20D070BBE7012B3E
:102F2000E8D12023FF209372D070B4E70060004006
:102F3000483B002010B582B0EFF30383374A103BC3
:102F40005BB252F823000269D37A6FF3C303D372E2
:102F500090F82F30ABBB90F82A1003F0FF0C90F8DC
:102F60002C3099421BD1036A5BB990F82D1090F870
:102F70003040002914BF02210321A4B3D372FFF70C
:102F8000C7FEEFF30383103B254A5BB2C03352F810
:102F900023106FF3104142F8231002B010BDB3B9F3
:102FA000012929D090F829C00021D17282F803C0EC
:102FB00090F82B20013380F82C30531E80F82B30F2
:102FC000DFE7F0230121D372FFF7A2FED9E790F8E3
:102FD0002D4004F0FF016CB1022BE5D190F829C01F
:102FE0004CF0010CE0E7F023D372937803F0CF03A9
:102FF0009370C4E78C46D7E70190FFF75BFC01981C
:1030000090F82A30012B05D190F828C0026990F879
:103010002C30C9E7026990F82C30C3E7483B002008
:10302000006000400B0A10B41B01064C53FA81F1FA
:1030300054F821300020C3F340035DF8044B1370B3
:10304000704700BF000808400123C8B283404AB956
:103050001A040B0A5B0103F1804303F500230020EF
:103060009A6070479AB2F4E738B50488002C4CD0C7
:103070000021436840F20245043303EBC40040F2F0
:10308000034C40F2044E0C460FE062452FD153F83A
:10309000042C02F0B852B2F1807F14BF41F002015B
:1030A00044F002040833834210D01A88AA42ECD1BB
:1030B00053F8042C083302F0B852B2F1807F14BFE9
:1030C00041F0010144F001048342EED1C943CDB285
:1030D000012002F0EBF80E4B012093F8BB241443BF
:1030E0002C4083F8BB44BDE8384002F0AFB87245CD
:1030F000D8D153F8042C02F0B852B2F1807F0CBF43
:1031000044F0040441F00401CCE7FF25E0E700BFF0
:1031100000E0014070B5012684B002AB68460C4661
:1031200015460193ADF80060ADF80C100292FFF760
:103130009BFFEFF3108286F310881D490B681BB9C3
:1031400040261C48C370C6700B6801330B6082F3C5
:103150001088EA034FEA1423E4B219D41B01164A7B
:10316000234442F82350EFF31082012383F31088A5
:103170000B6813B10B68013B0B600B681BB9802017
:103180000C49CB70C87082F31088002004B070BD69
:10319000094A04EB031052F820601B016FF310463C
:1031A00042F8206025F4803642F82060D7E700BF5F
:1031B000443B0020000D084000080840034610B4BE
:1031C0004FF0010C0024C3E903125A619A6883F896
:1031D00021C083F8234011799C6141F010011171E5
:1031E0001179204664F3C301117183F824405DF81E
:1031F000044B7047034630B400249D6883F8214097
:1032000083F82340C3E903125A612A799C6142F092
:1032100010022A712A79204664F3C3022A7183F8C6
:10322000244030BC704700BF84460020CCE90B32FC
:10323000CCF82810704700BF0021012310B4826829
:103240004160D17102682C4C92F90F204FEA521C58
:1032500002F01F0203FA02F20CF1200C44F82C20B9
:10326000BFF34F8FBFF36F8F026892F90C204FEAC4
:10327000521C02F01F0203FA02F20CF1200C44F877
:103280002C20BFF34F8FBFF36F8F026892F90D2090
:103290004FEA521C02F01F0203FA02F20CF1200C5A
:1032A00044F82C20BFF34F8FBFF36F8F026892F961
:1032B0000E204FEA521C02F01F0203FA02F20CF138
:1032C000200C44F82C20BFF34F8FBFF36F8FEFF328
:1032D000108483F310880068084A0078C0F1090060
:1032E0008340506803435360536884F31088084652
:1032F0005DF8044B704700BF00E100E0004008406B
:1033000070B5C36A84B004468C46164601AD9BB1C5
:1033100093E8070085E8070083F808C0226B184689
:10332000C3E90026A36A9847E36A1BB195E8070042
:1033300083E8070004B070BD2B46EDE7F8B5012225
:10334000B32302270446856880F82020EB7180F8BB
:1033500021706B79C2696FF300036B710E46FFF742
:10336000CFFFA368DF705A7942F001025A7194F8D6
:103370002120012A16D094F8212002B1F8BD052E93
:10338000FCD194F82320002AF8D194F821201AB90E
:103390005A7A02F0F3025A72BF210122D97184F8DD
:1033A0002320F8BD042EECD0082EE4D1E9E700BFBD
:1033B0002DE9F04F00260B784A6903F5800303F5E9
:1033C0001F631B0283608B690160C0E90B6382622B
:1033D000EFF31084012383F310880A78C2F1090205
:1033E0009340814A516821EA03035360536884F390
:1033F0001088DF214FF01F0C5F2702688368D569B2
:1034000080F82360AC7883F800C01F701970917A3F
:10341000012900F0E2801689F10901F0060141F06E
:103420000101F6B2D9729E720226D17AC90041F02A
:103430000101C9B299716D49DE7056688E420CBFA8
:103440006FF07F010021002C00F0C18041F07D0170
:10345000C9B2013C597166B24FF0A0094FF09F0804
:103460004FF0020E4FF0010C6978614F41F0E0011E
:1034700019742C78917C240146EA811104F07004BF
:1034800044F00804C9B29C70197183F8079083F85E
:10349000008092F8118092F90F300021554D564E60
:1034A0004FEA0818554C05EB03095FFA88F889F8CC
:1034B000008346F8230003F1C0094FEA531854F87B
:1034C00029A008FA0EF803F01F0308F160480CFA6F
:1034D00003F308F561486FF3104A44F829A0C8F8CF
:1034E0008031C8F8003092F8108092F90D304FEA20
:1034F00008185FFA88F805EB030989F800834FEA9A
:10350000531A46F8230003F1C00954F829B00AFA07
:103510000EFA03F01F030AF1604A0CFA03F30AF5EE
:10352000614A6FF3104B44F829B0CAF88031CAF8E9
:10353000003092F90E3005EB030989F800834FEA59
:10354000531A46F8230003F1C00954F829B00AFAC7
:103550000EFA03F01F030AF1604A0CFA03F30AF5AE
:10356000614A6FF3104B44F829B0CAF88031CAF8A9
:10357000003092F90C20154485F80083530946F871
:10358000220002F1C00554F8256003FA0EF302F0A0
:103590001F0203F160430CFA02F203F561436FF37B
:1035A000104644F82560C3F880211A6080F8241082
:1035B00080F821E0C0E9051180F82210C1600161A6
:1035C000476080F82010C1610846BDE8F08F41F0E7
:1035D0005D01C9B2264659713EE71189DE72490084
:1035E000C9B2997220E700BF0040084040420F0076
:1035F0005343324900E100E0483B002000600040B6
:1036000070B582B0EFF30383103B444A5BB2C03322
:1036100052F823106FF3104142F82310EFF30383A5
:103620003F4A103B5BB252F8234094F82230B3B9C2
:103630000122A36884F82220DA7CD2B28DF805201A
:103640009DF8052012F0010F5A7A14BF02F0F7021C
:1036500002F0F3025A72AC22DA7102B070BD94F833
:1036600020304BB9A36820461B7A13F0080F14BF13
:1036700008210421FFF762FE2269A2B9A368D97C60
:10368000C9B28DF806109DF80610197941F01001A5
:103690001971197941F008011971197962F304114E
:1036A000197102B070BDA3699A420AD0D4E902121E
:1036B000C97C581CA061D154E3690133E36102B0B5
:1036C00070BD0225A66884F821507379E2696FF312
:1036D0000003062173712046FFF712FEA3682169DB
:1036E000DD705A7942F001025A7191B9DA7CD2B296
:1036F0008DF807209DF807201A7942F010021A7100
:103700001A7942F008021A711A7961F304121A71D7
:10371000A3E7A269D97C501CE368CBE700600040B6
:10372000483B002038B5EFF30383103B244A5BB2DB
:10373000C03352F823106FF3104142F82310EFF317
:103740000383204A103B5BB252F8234094F82030A8
:1037500093B194F8213003F0FF0263B9A3692169A2
:1037600099420ED0E168E269C85CA1680133013278
:103770008874C4E9063238BD05212046FFF7DEFD16
:10378000E7E723680E4993F90E3003F1C00051F8C2
:103790002050002B62F3104541F8205009DB012135
:1037A0005A09094803F01F03603201FA03F340F895
:1037B0002230A268D37943F04003D37138BD00BFF3
:1037C00000600040483B002000E100E070B5EFF3EE
:1037D0000383214A103B5BB252F82350AC68237933
:1037E0005907C3F3800C17D5E279C0236FF3861213
:1037F000E27101E0013B02D0E2795206FAD4EFF324
:103800000383103B154A5BB2C03352F823106FF3A9
:10381000104142F8231070BD022685F821606379BB
:10382000EA696CF30003637107212846FFF768FD1E
:10383000AC68E670637943F00103637195F8213059
:10384000002BD1D1AB69E968EA69C95C0132013367
:10385000A174C5E90632C7E7483B0020006000407C
:1038600010B582B0EFF303833E4A103B5BB252F8CF
:10387000230083685A7A91074ED1D1B211F00C0F10
:103880003DD0012280F8242090F82120012A66D022
:103890000169826991424FF00301C26984BF02F15C
:1038A000FF32C2614FF0000EA024DC7180F820E0EE
:1038B00080F822E093F805C06EF3000C83F805C091
:1038C00090F82440002C45D14FF0DF0C9F2483F862
:1038D00000C01C7000240223C46180F82130FFF76F
:1038E0000FFDEFF30383103B1F4A5BB2C03352F866
:1038F00023106FF3104142F8231002B010BDCA0626
:10390000EFD5DA7CD2B28DF807209DF80720DA795E
:1039100002F0EF02DA71E4E70022A02180F824200F
:10392000D97180F8202080F82220597962F30001B3
:10393000597190F8241081B9DF219F2219701A70F3
:1039400000240223C2690121C46180F82130FFF7FD
:10395000D7FCC6E783F809E0BCE75A72F0E702211A
:10396000C2699FE7483B00200060004003460020FA
:1039700059601A72704700BF84460020CCE90E32AD
:10398000CCF83410704700BF0346044ADB680020BF
:103990009B1AB3FA83F35B090B7070474349495292
:1039A00070B5856B82B004460B466E4655B395E8FC
:1039B000030086E80300E26B2B7123682A605A69D2
:1039C00012B194F82910B9B19B6913B194F8292068
:1039D0006AB9636B28469847A36B1BB196E803004E
:1039E00083E80300002384F82B3002B070BD9A688E
:1039F000186813699847ECE7936810681B69984743
:103A00002368E1E73546D6E730B4344B82B01B6A11
:103A1000026903F00F2301930199019D137C90F833
:103A20002C409CB9C1F30321DBB2A1EB15618B40A3
:103A30009B0806D10823184602B030BC7047013BF2
:103A4000F8D05178C909FAD1B323D371002390F883
:103A50002640016880F8274080F82830846980F883
:103A60002B30036280F82D3080F82E3080F82F3014
:103A700080F830304B6AC46193F800C05C78BCF1C8
:103A8000010F0CBF0523042343EA4403DBB2D370C8
:103A9000537943F00103537191F90F30002B08DB88
:103AA000012203F01F040E495B09A24041F82320C4
:103AB0000269BF23D37190F82C1001F0FF0339B1D4
:103AC0000022134680F82C20184602B030BC704704
:103AD00002211846517002B030BC704700E001402E
:103AE00000E100E090F808C0C0E90512BCF1010F48
:103AF00080F82A300AD10022436880F826C05B0093
:103B000043F0010380F8243080F82520012380F859
:103B10002930FFF779BF00BF90F808C0C0E905124F
:103B2000BCF1010F80F82A3008D10022436880F8E8
:103B300026C05B0080F8243080F82520002380F820
:103B40002930FFF761BF00BF2DE9F04F4FF0DF0CC8
:103B50004FF01F0A4FF05F094FF0010E0369DFF8C5
:103B6000A0B183F800A083F8009083F800C0D0F8DB
:103B700000C00026DCF82490DCF804A099F804C00A
:103B8000B3224CF0E00C83F810C099F803C0594DF3
:103B90004CF0E00C83F811C099F802C04FF09F0878
:103BA0004FEA0C1C0CF0700C4CF0080C83F802C0AF
:103BB00099F800C099F80190F4450CBF4FF0050C3E
:103BC0004FF0040CDA450CBF4FF0F70A4FF0770ABC
:103BD0004CEA490C5FFA8CFC83F803C083F805A01B
:103BE0009E71DA7191F80DC091F91120424F4FEAA0
:103BF0000C1C424C5FFA8CFC05EB020989F800C3EF
:103C00004FEA521A47F8220002F1C00954F829B0CD
:103C10004FEA8A0A02F01F020AF1604A0EFA02F223
:103C20000AF5614A66F3104B44F829B0CAF88021BE
:103C3000CAF8002091F90F2005EB020989F800C3AA
:103C40004FEA521A47F8220002F1C00954F829B08D
:103C50004FEA8A0A02F01F020AF1604A0EFA02F2E3
:103C60000AF5614A66F3104B44F829B0CAF880217E
:103C7000CAF8002091F9102005EB020989F800C369
:103C80004FEA521A47F8220002F1C00954F829B04D
:103C90004FEA8A0A02F01F020AF1604A0EFA02F2A3
:103CA0000AF5614A66F3104B44F829B0CAF880213E
:103CB000CAF8002091F90E100D4485F800C347F8AA
:103CC000210001F1C00054F820504A09920001F08F
:103CD0001F0102F1604266F3104544F820500EFACD
:103CE00001F102F56142C2F88011116083F8008091
:103CF000BDE8F08F00E100E0483B0020006000409C
:103D000040420F00002270B50B78016003F580037C
:103D100003F51F631B0203618B680D4643600B7B39
:103D200004460372CB6982B043630B6AC0E90E2379
:103D3000EFF3108C012383F310880E78334AC6F119
:103D40000906B340566826EA0303536053688CF3B0
:103D50001088FFF7F9FEAB69ABB14FF4002059684A
:103D6000226892F90E600A6810606A4603C982E808
:103D700003001146019A16709A68186813689847EC
:103D8000064600282FD16B69A3B14FF00060596837
:103D9000226892F90F600A6810606A4603C982E8D7
:103DA00003001146019A16709A68186813689847BC
:103DB000064690B900231E463046154A84F829303D
:103DC000C4E9063384F82A30E26084F82B3063615A
:103DD000236284F82C3002B070BDAB691BB19A68C5
:103DE0001868136A9847EFF31080012383F3108853
:103DF0002978064AC1F109018B4051680B43536091
:103E0000536880F31088304602B070BD004008400F
:103E10004349495238B5C369044613B990F82C3068
:103E2000A3B10025236920462168DD71FFF78CFED0
:103E300094F82620A36984F82820B32223622369FA
:103E4000E56184F82C500020DA7138BD90F82B30F1
:103E5000002BE6D1B32223690020DA7138BD00BF00
:103E600038B5C36904461BB990F82C30002B73D0C9
:103E70000025236921682046DD71FFF765FE94F86F
:103E80002620A369E56184F82820236284F82C5059
:103E90000021B325226820699369C571C171E16071
:103EA00023B19A681868136A98472268536923B146
:103EB0009A681868136A98472268012392F91120BA
:103EC0002849500902F01F02203003FA02F241F89B
:103ED0002020BFF34F8FBFF36F8F226892F90E201F
:103EE000500902F01F0203FA02F2203041F82020AC
:103EF000BFF34F8FBFF36F8F226892F910205009E4
:103F000002F01F0203FA02F2203041F82020BFF332
:103F10004F8FBFF36F8F226892F90F20500902F084
:103F20001F0203FA02F2203041F82020BFF34F8F26
:103F3000BFF36F8FEFF3108083F3108821680A4A74
:103F400009785468C1F109018B40234353605368D9
:103F500080F31088002038BD90F82B30002B97D0CC
:103F600086E700BF00E100E00040084030B583B0C4
:103F7000EFF30383103B5B4A5BB2C03352F823106C
:103F80006FF3104142F82310EFF30383564A103BBE
:103F90005BB252F8234094F82D30002B2ED1A36948
:103FA0002169012B82BF0A7942F040020A71E2695D
:103FB000012A49D022689269AAB194F8290090B1E7
:103FC000032B10D99068033B8568133110689BB2AE
:103FD0006269A84703200122A3692169033BC4E960
:103FE000070384F82E200122CB7CDBB28DF807304A
:103FF0009DF8073084F82D2003B030BD94F82E30A2
:1040000003F0FF0223B1002384F82E3003B030BD4B
:10401000E369002BF0D0032B2DD0022B21D0012BF4
:104020002FD02169236AC97C6269D154D4E907324F
:104030000132013BC4E90732002BDDD121690A7945
:1040400063F386120A71D7E70A7942F010020A7107
:104050000A7942F008020A7122689269002AACD1FA
:10406000C1E721690B7943F010030B710B7943F021
:1040700008030B71D6E721690B7943F040030B71FC
:10408000D0E794F82A1029B32168184D91F90F1040
:10409000480901F01F0103FA01F1203045F8201012
:1040A000BFF34F8FBFF36F8F04252169C87940F0AC
:1040B0008000C871087940F010000871087962F337
:1040C000C30008714D70487962F30000487184F8AC
:1040D0002C30A7E7082221694B7A03F0F7034B72D3
:1040E0004A709FE700600040483B002000E100E08C
:1040F0002DE9F041EFF30383103B494A5BB2C03333
:1041000052F823106FF3104142F82310EFF30383AA
:10411000444A103B5BB252F8234094F82750002DDC
:104120003FD194F8293003F0FF02002B37D194F8E7
:104130002F30002B49D1E3694BB1D4E90410226A36
:10414000013B805C01328874C4E907323BBB2169C2
:10415000C023CA796FF3C712CA7101E0013B02D0D4
:10416000CA79D209FAD123682D4A93F9103003F1A4
:10417000C00052F82040002B6FF3104442F820405A
:1041800009DB01205A09284C03F01F03603200FAB2
:1041900003F344F82230CB7943F04003CB71BDE800
:1041A000F08194F82630032B13D0012D94F824606D
:1041B000226917D0967494F82830013D013384F8B1
:1041C000283084F82750BDE8F081E36984F82F2077
:1041D000BCE794F82830022BE7D194F83030002B5C
:1041E000DDD0E2E723685B69002BE3D094F8291067
:1041F00001F0FF070029DDD1A1690029DAD0996813
:104200001868D1F80880A38B12326169C047A3698E
:1042100084F82F50C4E90773226994F82750C9E73E
:1042200000600040483B002000E100E010B4EFF3E4
:1042300003832C4A103B5BB252F8233093F82920B9
:104240001AB193F82720012A47D0DA69D2B1196947
:10425000CA79C0236FF38612CA7101E0013B02D014
:10426000CA795206FAD4EFF30383103B1E4A5BB2BD
:10427000C03352F823106FF3104142F823105DF859
:10428000044B704793F82A10F9B14FF0010C1968EC
:10429000164C91F90F10480901F01F0120300CFA5B
:1042A00001F144F82010BFF34F8FBFF36F8F1969EE
:1042B000C87940F08000C87104204870487962F3E2
:1042C0000000487183F82CC0C2E7082219694B7AB4
:1042D00003F0F7034B724A70BAE793F83020002AD4
:1042E000B3D1B4E7483B00200060004000E100E0AB
:1042F00038B5EFF30383E0214C4A103B5BB252F830
:10430000234023695A7A5972D5065FFA82FC02F07B
:1043100003001FD55A7851064AD40121E26984F876
:104320002B10002A60D0002521682046DD71FFF7A0
:104330000BFC94F82610A2692369E56184F8281023
:10434000226284F82C50B32201212046DA71FFF753
:1043500027FB13E00028E0D11CF0080F1BD094F8D5
:104360002B20002A49D194F82910B322002914BF28
:1043700002210321DA712046FFF712FBEFF30383DA
:10438000103B2B4A5BB2C03352F823106FF310413D
:1043900042F8231038BD94F82C20002AEED01CF0EF
:1043A000040FEBD094F82B200121002AE3D1DAE7A7
:1043B0000028B2D15A78C2F380115206CCD5082019
:1043C00084F82B105A7A216802F0F702496A5A726F
:1043D00058700A78012A0CBF03220222DA705A7937
:1043E00042F001025A71C9E794F82C20002A9AD1B0
:1043F00094F82B20002AA6D095E7E2696AB1002242
:10440000A16994F82600C4E9072184F8280084F8FB
:104410002C20B3220121DA71ADE794F82C20002A78
:10442000EDD194F82B20002AF3D0E8E7483B002098
:104430000060004010B582B0EFF30384164B103CCF
:1044400064B253F82420154950790B5C03F0030340
:10445000032B0FD0C03451F824306FF3104341F8D0
:104460002430936823B1D268CDE90020684698478C
:1044700002B010BD936823B1D268CDE90020684630
:104480009847064BC03453F824206FF3104243F88A
:10449000242002B010BD00BF483B00200060004057
:1044A0004FF4964310B4426883B00193137803BB72
:1044B0004AF68023274AA2F88430B2F884309BB2AF
:1044C000802B08D110E0019B013B0193B2F88430AE
:1044D0009BB2802B08D0019B002BF4D14FF4FA70D3
:1044E00003B05DF8044B7047002003B05DF8044B47
:1044F000704792F91130184803F1C00150F821407B
:104500006FF3104440F82140012103F01F045B09C0
:104510009B0003F1604303F5614301FA04F4C3F81F
:1045200080411C6092F9132002F1C00350F823402F
:104530006FF3104440F8234053099B0002F01F0220
:1045400003F1604301FA02F203F56143C3F88021ED
:104550001A60ADE700E07F400060004000220346A3
:104560001046C3E902225A601A6070478368002B24
:1045700018DD0222013B0A60FCD18368002B11DDAB
:104580000322013B0A60FCD18368002B0ADD032271
:10459000013B0A60FCD18368002B03DD0222013B52
:1045A0000A60FCD1704700BF8368002B18DD06222B
:1045B000013B0A60FCD18368002B11DD0722013B1F
:1045C0000A60FCD18368002B0ADD0722013B0A60E8
:1045D000FCD18368002B03DD0622013B0A60FCD17D
:1045E000704700BF8368002B17DD0022013B0A6083
:1045F000FCD18368002B10DD0122013B0A60FCD155
:104600008368002B09DD0122013B0A60FCD182682E
:10461000002A02DD013A0B60FCD17047F8B5202476
:1046200005460F46D5E90101013CA4B2FFF7BCFFE6
:10463000002CF7D16868BC0043780E2644EAC31406
:1046400044F4C04406E0FFF791FF013E4FEA440402
:1046500009D068682304A968F5D5FFF7A5FF013ED6
:104660004FEA4404F5D1D5E90101FFF7BBFFD5E9D5
:1046700001011027344601228368002B1FDD013B16
:104680000C60FCD18368002B19DD013B0A60FCD172
:104690000D688368C5F3C005002B45EA460608DDB2
:1046A000013B0A60FCD18368002B02DD013B0C60FA
:1046B000FCD1013FE0D1FFF795FF3046F8BD0B6814
:1046C000013FC3F3C00343EA4606D5D1F3E700BF79
:1046D000F8B504460F46012115461E46FFF79EFF1A
:1046E00001212046FFF79AFF410734D5E3685A05B8
:1046F00004D52B6843F002032B60E3681B051BD431
:1047000080061FD505212046FFF788FF410544BFDD
:1047100002233360020503D5336843F0010333609D
:10472000450612D5040619D510F4807F14BF042362
:10473000032300203B60F8BD2B68800643F0010393
:104740002B60DFD441F28930F8BD0106ECD4C205FC
:104750000AD483060AD441F28830F8BD10F4807F71
:1047600014BF04230223E4E70423E2E70123E0E784
:1047700010B504460121FFF751FF01212046FFF744
:104780004DFF41F2883310F0040F0CBF1846002093
:1047900010BD00BFF8B5202405460F461646D5E9E2
:1047A0000101013CA4B2FFF7FFFE002CF7D16868BD
:1047B000BC00477844EAC71444F4A0440E2706E03E
:1047C000FFF7D4FE013F4FEA440409D06868220491
:1047D000A968F5D5FFF7E8FE013F4FEA4404F5D19B
:1047E000D5E90101FFF7E0FED5E90101FFF7BEFEC3
:1047F000102405E0FFF7BAFE013C4FEA460609D057
:10480000D5E901013304F5D5FFF7CEFE013C4FEAAF
:104810004606F5D1D5E90101BDE8F840FFF7E2BE53
:10482000F8B50E46002796F800C0154B4FEA8C2CC1
:104830006344C0E90163C760B37BDFF84CE0BB426F
:104840000CBF10233B464FF4004239468EF800302F
:1048500005463C46FFF79EFF01E0A3420ED900212A
:104860002846FFF7DBFE10F40040736804F10104F2
:10487000F3D1A34202D9034B2B60F8BD1420F8BD3D
:104880002041114059485052000D084038B540F2BF
:10489000E11240F6E1534568044695F80DC0042145
:1048A000BCF1000F18BF1A46C260FFF773FF4FF448
:1048B000905220460021FFF76DFF04212046FFF7AC
:1048C000ADFE002038BD00BFF8B54268044692F93D
:1048D00020300669002B476910DB01215A0903F0DB
:1048E0001F0301FA03F31949203241F82230BFF3C4
:1048F0004F8FBFF36F8F426892F920300025D26A44
:10490000134941F82350936810685B689847B3696E
:1049100065F38203B3613B6B65F396533B6335608C
:10492000A561EFF31080012383F310886168094AC1
:104930000978C1F10F018B4051680B4353605368F4
:1049400080F310882846C4E90055F8BD00E100E076
:10495000483B00200040084043689969B9B170B5F0
:104960005A7805468AB91E7D5A7D164466B10024E0
:10497000B60001E06B6899690859DA6900210434CE
:1049800011F008FFA642F5D170BD5E7DEEE77047DD
:104990000B4600212DE9F04104461A785D6B970221
:1049A00002F1401202F58852A7F1BF271602A7F5BF
:1049B0006E07C0E90476816143605A7D2868120160
:1049C00011F0E8FE636800211A7D6868120111F099
:1049D000E1FE2046FFF7C0FFEFF310804FF0010823
:1049E00088F310886368394A1B785168C3F10F0354
:1049F00008FA03F321EA03035360536880F3108835
:104A0000626933491368334843EA080313600B684B
:104A10004146B0FBF3F0404400F078FB6268636904
:104A20009068996F60F3050199675079996F60F309
:104A300011419967D36A9A68D3E9000112689047D7
:104A40000546002837D16368DB6A9A68186893685E
:104A5000984737233B61204B2048B362336B43F4C4
:104A600080033363626892F92030526A03F1604137
:104A70001201D2B201F5614181F80023184940F8D2
:104A800023405A0903F1C00051F82060920003F05E
:104A90001F0302F1604208FA03F302F5614265F375
:104AA000104641F82060C2F8803113600D4B284653
:104AB0002360BDE8F08141F2883240F6A573904250
:104AC00008BF1D462846BDE8F08100BF00400840F1
:104AD000D03C002000E1F5059F0FFF47483B002038
:104AE000006000404548544530B587B0EFF303837C
:104AF000164A103B5BB252F82330D3E904412069D7
:104B00008A6A550204D5850744BF01259D76206138
:104B10005B688A62996A51B11D781C6B0323CDE9E9
:104B200003020195059401A88DF808308847EFF33A
:104B30000383103B064A5BB2C03352F823106FF375
:104B4000104142F8231007B030BD00BF483B0020A1
:104B5000006000400246F121D2E90223013B9BB2F2
:104B600013800020117270478268107A00F00100F3
:104B7000137AC3F340039842FAD1137A0020C3F3A7
:104B800040030B7113889BB20B6070478268117AE7
:104B900001F00101137AC3F340039942FAD14FF0B7
:104BA000F40C0021436882F808C0117393F91230A5
:104BB00013F1210F03D100230360184670478B4285
:104BC0001ADB012110B45A090F4C03F01F032032E5
:104BD00001FA03F344F82230BFF34F8FBFF36F8F16
:104BE00043680A4A93F912305DF8044B42F82300F7
:104BF0000023036018467047044A42F8230000234C
:104C000003601846704700BF00E100E0483B002009
:104C10008268117A01F00101137AC3F340039942CB
:104C2000FAD143681978012903D0F12300201372C7
:104C300070474FF0F10CC168187C094B43F8201005
:104C40004B1E9BB253809380138082F808C0137A66
:104C50009B07FCD54FF6FF7300205380938070476D
:104C6000EC3A002010B4826892F808C00CF0010CF5
:104C7000137AC3F340039C45FAD14368C468D869EA
:104C80008C60007850280BD11B7C2748013B50F8E2
:104C900023300BBB00205DF8044B4B60087070475D
:104CA000537AC3F302105B060FD4204A204B126ADA
:104CB0001B68C2F30264A340C2F30222D34000285F
:104CC000E8D080F00200C340E4E74FF40043927A5A
:104CD00002F00702D340DDE712F8F70CA2F580726C
:104CE000C0F30214400616D41048114A006A126834
:104CF000C0F3026C02FA0CF2C0F30220C24014B1FD
:104D000084F00204E2400020B2FBF3F35DF8044BB0
:104D10004B60087070474FF40040927A02F007022F
:104D200020FA02F2EFE700BFEC3A002000E0014079
:104D3000D03C00202DE9F04F0B7C83B003F58003BD
:104D400003F568631B0241608360EFF31085012364
:104D500083F310880A7C032A00F2A880C2F10302C0
:104D60009340DB435A4C5B4AE4682340136013686A
:104D700085F31088002283681A721A7AC2F34004FD
:104D80009207FAD4CA699C720F7A92F803C0167817
:104D9000456892F804E001970CF0070C002E7DD1D5
:104DA000002F40F08B802C785678022C06F0770983
:104DB00019D16F68D5F80C8007F1FF3AAAEB080A01
:104DC00006F0070706F07006072F14BFC346D34648
:104DD000702E08BFD0461FFA8BFB1FFA88F8A3F885
:104DE00002B0A3F80480927812F0070205D04EF0CA
:104DF000040E032A08BF4EF0010E019A83F80CE05E
:104E000083F80E9083F809C09A724A68C2602E7CBB
:104E1000314D45F82620551EADB2002C37D1C2F3D6
:104E20004F025A809A801D8091F91230002B22DBAC
:104E30004A7C03F160441201D2B204F5614484F863
:104E400000230124254A264D42F8230003F1C00621
:104E50005A0955F82670920003F01F0302F16042D0
:104E600002F5614204FA03F36FF3104745F8267028
:104E7000C2F8803113600023D1E90541194A046169
:104E8000816102604361184603B0BDE8F08F012CD8
:104E90001CD0022C18BF0022C5D0C2E7502E06BF7E
:104EA00001944CF0500C46EA0C0C7CE7C2F1130262
:104EB000074C9340DB430C4A246956E787F002070E
:104EC0004CEA071C01965FFA8CFC6CE72A46A8E7BF
:104ED000004008400C400840EC3A0020483B0020CD
:104EE000006000405447410010400840F0B585B0D4
:104EF000EFF30383103B1E4A5BB203F1C00152F88B
:104F000021001C4C6FF3104042F8210054F823405C
:104F1000D4E901120978137A0129DBB207D1F42010
:104F2000917B03F0F003C9B2107213729173276979
:104F3000B7B1656901AECDB195E8070086E8070015
:104F40009B0644BF00232B71A36928462B60B847FA
:104F500063691BB196E8070083E80700A268137A2B
:104F6000DBB203F00F03137205B0F0BD3546E7E77F
:104F700000600040483B0020064B074993F826009C
:104F80001A6A51F82030C2F302620449D3400B6020
:104F9000704700BF00E0014054110020D03C0020C9
:104FA000F8B54AF2035001234849494AA1F8FE03E3
:104FB000A2F80431B2F804319BB2002BFAD10121DE
:104FC0004FF400454FF0090C424CDFF824E1424E0B
:104FD000C4F804E0DFF81CE13C48C4F80CE0A2F897
:104FE0000011B1603D4A3160A56025613C4D3D4FE7
:104FF000C4E90552276090F82620056A54F822205B
:10500000C5F30265EA40384D2A6080F8133480F811
:10501000A2C090F88034002B50D000232B4981F897
:10502000813481F8803481F8323091F83C301A07AD
:10503000FBD5002342F2017643F20210234AA1F885
:10504000486081F84A30088581F82A3092F83C306F
:105050009B06FBD5032005211D4B83F81C01012075
:10506000224B82F82610136292F82630116A54F807
:105070002330C1F30261CB402B6082F8300082F80C
:10508000520092F87430114943F0400382F87430B2
:1050900091F87430DB09FBD0062346200B4A81F8D7
:1050A0006C3081F8740081F8743092F87430DB0948
:1050B000FBD14FF42543A2F8FE33F8BD80F88014ED
:1050C00040F2C44000F022F8A7E700BF00E0014032
:1050D00000C001405411002000700040001C4E0E22
:1050E00000C2EB0B002D3101D03C00202112012029
:1050F00000127A0000366E01704700BF00BEFEE766
:10510000A0F101000028FBD1704700BF10B54FF49B
:105110007A72164C164B24684FF0000EB3FBF4FC69
:105120004FF0FF3300FB01F1A1FB020483427EEB51
:10513000040407D3B0FBFCF0800880B1BDE8104048
:10514000FFF7DEBF4FEA8C0CB1FBFCF1A1FB0212B2
:105150008B427EEB020203D308460028EED110BD3D
:105160001846BDE81040FFF7CBBF00BFD03C002081
:1051700000CA9A3B70B500240A4B0B4EB3F840515D
:10518000ADB225FA04F3DB07E0B203D556F82430BC
:1051900003B198470134102CF3D1024BA3F83051DE
:1051A00070BD00BF00600040043B002030B56FF0D0
:1051B000FF0585B0032000F079F84FF0FF311F4C58
:1051C0001F482246856400230125CDE90111039182
:1051D00004F1C00E32F8020F590960B104A800EBC7
:1051E000810151F80C0C03F01F0C05FA0CFC20EAAD
:1051F0000C0041F80C0C724503F10103EAD101994E
:10520000104B0F4A03201167C3F8801202995167AF
:10521000C3F8841203999167C3F8881200F016F856
:105220000023094803F1C00234F8021F0133602B48
:1052300040F82210F6D105B030BD00BF90BE02008C
:105240000080004000E100E000600040EFF31081CA
:10525000012383F31088124B33F8102092B22AB145
:1052600033F81020013A92B223F8102033F81030AE
:105270009BB293B90B4A10B4B2F8FE330A4C9BB2FE
:1052800034F8100043F4254323EA0003A2F8FE3368
:1052900081F310885DF8044B704781F310887047E4
:1052A000C83C002000E0014034BD020030B4EFF300
:1052B0001081012383F310880E4A32F810309BB21C
:1052C0006BB90D4C0D4DB4F8FE3335F810C09BB2E0
:1052D00043EA0C0343F425439BB2A4F8FE3332F8AF
:1052E000103001339BB222F8103081F3108830BCAB
:1052F000704700BFC83C002000E0014034BD020000
:1053000000BE704708B500F005F8FCF7BDFEFEE7EB
:10531000704700BF4FF47001234B244A70B5002042
:10532000C3F888109A60FFF7F3FFFFF739FE0120FA
:10533000FFF7EEFF1E4B83F30A881E481E4A00212A
:10534000121A11F027FA1D481D4A1E49121A11F0AF
:1053500049F91D4D1D4B5B1B002B07DD00249E10E2
:1053600055F8043B01349847A642F9DCFFF704FEE8
:105370000320FFF79BFF00234FF6FF70144903F152
:1053800008020133092B21F81200F8D10320FFF79E
:105390005DFF0220FFF7BCFFFFF708FFBDE870408C
:1053A0000020FFF7A9BE00BF00ED00E000000100F3
:1053B00000EE072080110020088D00200000002052
:1053C000541100201CC902000411002040110020CB
:1053D000000D0840064B074A1B6A1268C3F30261BE
:1053E00023FA00F08A4000F0070022FA00F070472C
:1053F00000E00140D03C002000220270C0E9012200
:1054000080F83520DF2282777047FFFF2DE9F047D3
:10541000002604461F469DF8283006702173037548
:10542000089B89460361099B154683610B9BDFF846
:105430002C8103620C9BC0E90936FF234377002AC5
:105440003ED184F83520502007F00AF94FF6FF735B
:10545000A0F84230DF23064600F1200A80F82050F1
:1054600080F8215080F8225080F82350C0E9095577
:10547000C562C0E90E55C0E90C5580F8443080F88B
:10548000453080F8405080F84150C0E91255C4F8CA
:1054900028A02022294611F07DF9092FA66050D8B6
:1054A0002C4AB9F1020FD35D114638D098F80000AC
:1054B00000284CD1002B44D102232777D3553EE05E
:1054C000012A3ED184F83520242007F0C9F88378DA
:1054D000052F66F3020383704378067003F0F80328
:1054E00066F306134370C570067146718671A0623B
:1054F000606026D8184BB9F1020FDA5D194602D068
:1055000098F8000028B1012A1BD802232777CB5531
:1055100015E0B2B902222777DA55257011E0012B88
:10552000F3D92777384601F099FB3022816A50463B
:1055300011F058F8384601F091FB036BA361012389
:1055400023700023207888F80030BDE8F087012B15
:10555000DAE700BFDA3C0020D43C0020E43C002025
:105560001A4A70B5002315469C5C1CB95BB20470E6
:10557000184670BD01330A2BF6D1154A0023144694
:105580009E5C1EB901225BB20270F1E70133062B6B
:10559000F6D1B9B10922A95C53B2022905D0002283
:1055A000012102700B4A1170E2E712F1FF32F2D2D0
:1055B0000522A15C53B2022901D00122F0E712F1C9
:1055C000FF32F6D24FF0FF33D2E700BFDA3C0020C3
:1055D000D43C0020E43C00202DE9F84F2DED028B57
:1055E00090F8355004468A46002D40F098802846B1
:1055F000FFF7F0FE07EE900AB8EE678A28EE008A01
:1056000018EE100A08F0F6F980465046894608F070
:10561000CFF906460F4602460B464046494608F07B
:10562000B3FC30B1BCEEC88A84ED0B8A84F83450E8
:1056300071E00022624B4046494608F033FA824648
:105640008B4602460B463046394608F0BBFC40B15B
:105650005046594608F0C0FC0223E06284F834301A
:1056600059E00022574B4046494608F01BFA824653
:105670008B4602460B463046394608F0A3FC30B153
:105680005046594608F0A8FC0423E062E6E70022F1
:105690004D4B4046494608F005FA82468B46024685
:1056A0000B463046394608F08DFC30B1504659461D
:1056B00008F092FC0623E062D0E70022434B40460C
:1056C000494608F0EFF982468B4602460B463046C3
:1056D000394608F077FC30B15046594608F07CFC5A
:1056E0000823E062BAE70022394B4046494608F0F9
:1056F000D9F98046894602460B463046394608F0BD
:1057000061FC30B14046494608F066FC0A23E0627D
:10571000A4E700232370BDEC028BBDE8F88F012DB8
:10572000F9D10820FFF756FE07EE900AB8EE678A17
:1057300028EE008A18EE100A08F05CF9064650467A
:105740000F4608F035F98046894602460B4630463A
:10575000394608F019FC28B1BCEEC88A002384ED54
:105760000B8A7BE700221B4B3046394608F09AF93A
:1057700082468B4602460B464046494608F022FCCC
:1057800028B15046594608F027FCE0624EE7002257
:105790004FF07F533046394608F084F906460F46ED
:1057A00002460B464046494608F00CFC0028B0D0A3
:1057B0003046394608F010FC0323E0624EE700BF94
:1057C0000000D03F0000B03F0000903F0000703F5D
:1057D0000000503F0000E03FF0B51D462DED028B6C
:1057E0000123F7EE007A032D87B004460E461746D4
:1057F000B0EE608A037087EE800A3DD890F83530AD
:10580000002B39D14FF0FF31FFF7E6FEB5EEC08A2D
:10581000F1EE10FA34DBDFED1C7AB4EEE78AF1EE3C
:1058200010FA2DD8D4ED0B7AF8EE677A67EE887A05
:1058300017EE900A08F0DEF80022144B08F05CFA2C
:1058400008F0CAFB206323788BB10F9B3A46049380
:105850000E9B3146039394F8343020460293236B19
:105860000193E36A00932B46FFF7D0FD2070207868
:1058700007B0BDEC028BF0BD4FF6FF712046C3E7C9
:1058800000232370DFE700BF0000C842000059403A
:1058900007B590F835303BB9694680680FF030FDA8
:1058A000009803B05DF804FB012B05D14068694600
:1058B0000830FFF759F9F3E70020F2E71FB590F839
:1058C00035303BB901A980680FF070FD029805B032
:1058D0005DF804FB012B05D1406801A90830FFF7F2
:1058E000C1F9F3E70020F2E738B590F83530044607
:1058F0008BB9806808B9002038BD04F10C010FF0A5
:10590000B5FD0546A0680FF0E3FC0E2D01D0002D7B
:10591000F1D10120F0E7012BEDD140680028EAD059
:1059200004F10C010830FFF705FA054660680830FD
:10593000FFF710F9E9E708B590F835303BB9806812
:1059400020B10FF0BFFCB0FA80F0400908BD012B78
:1059500006D140680028F9D00830FFF759F9F2E77E
:105960000020F3E708B590F835303BB9806820B1E6
:105970000FF0B0FEB0FA80F0400908BD012B06D14F
:1059800040680028F9D00830FFF700F9F2E700205E
:10599000F3E7FFFF38B50446FFF7E4FF606838B16E
:1059A0000025237F0B4A2421D55407F069F8656050
:1059B000A56875B10021237F074AA86CD15410B1A6
:1059C000202107F05DF85021284607F059F8002300
:1059D000A36038BDD43C0020DA3C002010B504465A
:1059E000FFF7D8FF204610BD01F10C0303608B6860
:1059F00003B1203343604B6883607047836823B1F1
:105A00001868003018BF0120704740680028FBD09C
:105A10008068F6E7EFF3108272B690F91E3001202D
:105A2000590903F01F0300FA03F30648203140F838
:105A30002130BFF34F8FBFF36F8F12B962B6BFF340
:105A40006F8F704700E100E0F0B5044685B00F4667
:105A5000014601A81546FFF7C7FF2046FFF7CEFF16
:105A6000064610B12046FFF77DFF00F055F82A46A4
:105A700001A900F045F9054650B167772EB12046DF
:105A8000FFF732FF2046FFF756FF284605B0F0BD6E
:105A9000DF23A377F2E7FFFF0B4B00F1C00253F8BF
:105AA00022106FF3104143F82210012300F01F026F
:105AB0004009800000F16040934000F56140C0F86B
:105AC00080310360704700BF00600040012243093D
:105AD00000F01F0002FA00F0044A203342F82300CD
